{
  "_format": "hh-sol-artifact-1",
  "contractName": "Marketplace",
  "sourceName": "contracts/marketplace/Marketplace.sol",
  "abi": [
    {
      "anonymous": false,
      "inputs": [
        {
          "indexed": true,
          "internalType": "address",
          "name": "_seller",
          "type": "address"
        },
        {
          "indexed": false,
          "internalType": "address",
          "name": "_contract",
          "type": "address"
        }
      ],
      "name": "MarketplaceContractAdded",
      "type": "event"
    },
    {
      "anonymous": false,
      "inputs": [
        {
          "indexed": true,
          "internalType": "address",
          "name": "_seller",
          "type": "address"
        },
        {
          "indexed": false,
          "internalType": "address",
          "name": "_contract",
          "type": "address"
        },
        {
          "indexed": false,
          "internalType": "uint256",
          "name": "_tokenId",
          "type": "uint256"
        },
        {
          "indexed": false,
          "internalType": "uint256",
          "name": "_marketTokenId",
          "type": "uint256"
        }
      ],
      "name": "MarketplaceTokenAdded",
      "type": "event"
    },
    {
      "anonymous": false,
      "inputs": [
        {
          "indexed": true,
          "internalType": "address",
          "name": "previousOwner",
          "type": "address"
        },
        {
          "indexed": true,
          "internalType": "address",
          "name": "newOwner",
          "type": "address"
        }
      ],
      "name": "OwnershipTransferred",
      "type": "event"
    },
    {
      "anonymous": false,
      "inputs": [
        {
          "indexed": false,
          "internalType": "address",
          "name": "_currentOwner",
          "type": "address"
        },
        {
          "indexed": false,
          "internalType": "address",
          "name": "_newOwner",
          "type": "address"
        },
        {
          "indexed": false,
          "internalType": "uint256",
          "name": "_tokenId",
          "type": "uint256"
        }
      ],
      "name": "TokenTransfered",
      "type": "event"
    },
    {
      "inputs": [
        {
          "internalType": "string",
          "name": "_url",
          "type": "string"
        },
        {
          "internalType": "string",
          "name": "_name",
          "type": "string"
        },
        {
          "internalType": "string",
          "name": "_description",
          "type": "string"
        }
      ],
      "name": "addContract",
      "outputs": [],
      "stateMutability": "nonpayable",
      "type": "function"
    },
    {
      "inputs": [
        {
          "internalType": "address",
          "name": "_contract",
          "type": "address"
        },
        {
          "internalType": "string",
          "name": "_name",
          "type": "string"
        },
        {
          "internalType": "uint256",
          "name": "_tokenId",
          "type": "uint256"
        },
        {
          "internalType": "uint256",
          "name": "_price",
          "type": "uint256"
        }
      ],
      "name": "addToken",
      "outputs": [],
      "stateMutability": "nonpayable",
      "type": "function"
    },
    {
      "inputs": [
        {
          "internalType": "uint256",
          "name": "_marketTokenId",
          "type": "uint256"
        },
        {
          "internalType": "address",
          "name": "_contract",
          "type": "address"
        }
      ],
      "name": "buyToken",
      "outputs": [],
      "stateMutability": "payable",
      "type": "function"
    },
    {
      "inputs": [
        {
          "internalType": "uint256",
          "name": "",
          "type": "uint256"
        }
      ],
      "name": "contractAddresses",
      "outputs": [
        {
          "internalType": "address",
          "name": "",
          "type": "address"
        }
      ],
      "stateMutability": "view",
      "type": "function"
    },
    {
      "inputs": [
        {
          "internalType": "address",
          "name": "_contract",
          "type": "address"
        }
      ],
      "name": "getContractTokens",
      "outputs": [
        {
          "components": [
            {
              "internalType": "address",
              "name": "owner",
              "type": "address"
            },
            {
              "internalType": "address",
              "name": "seller",
              "type": "address"
            },
            {
              "internalType": "address",
              "name": "contractAddress",
              "type": "address"
            },
            {
              "internalType": "string",
              "name": "name",
              "type": "string"
            },
            {
              "internalType": "uint256",
              "name": "price",
              "type": "uint256"
            },
            {
              "internalType": "uint256",
              "name": "tokenId",
              "type": "uint256"
            },
            {
              "internalType": "uint256",
              "name": "marketTokenId",
              "type": "uint256"
            },
            {
              "internalType": "string",
              "name": "contractUri",
              "type": "string"
            },
            {
              "internalType": "string",
              "name": "tokenUri",
              "type": "string"
            },
            {
              "internalType": "bool",
              "name": "sold",
              "type": "bool"
            }
          ],
          "internalType": "struct Marketplace.MarketplaceItemToken[]",
          "name": "",
          "type": "tuple[]"
        }
      ],
      "stateMutability": "view",
      "type": "function"
    },
    {
      "inputs": [],
      "name": "getNotSenderTokens",
      "outputs": [
        {
          "components": [
            {
              "internalType": "address",
              "name": "owner",
              "type": "address"
            },
            {
              "internalType": "address",
              "name": "seller",
              "type": "address"
            },
            {
              "internalType": "address",
              "name": "contractAddress",
              "type": "address"
            },
            {
              "internalType": "string",
              "name": "name",
              "type": "string"
            },
            {
              "internalType": "uint256",
              "name": "price",
              "type": "uint256"
            },
            {
              "internalType": "uint256",
              "name": "tokenId",
              "type": "uint256"
            },
            {
              "internalType": "uint256",
              "name": "marketTokenId",
              "type": "uint256"
            },
            {
              "internalType": "string",
              "name": "contractUri",
              "type": "string"
            },
            {
              "internalType": "string",
              "name": "tokenUri",
              "type": "string"
            },
            {
              "internalType": "bool",
              "name": "sold",
              "type": "bool"
            }
          ],
          "internalType": "struct Marketplace.MarketplaceItemToken[]",
          "name": "",
          "type": "tuple[]"
        }
      ],
      "stateMutability": "view",
      "type": "function"
    },
    {
      "inputs": [],
      "name": "getSellerContracts",
      "outputs": [
        {
          "components": [
            {
              "internalType": "address",
              "name": "owner",
              "type": "address"
            },
            {
              "internalType": "address",
              "name": "contractAddress",
              "type": "address"
            },
            {
              "internalType": "string",
              "name": "name",
              "type": "string"
            },
            {
              "internalType": "string",
              "name": "description",
              "type": "string"
            }
          ],
          "internalType": "struct Marketplace.MarketplaceItem[]",
          "name": "",
          "type": "tuple[]"
        }
      ],
      "stateMutability": "view",
      "type": "function"
    },
    {
      "inputs": [],
      "name": "getSenderTokens",
      "outputs": [
        {
          "components": [
            {
              "internalType": "address",
              "name": "owner",
              "type": "address"
            },
            {
              "internalType": "address",
              "name": "seller",
              "type": "address"
            },
            {
              "internalType": "address",
              "name": "contractAddress",
              "type": "address"
            },
            {
              "internalType": "string",
              "name": "name",
              "type": "string"
            },
            {
              "internalType": "uint256",
              "name": "price",
              "type": "uint256"
            },
            {
              "internalType": "uint256",
              "name": "tokenId",
              "type": "uint256"
            },
            {
              "internalType": "uint256",
              "name": "marketTokenId",
              "type": "uint256"
            },
            {
              "internalType": "string",
              "name": "contractUri",
              "type": "string"
            },
            {
              "internalType": "string",
              "name": "tokenUri",
              "type": "string"
            },
            {
              "internalType": "bool",
              "name": "sold",
              "type": "bool"
            }
          ],
          "internalType": "struct Marketplace.MarketplaceItemToken[]",
          "name": "",
          "type": "tuple[]"
        }
      ],
      "stateMutability": "view",
      "type": "function"
    },
    {
      "inputs": [],
      "name": "getTokens",
      "outputs": [
        {
          "components": [
            {
              "internalType": "address",
              "name": "owner",
              "type": "address"
            },
            {
              "internalType": "address",
              "name": "seller",
              "type": "address"
            },
            {
              "internalType": "address",
              "name": "contractAddress",
              "type": "address"
            },
            {
              "internalType": "string",
              "name": "name",
              "type": "string"
            },
            {
              "internalType": "uint256",
              "name": "price",
              "type": "uint256"
            },
            {
              "internalType": "uint256",
              "name": "tokenId",
              "type": "uint256"
            },
            {
              "internalType": "uint256",
              "name": "marketTokenId",
              "type": "uint256"
            },
            {
              "internalType": "string",
              "name": "contractUri",
              "type": "string"
            },
            {
              "internalType": "string",
              "name": "tokenUri",
              "type": "string"
            },
            {
              "internalType": "bool",
              "name": "sold",
              "type": "bool"
            }
          ],
          "internalType": "struct Marketplace.MarketplaceItemToken[]",
          "name": "",
          "type": "tuple[]"
        }
      ],
      "stateMutability": "view",
      "type": "function"
    },
    {
      "inputs": [],
      "name": "owner",
      "outputs": [
        {
          "internalType": "address",
          "name": "",
          "type": "address"
        }
      ],
      "stateMutability": "view",
      "type": "function"
    },
    {
      "inputs": [],
      "name": "renounceOwnership",
      "outputs": [],
      "stateMutability": "nonpayable",
      "type": "function"
    },
    {
      "inputs": [
        {
          "internalType": "address",
          "name": "newOwner",
          "type": "address"
        }
      ],
      "name": "transferOwnership",
      "outputs": [],
      "stateMutability": "nonpayable",
      "type": "function"
    },
    {
      "stateMutability": "payable",
      "type": "receive"
    }
  ],
  "bytecode": "0x608060405234801561001057600080fd5b5061001a3361001f565b61006f565b600080546001600160a01b038381166001600160a01b0319831681178455604051919092169283917f8be0079c531659141344cd1fd0a4f28419497f9722a3daafe3b4186f6b6457e09190a35050565b615032806200007f6000396000f3fe608060405260043610620000b95760003560e01c80638da5cb5b116200006c5780638da5cb5b14620002215780639134709e14620002415780639e284bad1462000258578063aa6ca808146200027d578063ee0c04ca1462000295578063f2fde38b14620002ad57600080fd5b806306dc4c2414620001285780633263b54514620001585780635f42bf46146200019657806366617c8914620001bd5780636c2bc72d14620001e4578063715018a6146200020957600080fd5b36620001235760405162461bcd60e51b815260206004820152602e60248201527f4e6f2065746865722063616e2062652073656e74206469726563746c7920746f60448201526d081d1a1a5cc818dbdb9d1c9858dd60921b60648201526084015b60405180910390fd5b600080fd5b3480156200013557600080fd5b5062000140620002d2565b6040516200014f919062002ba3565b60405180910390f35b3480156200016557600080fd5b506200017d62000177366004620029c0565b62000618565b6040516001600160a01b0390911681526020016200014f565b348015620001a357600080fd5b50620001ae62000643565b6040516200014f919062002a80565b348015620001ca57600080fd5b50620001e2620001dc36600462002830565b62000afa565b005b348015620001f157600080fd5b50620001e26200020336600462002932565b620010ba565b3480156200021657600080fd5b50620001e262001216565b3480156200022e57600080fd5b506000546001600160a01b03166200017d565b620001e262000252366004620029f2565b62001280565b3480156200026557600080fd5b50620001ae62000277366004620027eb565b62001675565b3480156200028a57600080fd5b50620001ae6200191d565b348015620002a257600080fd5b50620001ae62001d8a565b348015620002ba57600080fd5b50620001e2620002cc366004620027eb565b62002243565b60606000805b60025481101562000360576000600282815481106200030757634e487b7160e01b600052603260045260246000fd5b60009182526020808320909101546001600160a01b039081168084526003909252604090922054909250163314156200034a5782620003468162002d2e565b9350505b5080620003578162002d2e565b915050620002d8565b5060008167ffffffffffffffff8111156200038b57634e487b7160e01b600052604160045260246000fd5b604051908082528060200260200182016040528015620003e157816020015b6040805160808101825260008082526020820152606091810182905281810191909152815260200190600190039081620003aa5790505b5090506000805b6002548110156200060f576000600282815481106200041757634e487b7160e01b600052603260045260246000fd5b60009182526020808320909101546001600160a01b03908116808452600390925260409092205490925016331415620005f9576001600160a01b03808216600090815260036020908152604091829020825160808101845281548516815260018201549094169184019190915260028101805491928401916200049a9062002cf1565b80601f0160208091040260200160405190810160405280929190818152602001828054620004c89062002cf1565b8015620005195780601f10620004ed5761010080835404028352916020019162000519565b820191906000526020600020905b815481529060010190602001808311620004fb57829003601f168201915b50505050508152602001600382018054620005349062002cf1565b80601f0160208091040260200160405190810160405280929190818152602001828054620005629062002cf1565b8015620005b35780601f106200058757610100808354040283529160200191620005b3565b820191906000526020600020905b8154815290600101906020018083116200059557829003601f168201915b505050505081525050848481518110620005dd57634e487b7160e01b600052603260045260246000fd5b60200260200101819052508280620005f59062002d2e565b9350505b5080620006068162002d2e565b915050620003e8565b50909392505050565b600281815481106200062957600080fd5b6000918252602090912001546001600160a01b0316905081565b60606000805b600254811015620006e8576000600282815481106200067857634e487b7160e01b600052603260045260246000fd5b60009182526020808320909101546001600160a01b039081168084526003909252604090922054909250163314620006d2576001600160a01b038116600090815260046020526040902054620006cf908462002ca3565b92505b5080620006df8162002d2e565b91505062000649565b5060008167ffffffffffffffff8111156200071357634e487b7160e01b600052604160045260246000fd5b6040519080825280602002602001820160405280156200075057816020015b6200073c62002670565b815260200190600190039081620007325790505b5090506000805b6002548110156200060f576000600282815481106200078657634e487b7160e01b600052603260045260246000fd5b60009182526020808320909101546001600160a01b03908116808452600390925260409092205490925016331462000ae4576001600160a01b038116600090815260046020908152604080832080548251818502810185019093528083529192909190849084015b8282101562000a535760008481526020908190206040805161014081018252600a860290920180546001600160a01b0390811684526001820154811694840194909452600281015490931690820152600382018054919291606084019190620008579062002cf1565b80601f0160208091040260200160405190810160405280929190818152602001828054620008859062002cf1565b8015620008d65780601f10620008aa57610100808354040283529160200191620008d6565b820191906000526020600020905b815481529060010190602001808311620008b857829003601f168201915b505050505081526020016004820154815260200160058201548152602001600682015481526020016007820180546200090f9062002cf1565b80601f01602080910402602001604051908101604052809291908181526020018280546200093d9062002cf1565b80156200098e5780601f1062000962576101008083540402835291602001916200098e565b820191906000526020600020905b8154815290600101906020018083116200097057829003601f168201915b50505050508152602001600882018054620009a99062002cf1565b80601f0160208091040260200160405190810160405280929190818152602001828054620009d79062002cf1565b801562000a285780601f10620009fc5761010080835404028352916020019162000a28565b820191906000526020600020905b81548152906001019060200180831162000a0a57829003601f168201915b50505091835250506009919091015460ff1615156020918201529082526001929092019101620007ee565b50505050905060005b815181101562000ae15781818151811062000a8757634e487b7160e01b600052603260045260246000fd5b602002602001015186868151811062000ab057634e487b7160e01b600052603260045260246000fd5b6020026020010181905250848062000ac89062002d2e565b955050808062000ad89062002d2e565b91505062000a5c565b50505b508062000af18162002d2e565b91505062000757565b83336001600160a01b0316816001600160a01b0316638da5cb5b6040518163ffffffff1660e01b815260040160206040518083038186803b15801562000b3f57600080fd5b505afa15801562000b54573d6000803e3d6000fd5b505050506040513d601f19601f8201168201806040525081019062000b7a919062002811565b6001600160a01b03161462000bd25760405162461bcd60e51b815260206004820152601960248201527f4f6e6c79204e4654206f776e657220697320616c6c6f7765640000000000000060448201526064016200011a565b848262000c225760405162461bcd60e51b815260206004820152601c60248201527f5072696365206d7573742062652067726561746572207468616e20300000000060448201526064016200011a565b6001600160a01b038681166000908152600360205260409020541662000c8b5760405162461bcd60e51b815260206004820152601760248201527f436f6e747261637420646f6573206e6f7420657869737400000000000000000060448201526064016200011a565b604051634542172f60e11b8152600481018590526001600160a01b03821690638a842e5e9060240160206040518083038186803b15801562000ccc57600080fd5b505afa15801562000ce1573d6000803e3d6000fd5b505050506040513d601f19601f8201168201806040525081019062000d07919062002894565b62000d555760405162461bcd60e51b815260206004820152601860248201527f546f6b656e204964206973206e6f74204d696e7461626c65000000000000000060448201526064016200011a565b60405163731133e960e01b8152336004820152602481018590526001604482015260806064820152600060848201526001600160a01b0382169063731133e99060a401600060405180830381600087803b15801562000db357600080fd5b505af115801562000dc8573d6000803e3d6000fd5b5050505062000ddb600180546001019055565b600062000de760015490565b9050600060405180610140016040528060006001600160a01b03168152602001336001600160a01b03168152602001896001600160a01b03168152602001888152602001868152602001878152602001838152602001846001600160a01b0316630e89341c896040518263ffffffff1660e01b815260040162000e6c91815260200190565b60006040518083038186803b15801562000e8557600080fd5b505afa15801562000e9a573d6000803e3d6000fd5b505050506040513d6000823e601f3d908101601f1916820160405262000ec49190810190620028b6565b8152602001846001600160a01b0316638ad91345896040518263ffffffff1660e01b815260040162000ef891815260200190565b60006040518083038186803b15801562000f1157600080fd5b505afa15801562000f26573d6000803e3d6000fd5b505050506040513d6000823e601f3d908101601f1916820160405262000f509190810190620028b6565b8152600060209182018190526001600160a01b03808c168252600483526040808320805460018181018355918552938590208651600a9095020180549484166001600160a01b03199586161781558686015191810180549285169286169290921790915590850151600282018054919093169316929092179055606083015180519394508493919262000fec92600385019290910190620026e0565b506080820151600482015560a0820151600582015560c0820151600682015560e0820151805162001028916007840191602090910190620026e0565b50610100820151805162001047916008840191602090910190620026e0565b5061012091909101516009909101805460ff1916911515919091179055604080516001600160a01b038a1681526020810188905290810183905233907f6151c163211906bdcda6d2cb6a94e3e72a0e27a2aa375e98948ef68932fd68b19060600160405180910390a25050505050505050565b60003384604051620010cc906200276f565b620010d992919062002a52565b604051809103906000f080158015620010f6573d6000803e3d6000fd5b50604080516080810182523381526001600160a01b0383811660208084018281528486018a8152606086018a905260028054600180820183557f405787fa12a823e0f2b7631cc41b3ba8828b3321ca811111fa75cd3aa3bb5ace90910180546001600160a01b0319908116881790915560009687526003865298909520875181548a16908816178155925194830180549098169490951693909317909555905180519596509294859493620011b0938501920190620026e0565b5060608201518051620011ce916003840191602090910190620026e0565b50506040516001600160a01b03841681523391507f2efa09049c9bce6562810e1900f632df942876ba4b806d89b6252f319ca532b69060200160405180910390a25050505050565b6000546001600160a01b03163314620012725760405162461bcd60e51b815260206004820181905260248201527f4f776e61626c653a2063616c6c6572206973206e6f7420746865206f776e657260448201526064016200011a565b6200127e600062002314565b565b60006200128e838362002364565b6001600160a01b03831660009081526004602052604081208054929350909183908110620012cc57634e487b7160e01b600052603260045260246000fd5b90600052602060002090600a0201905083816006015414620013315760405162461bcd60e51b815260206004820152601e60248201527f4d61726b657420546f6b656e20496420646f6573206e6f7420666f756e64000060448201526064016200011a565b80546001600160a01b031615620013845760405162461bcd60e51b8152602060048201526016602482015275151bdad95b881a5cc8185b1c9958591e481bdddb995960521b60448201526064016200011a565b60018101546004808301546005840154604051627eeac760e11b81526001600160a01b0394851693810184905260248101919091529192909186916000919083169062fdd58e9060440160206040518083038186803b158015620013e757600080fd5b505afa158015620013fc573d6000803e3d6000fd5b505050506040513d601f19601f82011682018060405250810190620014229190620029d9565b11620014815760405162461bcd60e51b815260206004820152602760248201527f43757272656e74206f776e657220646f6573206e6f742068617665206d6f726560448201526620746f6b656e7360c81b60648201526084016200011a565b813414620014d25760405162461bcd60e51b815260206004820152601e60248201527f4e465420746f6b656e207072696365206973206e6f7420636f7272656374000060448201526064016200011a565b83546001600160a01b03191633908117855560098501805460ff191660019081179091556005860154604051637f4c824d60e11b81526001600160a01b0387811660048301526024820194909452604481019190915260648101919091529082169063fe99049a90608401600060405180830381600087803b1580156200155857600080fd5b505af11580156200156d573d6000803e3d6000fd5b50505050600184015460048501546040516000926001600160a01b031691908381818185875af1925050503d8060008114620015c6576040519150601f19603f3d011682016040523d82523d6000602084013e620015cb565b606091505b50509050806200161e5760405162461bcd60e51b815260206004820152601960248201527f4e4654207072696365207472616e73666572206661696c65640000000000000060448201526064016200011a565b6005850154604080516001600160a01b038716815233602082015280820192909252517fec61728879a33aa50b55e1f4789dcfc1c680f30a24d7b8694a9f874e242a97b49181900360600190a15050505050505050565b6001600160a01b0381166000908152600460209081526040808320805482518185028101850190935280835260609492939192909184015b82821015620019125760008481526020908190206040805161014081018252600a860290920180546001600160a01b0390811684526001820154811694840194909452600281015490931690820152600382018054919291606084019190620017169062002cf1565b80601f0160208091040260200160405190810160405280929190818152602001828054620017449062002cf1565b8015620017955780601f10620017695761010080835404028352916020019162001795565b820191906000526020600020905b8154815290600101906020018083116200177757829003601f168201915b50505050508152602001600482015481526020016005820154815260200160068201548152602001600782018054620017ce9062002cf1565b80601f0160208091040260200160405190810160405280929190818152602001828054620017fc9062002cf1565b80156200184d5780601f1062001821576101008083540402835291602001916200184d565b820191906000526020600020905b8154815290600101906020018083116200182f57829003601f168201915b50505050508152602001600882018054620018689062002cf1565b80601f0160208091040260200160405190810160405280929190818152602001828054620018969062002cf1565b8015620018e75780601f10620018bb57610100808354040283529160200191620018e7565b820191906000526020600020905b815481529060010190602001808311620018c957829003601f168201915b50505091835250506009919091015460ff1615156020918201529082526001929092019101620016ad565b505050509050919050565b60606000805b6002548110156200199f576000600282815481106200195257634e487b7160e01b600052603260045260246000fd5b60009182526020808320909101546001600160a01b0316808352600490915260409091205490915062001986908462002ca3565b9250508080620019969062002d2e565b91505062001923565b5060008167ffffffffffffffff811115620019ca57634e487b7160e01b600052604160045260246000fd5b60405190808252806020026020018201604052801562001a0757816020015b620019f362002670565b815260200190600190039081620019e95790505b5090506000805b6002548110156200060f5760006002828154811062001a3d57634e487b7160e01b600052603260045260246000fd5b60009182526020808320909101546001600160a01b031680835260048252604080842080548251818602810186019093528083529295509092909190849084015b8282101562001ce35760008481526020908190206040805161014081018252600a860290920180546001600160a01b039081168452600182015481169484019490945260028101549093169082015260038201805491929160608401919062001ae79062002cf1565b80601f016020809104026020016040519081016040528092919081815260200182805462001b159062002cf1565b801562001b665780601f1062001b3a5761010080835404028352916020019162001b66565b820191906000526020600020905b81548152906001019060200180831162001b4857829003601f168201915b5050505050815260200160048201548152602001600582015481526020016006820154815260200160078201805462001b9f9062002cf1565b80601f016020809104026020016040519081016040528092919081815260200182805462001bcd9062002cf1565b801562001c1e5780601f1062001bf25761010080835404028352916020019162001c1e565b820191906000526020600020905b81548152906001019060200180831162001c0057829003601f168201915b5050505050815260200160088201805462001c399062002cf1565b80601f016020809104026020016040519081016040528092919081815260200182805462001c679062002cf1565b801562001cb85780601f1062001c8c5761010080835404028352916020019162001cb8565b820191906000526020600020905b81548152906001019060200180831162001c9a57829003601f168201915b50505091835250506009919091015460ff161515602091820152908252600192909201910162001a7e565b50505050905060005b815181101562001d715781818151811062001d1757634e487b7160e01b600052603260045260246000fd5b602002602001015186868151811062001d4057634e487b7160e01b600052603260045260246000fd5b6020026020010181905250848062001d589062002d2e565b955050808062001d689062002d2e565b91505062001cec565b505050808062001d819062002d2e565b91505062001a0e565b60606000805b60025481101562001e305760006002828154811062001dbf57634e487b7160e01b600052603260045260246000fd5b60009182526020808320909101546001600160a01b0390811680845260039092526040909220549092501633141562001e1a576001600160a01b03811660009081526004602052604090205462001e17908462002ca3565b92505b508062001e278162002d2e565b91505062001d90565b5060008167ffffffffffffffff81111562001e5b57634e487b7160e01b600052604160045260246000fd5b60405190808252806020026020018201604052801562001e9857816020015b62001e8462002670565b81526020019060019003908162001e7a5790505b5090506000805b6002548110156200060f5760006002828154811062001ece57634e487b7160e01b600052603260045260246000fd5b60009182526020808320909101546001600160a01b039081168084526003909252604090922054909250163314156200222d576001600160a01b038116600090815260046020908152604080832080548251818502810185019093528083529192909190849084015b828210156200219c5760008481526020908190206040805161014081018252600a860290920180546001600160a01b039081168452600182015481169484019490945260028101549093169082015260038201805491929160608401919062001fa09062002cf1565b80601f016020809104026020016040519081016040528092919081815260200182805462001fce9062002cf1565b80156200201f5780601f1062001ff3576101008083540402835291602001916200201f565b820191906000526020600020905b8154815290600101906020018083116200200157829003601f168201915b50505050508152602001600482015481526020016005820154815260200160068201548152602001600782018054620020589062002cf1565b80601f0160208091040260200160405190810160405280929190818152602001828054620020869062002cf1565b8015620020d75780601f10620020ab57610100808354040283529160200191620020d7565b820191906000526020600020905b815481529060010190602001808311620020b957829003601f168201915b50505050508152602001600882018054620020f29062002cf1565b80601f0160208091040260200160405190810160405280929190818152602001828054620021209062002cf1565b8015620021715780601f10620021455761010080835404028352916020019162002171565b820191906000526020600020905b8154815290600101906020018083116200215357829003601f168201915b50505091835250506009919091015460ff161515602091820152908252600192909201910162001f37565b50505050905060005b81518110156200222a57818181518110620021d057634e487b7160e01b600052603260045260246000fd5b6020026020010151868681518110620021f957634e487b7160e01b600052603260045260246000fd5b60200260200101819052508480620022119062002d2e565b9550508080620022219062002d2e565b915050620021a5565b50505b50806200223a8162002d2e565b91505062001e9f565b6000546001600160a01b031633146200229f5760405162461bcd60e51b815260206004820181905260248201527f4f776e61626c653a2063616c6c6572206973206e6f7420746865206f776e657260448201526064016200011a565b6001600160a01b038116620023065760405162461bcd60e51b815260206004820152602660248201527f4f776e61626c653a206e6577206f776e657220697320746865207a65726f206160448201526564647265737360d01b60648201526084016200011a565b620023118162002314565b50565b600080546001600160a01b038381166001600160a01b0319831681178455604051919092169283917f8be0079c531659141344cd1fd0a4f28419497f9722a3daafe3b4186f6b6457e09190a35050565b6001600160a01b038116600090815260046020908152604080832080548251818502810185019093528083528493849084015b82821015620025fc5760008481526020908190206040805161014081018252600a860290920180546001600160a01b0390811684526001820154811694840194909452600281015490931690820152600382018054919291606084019190620024009062002cf1565b80601f01602080910402602001604051908101604052809291908181526020018280546200242e9062002cf1565b80156200247f5780601f1062002453576101008083540402835291602001916200247f565b820191906000526020600020905b8154815290600101906020018083116200246157829003601f168201915b50505050508152602001600482015481526020016005820154815260200160068201548152602001600782018054620024b89062002cf1565b80601f0160208091040260200160405190810160405280929190818152602001828054620024e69062002cf1565b8015620025375780601f106200250b5761010080835404028352916020019162002537565b820191906000526020600020905b8154815290600101906020018083116200251957829003601f168201915b50505050508152602001600882018054620025529062002cf1565b80601f0160208091040260200160405190810160405280929190818152602001828054620025809062002cf1565b8015620025d15780601f10620025a557610100808354040283529160200191620025d1565b820191906000526020600020905b815481529060010190602001808311620025b357829003601f168201915b50505091835250506009919091015460ff161515602091820152908252600192909201910162002397565b50505050905060005b81518110156200266357848282815181106200263157634e487b7160e01b600052603260045260246000fd5b602002602001015160c0015114156200264e5791506200266a9050565b806200265a8162002d2e565b91505062002605565b5060009150505b92915050565b60405180610140016040528060006001600160a01b0316815260200160006001600160a01b0316815260200160006001600160a01b031681526020016060815260200160008152602001600081526020016000815260200160608152602001606081526020016000151581525090565b828054620026ee9062002cf1565b90600052602060002090601f0160209004810192826200271257600085556200275d565b82601f106200272d57805160ff19168380011785556200275d565b828001600101855582156200275d579182015b828111156200275d57825182559160200191906001019062002740565b506200276b9291506200277d565b5090565b61226e8062002d8f83390190565b5b808211156200276b57600081556001016200277e565b600082601f830112620027a5578081fd5b8135620027bc620027b68262002c78565b62002c44565b818152846020838601011115620027d1578283fd5b816020850160208301379081016020019190915292915050565b600060208284031215620027fd578081fd5b81356200280a8162002d78565b9392505050565b60006020828403121562002823578081fd5b81516200280a8162002d78565b6000806000806080858703121562002846578283fd5b8435620028538162002d78565b9350602085013567ffffffffffffffff8111156200286f578384fd5b6200287d8782880162002794565b949794965050505060408301359260600135919050565b600060208284031215620028a6578081fd5b815180151581146200280a578182fd5b600060208284031215620028c8578081fd5b815167ffffffffffffffff811115620028df578182fd5b8201601f81018413620028f0578182fd5b805162002901620027b68262002c78565b81815285602083850101111562002916578384fd5b6200292982602083016020860162002cbe565b95945050505050565b60008060006060848603121562002947578283fd5b833567ffffffffffffffff808211156200295f578485fd5b6200296d8783880162002794565b9450602086013591508082111562002983578384fd5b620029918783880162002794565b93506040860135915080821115620029a7578283fd5b50620029b68682870162002794565b9150509250925092565b600060208284031215620029d2578081fd5b5035919050565b600060208284031215620029eb578081fd5b5051919050565b6000806040838503121562002a05578182fd5b82359150602083013562002a198162002d78565b809150509250929050565b6000815180845262002a3e81602086016020860162002cbe565b601f01601f19169290920160200192915050565b6001600160a01b038316815260406020820181905260009062002a789083018462002a24565b949350505050565b60006020808301818452808551808352604092508286019150828160051b870101848801865b8381101562002b9557888303603f19018552815180516001600160a01b03168452610140818901516001600160a01b038116868b015250818801516001600160a01b038116868a015250606080830151828288015262002b098388018262002a24565b92505050608080830151818701525060a080830151818701525060c080830151818701525060e0808301518683038288015262002b47838262002a24565b92505050610100808301518683038288015262002b65838262002a24565b9250505061012080830151925062002b808187018415159052565b50958801959350509086019060010162002aa6565b509098975050505050505050565b60006020808301818452808551808352604092508286019150828160051b870101848801865b8381101562002b9557888303603f19018552815180516001600160a01b0390811685528882015116888501528681015160808886018190529062002c108287018262002a24565b9150506060808301519250858203818701525062002c2f818362002a24565b96890196945050509086019060010162002bc9565b604051601f8201601f1916810167ffffffffffffffff8111828210171562002c705762002c7062002d62565b604052919050565b600067ffffffffffffffff82111562002c955762002c9562002d62565b50601f01601f191660200190565b6000821982111562002cb95762002cb962002d4c565b500190565b60005b8381101562002cdb57818101518382015260200162002cc1565b8381111562002ceb576000848401525b50505050565b600181811c9082168062002d0657607f821691505b6020821081141562002d2857634e487b7160e01b600052602260045260246000fd5b50919050565b600060001982141562002d455762002d4562002d4c565b5060010190565b634e487b7160e01b600052601160045260246000fd5b634e487b7160e01b600052604160045260246000fd5b6001600160a01b03811681146200231157600080fdfe60806040523480156200001157600080fd5b506040516200226e3803806200226e833981016040819052620000349162000165565b80620000408162000054565b506200004c826200006d565b5050620002b1565b805162000069906002906020840190620000bf565b5050565b600380546001600160a01b038381166001600160a01b0319831681179093556040519116919082907f0d18b5fd22306e373229b9439188228edca81207d1667f604daf6cef8aa3ee6790600090a35050565b828054620000cd906200025e565b90600052602060002090601f016020900481019282620000f157600085556200013c565b82601f106200010c57805160ff19168380011785556200013c565b828001600101855582156200013c579182015b828111156200013c5782518255916020019190600101906200011f565b506200014a9291506200014e565b5090565b5b808211156200014a57600081556001016200014f565b6000806040838503121562000178578182fd5b82516001600160a01b03811681146200018f578283fd5b602084810151919350906001600160401b0380821115620001ae578384fd5b818601915086601f830112620001c2578384fd5b815181811115620001d757620001d76200029b565b604051601f8201601f19908116603f011681019083821181831017156200020257620002026200029b565b8160405282815289868487010111156200021a578687fd5b8693505b828410156200023d57848401860151818501870152928501926200021e565b828411156200024e57868684830101525b8096505050505050509250929050565b600181811c908216806200027357607f821691505b602082108114156200029557634e487b7160e01b600052602260045260246000fd5b50919050565b634e487b7160e01b600052604160045260246000fd5b611fad80620002c16000396000f3fe608060405234801561001057600080fd5b50600436106101155760003560e01c80638a842e5e116100a2578063e985e9c511610071578063e985e9c514610260578063f242432a1461029c578063f2fde38b146102af578063f5298aca146102c2578063fe99049a146102d557600080fd5b80638a842e5e146101f95780638ad913451461021f5780638da5cb5b14610232578063a22cb4651461024d57600080fd5b80634e1273f4116100e95780634e1273f4146101985780636b20c454146101b85780636fcecc4b146101cb578063715018a6146101de578063731133e9146101e657600080fd5b8062fdd58e1461011a57806301ffc9a7146101405780630e89341c146101635780632eb2c2d614610183575b600080fd5b61012d6101283660046117f0565b6102e8565b6040519081526020015b60405180910390f35b61015361014e366004611975565b61037f565b6040519015158152602001610137565b6101766101713660046119ad565b6103d1565b6040516101379190611b7c565b6101966101913660046115fb565b610465565b005b6101ab6101a63660046118aa565b6104fc565b6040516101379190611b3b565b6101966101c6366004611745565b61065e565b6101966101d93660046119c5565b6106a6565b6101966107d2565b6101966101f436600461184b565b610808565b6101536102073660046119ad565b60009081526004602052604090206002015460ff1690565b61017661022d3660046119ad565b610873565b6003546040516001600160a01b039091168152602001610137565b61019661025b3660046117b6565b610893565b61015361026e3660046115c9565b6001600160a01b03918216600090815260016020908152604080832093909416825291909152205460ff1690565b6101966102aa3660046116e2565b61096a565b6101966102bd3660046115af565b6109af565b6101966102d0366004611819565b610a4a565b6101966102e33660046116a1565b610a8d565b60006001600160a01b0383166103595760405162461bcd60e51b815260206004820152602b60248201527f455243313135353a2062616c616e636520717565727920666f7220746865207a60448201526a65726f206164647265737360a81b60648201526084015b60405180910390fd5b506000908152602081815260408083206001600160a01b03949094168352929052205490565b60006001600160e01b03198216636cdb3d1360e11b14806103b057506001600160e01b031982166303a24d0760e21b145b806103cb57506301ffc9a760e01b6001600160e01b03198316145b92915050565b6060600280546103e090611e10565b80601f016020809104026020016040519081016040528092919081815260200182805461040c90611e10565b80156104595780601f1061042e57610100808354040283529160200191610459565b820191906000526020600020905b81548152906001019060200180831161043c57829003601f168201915b50505050509050919050565b6001600160a01b0385163314806104815750610481853361026e565b6104e85760405162461bcd60e51b815260206004820152603260248201527f455243313135353a207472616e736665722063616c6c6572206973206e6f74206044820152711bdddb995c881b9bdc88185c1c1c9bdd995960721b6064820152608401610350565b6104f58585858585610aa9565b5050505050565b606081518351146105615760405162461bcd60e51b815260206004820152602960248201527f455243313135353a206163636f756e747320616e6420696473206c656e677468604482015268040dad2e6dac2e8c6d60bb1b6064820152608401610350565b6000835167ffffffffffffffff81111561058b57634e487b7160e01b600052604160045260246000fd5b6040519080825280602002602001820160405280156105b4578160200160208202803683370190505b50905060005b84518110156106565761061b8582815181106105e657634e487b7160e01b600052603260045260246000fd5b602002602001015185838151811061060e57634e487b7160e01b600052603260045260246000fd5b60200260200101516102e8565b82828151811061063b57634e487b7160e01b600052603260045260246000fd5b602090810291909101015261064f81611e78565b90506105ba565b509392505050565b6001600160a01b03831633148061067a575061067a833361026e565b6106965760405162461bcd60e51b815260040161035090611c1b565b6106a1838383610c61565b505050565b6003546001600160a01b031633146106d05760405162461bcd60e51b815260040161035090611d36565b60008281526004602052604090206002015460ff16156107325760405162461bcd60e51b815260206004820152601a60248201527f546f6b656e205479706520616c726561647920637265617465640000000000006044820152606401610350565b60408051606081018252838152602080820184815260018385018190526000878152600484529490942083518155905180519394919361077a93928501929190910190611402565b50604091820151600291909101805460ff1916911515919091179055517fb30844b47136a66c1307afd352145423a1c237692b6ba474578f06f4614b35a0906107c69084908490611db3565b60405180910390a15050565b6003546001600160a01b031633146107fc5760405162461bcd60e51b815260040161035090611d36565b6108066000610df9565b565b60008381526004602052604090206002015460ff166108615760405162461bcd60e51b8152602060048201526015602482015274546f6b656e206973206e6f74206d696e7461626c6560581b6044820152606401610350565b61086d84848484610e4b565b50505050565b60008181526004602052604090206001018054606091906103e090611e10565b336001600160a01b03831614156108fe5760405162461bcd60e51b815260206004820152602960248201527f455243313135353a2073657474696e6720617070726f76616c20737461747573604482015268103337b91039b2b63360b91b6064820152608401610350565b3360008181526001602090815260408083206001600160a01b03871680855290835292819020805460ff191686151590811790915590519081529192917f17307eab39ab6107e8899845ad3d59bd9653f200f220920489ca2b5937696c31910160405180910390a35050565b6001600160a01b0385163314806109865750610986853361026e565b6109a25760405162461bcd60e51b815260040161035090611c1b565b6104f58585858585610f55565b6003546001600160a01b031633146109d95760405162461bcd60e51b815260040161035090611d36565b6001600160a01b038116610a3e5760405162461bcd60e51b815260206004820152602660248201527f4f776e61626c653a206e6577206f776e657220697320746865207a65726f206160448201526564647265737360d01b6064820152608401610350565b610a4781610df9565b50565b6001600160a01b038316331480610a665750610a66833361026e565b610a825760405162461bcd60e51b815260040161035090611c1b565b6106a1838383611072565b61086d8484848460405180602001604052806000815250610f55565b8151835114610aca5760405162461bcd60e51b815260040161035090611d6b565b6001600160a01b038416610af05760405162461bcd60e51b815260040161035090611c64565b3360005b8451811015610bf3576000858281518110610b1f57634e487b7160e01b600052603260045260246000fd5b602002602001015190506000858381518110610b4b57634e487b7160e01b600052603260045260246000fd5b602090810291909101810151600084815280835260408082206001600160a01b038e168352909352919091205490915081811015610b9b5760405162461bcd60e51b815260040161035090611cec565b6000838152602081815260408083206001600160a01b038e8116855292528083208585039055908b16825281208054849290610bd8908490611df8565b9250508190555050505080610bec90611e78565b9050610af4565b50846001600160a01b0316866001600160a01b0316826001600160a01b03167f4a39dc06d4c0dbc64b70af90fd698a233a518aa5d07e595d983b8c0526c8f7fb8787604051610c43929190611b4e565b60405180910390a4610c59818787878787611174565b505050505050565b6001600160a01b038316610c875760405162461bcd60e51b815260040161035090611ca9565b8051825114610ca85760405162461bcd60e51b815260040161035090611d6b565b604080516020810190915260009081905233905b8351811015610d9a576000848281518110610ce757634e487b7160e01b600052603260045260246000fd5b602002602001015190506000848381518110610d1357634e487b7160e01b600052603260045260246000fd5b602090810291909101810151600084815280835260408082206001600160a01b038c168352909352919091205490915081811015610d635760405162461bcd60e51b815260040161035090611bd7565b6000928352602083815260408085206001600160a01b038b1686529091529092209103905580610d9281611e78565b915050610cbc565b5060006001600160a01b0316846001600160a01b0316826001600160a01b03167f4a39dc06d4c0dbc64b70af90fd698a233a518aa5d07e595d983b8c0526c8f7fb8686604051610deb929190611b4e565b60405180910390a450505050565b600380546001600160a01b038381166001600160a01b0319831681179093556040519116919082907f0d18b5fd22306e373229b9439188228edca81207d1667f604daf6cef8aa3ee6790600090a35050565b6001600160a01b038416610eab5760405162461bcd60e51b815260206004820152602160248201527f455243313135353a206d696e7420746f20746865207a65726f206164647265736044820152607360f81b6064820152608401610350565b33610ec581600087610ebc886112df565b6104f5886112df565b6000848152602081815260408083206001600160a01b038916845290915281208054859290610ef5908490611df8565b909155505060408051858152602081018590526001600160a01b0380881692600092918516917fc3d58168c5ae7397731d063d5bbf3d657854427343f4c083240f7aacaa2d0f62910160405180910390a46104f581600087878787611338565b6001600160a01b038416610f7b5760405162461bcd60e51b815260040161035090611c64565b33610f8b818787610ebc886112df565b6000848152602081815260408083206001600160a01b038a16845290915290205483811015610fcc5760405162461bcd60e51b815260040161035090611cec565b6000858152602081815260408083206001600160a01b038b8116855292528083208785039055908816825281208054869290611009908490611df8565b909155505060408051868152602081018690526001600160a01b03808916928a821692918616917fc3d58168c5ae7397731d063d5bbf3d657854427343f4c083240f7aacaa2d0f62910160405180910390a4611069828888888888611338565b50505050505050565b6001600160a01b0383166110985760405162461bcd60e51b815260040161035090611ca9565b336110c8818560006110a9876112df565b6110b2876112df565b5050604080516020810190915260009052505050565b6000838152602081815260408083206001600160a01b0388168452909152902054828110156111095760405162461bcd60e51b815260040161035090611bd7565b6000848152602081815260408083206001600160a01b03898116808652918452828520888703905582518981529384018890529092908616917fc3d58168c5ae7397731d063d5bbf3d657854427343f4c083240f7aacaa2d0f62910160405180910390a45050505050565b6001600160a01b0384163b15610c595760405163bc197c8160e01b81526001600160a01b0385169063bc197c81906111b89089908990889088908890600401611a98565b602060405180830381600087803b1580156111d257600080fd5b505af1925050508015611202575060408051601f3d908101601f191682019092526111ff91810190611991565b60015b6112af5761120e611ebf565b806308c379a014156112485750611223611ed7565b8061122e575061124a565b8060405162461bcd60e51b81526004016103509190611b7c565b505b60405162461bcd60e51b815260206004820152603460248201527f455243313135353a207472616e7366657220746f206e6f6e20455243313135356044820152732932b1b2b4bb32b91034b6b83632b6b2b73a32b960611b6064820152608401610350565b6001600160e01b0319811663bc197c8160e01b146110695760405162461bcd60e51b815260040161035090611b8f565b6040805160018082528183019092526060916000919060208083019080368337019050509050828160008151811061132757634e487b7160e01b600052603260045260246000fd5b602090810291909101015292915050565b6001600160a01b0384163b15610c595760405163f23a6e6160e01b81526001600160a01b0385169063f23a6e619061137c9089908990889088908890600401611af6565b602060405180830381600087803b15801561139657600080fd5b505af19250505080156113c6575060408051601f3d908101601f191682019092526113c391810190611991565b60015b6113d25761120e611ebf565b6001600160e01b0319811663f23a6e6160e01b146110695760405162461bcd60e51b815260040161035090611b8f565b82805461140e90611e10565b90600052602060002090601f0160209004810192826114305760008555611476565b82601f1061144957805160ff1916838001178555611476565b82800160010185558215611476579182015b8281111561147657825182559160200191906001019061145b565b50611482929150611486565b5090565b5b808211156114825760008155600101611487565b600067ffffffffffffffff8311156114b5576114b5611ea9565b6040516114cc601f8501601f191660200182611e4b565b8091508381528484840111156114e157600080fd5b83836020830137600060208583010152509392505050565b80356001600160a01b038116811461151057600080fd5b919050565b600082601f830112611525578081fd5b8135602061153282611dd4565b60405161153f8282611e4b565b8381528281019150858301600585901b8701840188101561155e578586fd5b855b8581101561157c57813584529284019290840190600101611560565b5090979650505050505050565b600082601f830112611599578081fd5b6115a88383356020850161149b565b9392505050565b6000602082840312156115c0578081fd5b6115a8826114f9565b600080604083850312156115db578081fd5b6115e4836114f9565b91506115f2602084016114f9565b90509250929050565b600080600080600060a08688031215611612578081fd5b61161b866114f9565b9450611629602087016114f9565b9350604086013567ffffffffffffffff80821115611645578283fd5b61165189838a01611515565b94506060880135915080821115611666578283fd5b61167289838a01611515565b93506080880135915080821115611687578283fd5b5061169488828901611589565b9150509295509295909350565b600080600080608085870312156116b6578384fd5b6116bf856114f9565b93506116cd602086016114f9565b93969395505050506040820135916060013590565b600080600080600060a086880312156116f9578081fd5b611702866114f9565b9450611710602087016114f9565b93506040860135925060608601359150608086013567ffffffffffffffff811115611739578182fd5b61169488828901611589565b600080600060608486031215611759578283fd5b611762846114f9565b9250602084013567ffffffffffffffff8082111561177e578384fd5b61178a87838801611515565b9350604086013591508082111561179f578283fd5b506117ac86828701611515565b9150509250925092565b600080604083850312156117c8578182fd5b6117d1836114f9565b9150602083013580151581146117e5578182fd5b809150509250929050565b60008060408385031215611802578182fd5b61180b836114f9565b946020939093013593505050565b60008060006060848603121561182d578081fd5b611836846114f9565b95602085013595506040909401359392505050565b60008060008060808587031215611860578182fd5b611869856114f9565b93506020850135925060408501359150606085013567ffffffffffffffff811115611892578182fd5b61189e87828801611589565b91505092959194509250565b600080604083850312156118bc578182fd5b823567ffffffffffffffff808211156118d3578384fd5b818501915085601f8301126118e6578384fd5b813560206118f382611dd4565b6040516119008282611e4b565b8381528281019150858301600585901b870184018b101561191f578889fd5b8896505b8487101561194857611934816114f9565b835260019690960195918301918301611923565b509650508601359250508082111561195e578283fd5b5061196b85828601611515565b9150509250929050565b600060208284031215611986578081fd5b81356115a881611f61565b6000602082840312156119a2578081fd5b81516115a881611f61565b6000602082840312156119be578081fd5b5035919050565b600080604083850312156119d7578182fd5b82359150602083013567ffffffffffffffff8111156119f4578182fd5b8301601f81018513611a04578182fd5b61196b8582356020840161149b565b6000815180845260208085019450808401835b83811015611a4257815187529582019590820190600101611a26565b509495945050505050565b60008151808452815b81811015611a7257602081850181015186830182015201611a56565b81811115611a835782602083870101525b50601f01601f19169290920160200192915050565b6001600160a01b0386811682528516602082015260a060408201819052600090611ac490830186611a13565b8281036060840152611ad68186611a13565b90508281036080840152611aea8185611a4d565b98975050505050505050565b6001600160a01b03868116825285166020820152604081018490526060810183905260a060808201819052600090611b3090830184611a4d565b979650505050505050565b6020815260006115a86020830184611a13565b604081526000611b616040830185611a13565b8281036020840152611b738185611a13565b95945050505050565b6020815260006115a86020830184611a4d565b60208082526028908201527f455243313135353a204552433131353552656365697665722072656a656374656040820152676420746f6b656e7360c01b606082015260800190565b60208082526024908201527f455243313135353a206275726e20616d6f756e7420657863656564732062616c604082015263616e636560e01b606082015260800190565b60208082526029908201527f455243313135353a2063616c6c6572206973206e6f74206f776e6572206e6f7260408201526808185c1c1c9bdd995960ba1b606082015260800190565b60208082526025908201527f455243313135353a207472616e7366657220746f20746865207a65726f206164604082015264647265737360d81b606082015260800190565b60208082526023908201527f455243313135353a206275726e2066726f6d20746865207a65726f206164647260408201526265737360e81b606082015260800190565b6020808252602a908201527f455243313135353a20696e73756666696369656e742062616c616e636520666f60408201526939103a3930b739b332b960b11b606082015260800190565b6020808252818101527f4f776e61626c653a2063616c6c6572206973206e6f7420746865206f776e6572604082015260600190565b60208082526028908201527f455243313135353a2069647320616e6420616d6f756e7473206c656e677468206040820152670dad2e6dac2e8c6d60c31b606082015260800190565b828152604060208201526000611dcc6040830184611a4d565b949350505050565b600067ffffffffffffffff821115611dee57611dee611ea9565b5060051b60200190565b60008219821115611e0b57611e0b611e93565b500190565b600181811c90821680611e2457607f821691505b60208210811415611e4557634e487b7160e01b600052602260045260246000fd5b50919050565b601f8201601f1916810167ffffffffffffffff81118282101715611e7157611e71611ea9565b6040525050565b6000600019821415611e8c57611e8c611e93565b5060010190565b634e487b7160e01b600052601160045260246000fd5b634e487b7160e01b600052604160045260246000fd5b600060033d1115611ed457600481823e5160e01c5b90565b600060443d1015611ee55790565b6040516003193d81016004833e81513d67ffffffffffffffff8160248401118184111715611f1557505050505090565b8285019150815181811115611f2d5750505050505090565b843d8701016020828501011115611f475750505050505090565b611f5660208286010187611e4b565b509095945050505050565b6001600160e01b031981168114610a4757600080fdfea264697066735822122085e1699dd6566cd9e974c760d50997d1ced2a5e9049a8076fcece887f0f0542564736f6c63430008040033a26469706673582212205c969882231e220e544f527edb2a7c959cddcefde4e54684c2d878fa91a4200364736f6c63430008040033",
  "linkReferences": {},
  "deployedLinkReferences": {}
}