{
  "_format": "hh-sol-artifact-1",
  "contractName": "Marketplace",
  "sourceName": "contracts/marketplace/Marketplace.sol",
  "abi": [
    {
      "anonymous": false,
      "inputs": [
        {
          "indexed": true,
          "internalType": "address",
          "name": "_seller",
          "type": "address"
        },
        {
          "indexed": false,
          "internalType": "address",
          "name": "_contract",
          "type": "address"
        }
      ],
      "name": "MarketplaceContractAdded",
      "type": "event"
    },
    {
      "anonymous": false,
      "inputs": [
        {
          "indexed": true,
          "internalType": "address",
          "name": "_seller",
          "type": "address"
        },
        {
          "indexed": false,
          "internalType": "address",
          "name": "_contract",
          "type": "address"
        },
        {
          "indexed": false,
          "internalType": "uint256",
          "name": "_tokenId",
          "type": "uint256"
        }
      ],
      "name": "MarketplaceTokenAdded",
      "type": "event"
    },
    {
      "anonymous": false,
      "inputs": [
        {
          "indexed": true,
          "internalType": "address",
          "name": "previousOwner",
          "type": "address"
        },
        {
          "indexed": true,
          "internalType": "address",
          "name": "newOwner",
          "type": "address"
        }
      ],
      "name": "OwnershipTransferred",
      "type": "event"
    },
    {
      "anonymous": false,
      "inputs": [
        {
          "indexed": false,
          "internalType": "address",
          "name": "_currentOwner",
          "type": "address"
        },
        {
          "indexed": false,
          "internalType": "address",
          "name": "_newOwner",
          "type": "address"
        },
        {
          "indexed": false,
          "internalType": "uint256",
          "name": "_tokenId",
          "type": "uint256"
        }
      ],
      "name": "TokenTransfered",
      "type": "event"
    },
    {
      "inputs": [
        {
          "internalType": "string",
          "name": "_url",
          "type": "string"
        },
        {
          "internalType": "string",
          "name": "_name",
          "type": "string"
        },
        {
          "internalType": "string",
          "name": "_description",
          "type": "string"
        }
      ],
      "name": "addContract",
      "outputs": [],
      "stateMutability": "nonpayable",
      "type": "function"
    },
    {
      "inputs": [
        {
          "internalType": "address",
          "name": "_contract",
          "type": "address"
        },
        {
          "internalType": "string",
          "name": "_name",
          "type": "string"
        },
        {
          "internalType": "uint256",
          "name": "_tokenId",
          "type": "uint256"
        },
        {
          "internalType": "uint256",
          "name": "_price",
          "type": "uint256"
        }
      ],
      "name": "addToken",
      "outputs": [],
      "stateMutability": "nonpayable",
      "type": "function"
    },
    {
      "inputs": [
        {
          "internalType": "uint256",
          "name": "_marketTokenId",
          "type": "uint256"
        },
        {
          "internalType": "address",
          "name": "_contract",
          "type": "address"
        }
      ],
      "name": "buyToken",
      "outputs": [],
      "stateMutability": "payable",
      "type": "function"
    },
    {
      "inputs": [
        {
          "internalType": "uint256",
          "name": "",
          "type": "uint256"
        }
      ],
      "name": "contractAddresses",
      "outputs": [
        {
          "internalType": "address",
          "name": "",
          "type": "address"
        }
      ],
      "stateMutability": "view",
      "type": "function"
    },
    {
      "inputs": [
        {
          "internalType": "address",
          "name": "_contract",
          "type": "address"
        }
      ],
      "name": "getContractTokens",
      "outputs": [
        {
          "components": [
            {
              "internalType": "address",
              "name": "owner",
              "type": "address"
            },
            {
              "internalType": "address",
              "name": "seller",
              "type": "address"
            },
            {
              "internalType": "address",
              "name": "contractAddress",
              "type": "address"
            },
            {
              "internalType": "string",
              "name": "name",
              "type": "string"
            },
            {
              "internalType": "uint256",
              "name": "price",
              "type": "uint256"
            },
            {
              "internalType": "uint256",
              "name": "tokenId",
              "type": "uint256"
            },
            {
              "internalType": "uint256",
              "name": "marketTokenId",
              "type": "uint256"
            },
            {
              "internalType": "string",
              "name": "contractUri",
              "type": "string"
            },
            {
              "internalType": "string",
              "name": "tokenUri",
              "type": "string"
            },
            {
              "internalType": "bool",
              "name": "sold",
              "type": "bool"
            }
          ],
          "internalType": "struct Marketplace.MarketplaceItemToken[]",
          "name": "",
          "type": "tuple[]"
        }
      ],
      "stateMutability": "view",
      "type": "function"
    },
    {
      "inputs": [],
      "name": "getNotSenderTokens",
      "outputs": [
        {
          "components": [
            {
              "internalType": "address",
              "name": "owner",
              "type": "address"
            },
            {
              "internalType": "address",
              "name": "seller",
              "type": "address"
            },
            {
              "internalType": "address",
              "name": "contractAddress",
              "type": "address"
            },
            {
              "internalType": "string",
              "name": "name",
              "type": "string"
            },
            {
              "internalType": "uint256",
              "name": "price",
              "type": "uint256"
            },
            {
              "internalType": "uint256",
              "name": "tokenId",
              "type": "uint256"
            },
            {
              "internalType": "uint256",
              "name": "marketTokenId",
              "type": "uint256"
            },
            {
              "internalType": "string",
              "name": "contractUri",
              "type": "string"
            },
            {
              "internalType": "string",
              "name": "tokenUri",
              "type": "string"
            },
            {
              "internalType": "bool",
              "name": "sold",
              "type": "bool"
            }
          ],
          "internalType": "struct Marketplace.MarketplaceItemToken[]",
          "name": "",
          "type": "tuple[]"
        }
      ],
      "stateMutability": "view",
      "type": "function"
    },
    {
      "inputs": [],
      "name": "getSellerContracts",
      "outputs": [
        {
          "components": [
            {
              "internalType": "address",
              "name": "owner",
              "type": "address"
            },
            {
              "internalType": "address",
              "name": "contractAddress",
              "type": "address"
            },
            {
              "internalType": "string",
              "name": "name",
              "type": "string"
            },
            {
              "internalType": "string",
              "name": "description",
              "type": "string"
            }
          ],
          "internalType": "struct Marketplace.MarketplaceItem[]",
          "name": "",
          "type": "tuple[]"
        }
      ],
      "stateMutability": "view",
      "type": "function"
    },
    {
      "inputs": [],
      "name": "getSenderTokens",
      "outputs": [
        {
          "components": [
            {
              "internalType": "address",
              "name": "owner",
              "type": "address"
            },
            {
              "internalType": "address",
              "name": "seller",
              "type": "address"
            },
            {
              "internalType": "address",
              "name": "contractAddress",
              "type": "address"
            },
            {
              "internalType": "string",
              "name": "name",
              "type": "string"
            },
            {
              "internalType": "uint256",
              "name": "price",
              "type": "uint256"
            },
            {
              "internalType": "uint256",
              "name": "tokenId",
              "type": "uint256"
            },
            {
              "internalType": "uint256",
              "name": "marketTokenId",
              "type": "uint256"
            },
            {
              "internalType": "string",
              "name": "contractUri",
              "type": "string"
            },
            {
              "internalType": "string",
              "name": "tokenUri",
              "type": "string"
            },
            {
              "internalType": "bool",
              "name": "sold",
              "type": "bool"
            }
          ],
          "internalType": "struct Marketplace.MarketplaceItemToken[]",
          "name": "",
          "type": "tuple[]"
        }
      ],
      "stateMutability": "view",
      "type": "function"
    },
    {
      "inputs": [],
      "name": "getTokens",
      "outputs": [
        {
          "components": [
            {
              "internalType": "address",
              "name": "owner",
              "type": "address"
            },
            {
              "internalType": "address",
              "name": "seller",
              "type": "address"
            },
            {
              "internalType": "address",
              "name": "contractAddress",
              "type": "address"
            },
            {
              "internalType": "string",
              "name": "name",
              "type": "string"
            },
            {
              "internalType": "uint256",
              "name": "price",
              "type": "uint256"
            },
            {
              "internalType": "uint256",
              "name": "tokenId",
              "type": "uint256"
            },
            {
              "internalType": "uint256",
              "name": "marketTokenId",
              "type": "uint256"
            },
            {
              "internalType": "string",
              "name": "contractUri",
              "type": "string"
            },
            {
              "internalType": "string",
              "name": "tokenUri",
              "type": "string"
            },
            {
              "internalType": "bool",
              "name": "sold",
              "type": "bool"
            }
          ],
          "internalType": "struct Marketplace.MarketplaceItemToken[]",
          "name": "",
          "type": "tuple[]"
        }
      ],
      "stateMutability": "view",
      "type": "function"
    },
    {
      "inputs": [],
      "name": "owner",
      "outputs": [
        {
          "internalType": "address",
          "name": "",
          "type": "address"
        }
      ],
      "stateMutability": "view",
      "type": "function"
    },
    {
      "inputs": [],
      "name": "renounceOwnership",
      "outputs": [],
      "stateMutability": "nonpayable",
      "type": "function"
    },
    {
      "inputs": [
        {
          "internalType": "address",
          "name": "newOwner",
          "type": "address"
        }
      ],
      "name": "transferOwnership",
      "outputs": [],
      "stateMutability": "nonpayable",
      "type": "function"
    },
    {
      "stateMutability": "payable",
      "type": "receive"
    }
  ],
  "bytecode": "0x608060405234801561001057600080fd5b5061001a3361001f565b61006f565b600080546001600160a01b038381166001600160a01b0319831681178455604051919092169283917f8be0079c531659141344cd1fd0a4f28419497f9722a3daafe3b4186f6b6457e09190a35050565b614f23806200007f6000396000f3fe608060405260043610620000b95760003560e01c80638da5cb5b116200006c5780638da5cb5b14620002215780639134709e14620002415780639e284bad1462000258578063aa6ca808146200027d578063ee0c04ca1462000295578063f2fde38b14620002ad57600080fd5b806306dc4c2414620001285780633263b54514620001585780635f42bf46146200019657806366617c8914620001bd5780636c2bc72d14620001e4578063715018a6146200020957600080fd5b36620001235760405162461bcd60e51b815260206004820152602e60248201527f4e6f2065746865722063616e2062652073656e74206469726563746c7920746f60448201526d081d1a1a5cc818dbdb9d1c9858dd60921b60648201526084015b60405180910390fd5b600080fd5b3480156200013557600080fd5b5062000140620002d2565b6040516200014f919062002aed565b60405180910390f35b3480156200016557600080fd5b506200017d620001773660046200290a565b62000618565b6040516001600160a01b0390911681526020016200014f565b348015620001a357600080fd5b50620001ae62000643565b6040516200014f9190620029ca565b348015620001ca57600080fd5b50620001e2620001dc3660046200277a565b62000afa565b005b348015620001f157600080fd5b50620001e2620002033660046200287c565b620010b2565b3480156200021657600080fd5b50620001e26200120e565b3480156200022e57600080fd5b506000546001600160a01b03166200017d565b620001e2620002523660046200293c565b62001278565b3480156200026557600080fd5b50620001ae6200027736600462002735565b620015bf565b3480156200028a57600080fd5b50620001ae62001867565b348015620002a257600080fd5b50620001ae62001cd4565b348015620002ba57600080fd5b50620001e2620002cc36600462002735565b6200218d565b60606000805b60025481101562000360576000600282815481106200030757634e487b7160e01b600052603260045260246000fd5b60009182526020808320909101546001600160a01b039081168084526003909252604090922054909250163314156200034a5782620003468162002c78565b9350505b5080620003578162002c78565b915050620002d8565b5060008167ffffffffffffffff8111156200038b57634e487b7160e01b600052604160045260246000fd5b604051908082528060200260200182016040528015620003e157816020015b6040805160808101825260008082526020820152606091810182905281810191909152815260200190600190039081620003aa5790505b5090506000805b6002548110156200060f576000600282815481106200041757634e487b7160e01b600052603260045260246000fd5b60009182526020808320909101546001600160a01b03908116808452600390925260409092205490925016331415620005f9576001600160a01b03808216600090815260036020908152604091829020825160808101845281548516815260018201549094169184019190915260028101805491928401916200049a9062002c3b565b80601f0160208091040260200160405190810160405280929190818152602001828054620004c89062002c3b565b8015620005195780601f10620004ed5761010080835404028352916020019162000519565b820191906000526020600020905b815481529060010190602001808311620004fb57829003601f168201915b50505050508152602001600382018054620005349062002c3b565b80601f0160208091040260200160405190810160405280929190818152602001828054620005629062002c3b565b8015620005b35780601f106200058757610100808354040283529160200191620005b3565b820191906000526020600020905b8154815290600101906020018083116200059557829003601f168201915b505050505081525050848481518110620005dd57634e487b7160e01b600052603260045260246000fd5b60200260200101819052508280620005f59062002c78565b9350505b5080620006068162002c78565b915050620003e8565b50909392505050565b600281815481106200062957600080fd5b6000918252602090912001546001600160a01b0316905081565b60606000805b600254811015620006e8576000600282815481106200067857634e487b7160e01b600052603260045260246000fd5b60009182526020808320909101546001600160a01b039081168084526003909252604090922054909250163314620006d2576001600160a01b038116600090815260046020526040902054620006cf908462002bed565b92505b5080620006df8162002c78565b91505062000649565b5060008167ffffffffffffffff8111156200071357634e487b7160e01b600052604160045260246000fd5b6040519080825280602002602001820160405280156200075057816020015b6200073c620025ba565b815260200190600190039081620007325790505b5090506000805b6002548110156200060f576000600282815481106200078657634e487b7160e01b600052603260045260246000fd5b60009182526020808320909101546001600160a01b03908116808452600390925260409092205490925016331462000ae4576001600160a01b038116600090815260046020908152604080832080548251818502810185019093528083529192909190849084015b8282101562000a535760008481526020908190206040805161014081018252600a860290920180546001600160a01b0390811684526001820154811694840194909452600281015490931690820152600382018054919291606084019190620008579062002c3b565b80601f0160208091040260200160405190810160405280929190818152602001828054620008859062002c3b565b8015620008d65780601f10620008aa57610100808354040283529160200191620008d6565b820191906000526020600020905b815481529060010190602001808311620008b857829003601f168201915b505050505081526020016004820154815260200160058201548152602001600682015481526020016007820180546200090f9062002c3b565b80601f01602080910402602001604051908101604052809291908181526020018280546200093d9062002c3b565b80156200098e5780601f1062000962576101008083540402835291602001916200098e565b820191906000526020600020905b8154815290600101906020018083116200097057829003601f168201915b50505050508152602001600882018054620009a99062002c3b565b80601f0160208091040260200160405190810160405280929190818152602001828054620009d79062002c3b565b801562000a285780601f10620009fc5761010080835404028352916020019162000a28565b820191906000526020600020905b81548152906001019060200180831162000a0a57829003601f168201915b50505091835250506009919091015460ff1615156020918201529082526001929092019101620007ee565b50505050905060005b815181101562000ae15781818151811062000a8757634e487b7160e01b600052603260045260246000fd5b602002602001015186868151811062000ab057634e487b7160e01b600052603260045260246000fd5b6020026020010181905250848062000ac89062002c78565b955050808062000ad89062002c78565b91505062000a5c565b50505b508062000af18162002c78565b91505062000757565b83336001600160a01b0316816001600160a01b0316638da5cb5b6040518163ffffffff1660e01b815260040160206040518083038186803b15801562000b3f57600080fd5b505afa15801562000b54573d6000803e3d6000fd5b505050506040513d601f19601f8201168201806040525081019062000b7a91906200275b565b6001600160a01b03161462000bd25760405162461bcd60e51b815260206004820152601960248201527f4f6e6c79204e4654206f776e657220697320616c6c6f7765640000000000000060448201526064016200011a565b848262000c225760405162461bcd60e51b815260206004820152601c60248201527f5072696365206d7573742062652067726561746572207468616e20300000000060448201526064016200011a565b6001600160a01b038681166000908152600360205260409020541662000c8b5760405162461bcd60e51b815260206004820152601760248201527f436f6e747261637420646f6573206e6f7420657869737400000000000000000060448201526064016200011a565b604051634542172f60e11b8152600481018590526001600160a01b03821690638a842e5e9060240160206040518083038186803b15801562000ccc57600080fd5b505afa15801562000ce1573d6000803e3d6000fd5b505050506040513d601f19601f8201168201806040525081019062000d079190620027de565b62000d555760405162461bcd60e51b815260206004820152601860248201527f546f6b656e204964206973206e6f74204d696e7461626c65000000000000000060448201526064016200011a565b60405163731133e960e01b8152336004820152602481018590526001604482015260806064820152600060848201526001600160a01b0382169063731133e99060a401600060405180830381600087803b15801562000db357600080fd5b505af115801562000dc8573d6000803e3d6000fd5b5050505062000ddb600180546001019055565b600062000de760015490565b9050600060405180610140016040528060006001600160a01b03168152602001336001600160a01b03168152602001896001600160a01b03168152602001888152602001868152602001878152602001838152602001846001600160a01b0316630e89341c896040518263ffffffff1660e01b815260040162000e6c91815260200190565b60006040518083038186803b15801562000e8557600080fd5b505afa15801562000e9a573d6000803e3d6000fd5b505050506040513d6000823e601f3d908101601f1916820160405262000ec4919081019062002800565b8152602001846001600160a01b0316638ad91345896040518263ffffffff1660e01b815260040162000ef891815260200190565b60006040518083038186803b15801562000f1157600080fd5b505afa15801562000f26573d6000803e3d6000fd5b505050506040513d6000823e601f3d908101601f1916820160405262000f50919081019062002800565b8152600060209182018190526001600160a01b03808c168252600483526040808320805460018181018355918552938590208651600a9095020180549484166001600160a01b03199586161781558686015191810180549285169286169290921790915590850151600282018054919093169316929092179055606083015180519394508493919262000fec926003850192909101906200262a565b506080820151600482015560a0820151600582015560c0820151600682015560e08201518051620010289160078401916020909101906200262a565b506101008201518051620010479160088401916020909101906200262a565b5061012091909101516009909101805460ff1916911515919091179055604080516001600160a01b038a1681526020810188905233917fac6a284f02bdf54e6440ee95691387eaff912759abffe94ca10a5445b06e75e4910160405180910390a25050505050505050565b60003384604051620010c490620026b9565b620010d19291906200299c565b604051809103906000f080158015620010ee573d6000803e3d6000fd5b50604080516080810182523381526001600160a01b0383811660208084018281528486018a8152606086018a905260028054600180820183557f405787fa12a823e0f2b7631cc41b3ba8828b3321ca811111fa75cd3aa3bb5ace90910180546001600160a01b0319908116881790915560009687526003865298909520875181548a16908816178155925194830180549098169490951693909317909555905180519596509294859493620011a89385019201906200262a565b5060608201518051620011c69160038401916020909101906200262a565b50506040516001600160a01b03841681523391507f2efa09049c9bce6562810e1900f632df942876ba4b806d89b6252f319ca532b69060200160405180910390a25050505050565b6000546001600160a01b031633146200126a5760405162461bcd60e51b815260206004820181905260248201527f4f776e61626c653a2063616c6c6572206973206e6f7420746865206f776e657260448201526064016200011a565b6200127660006200225e565b565b6000620012868383620022ae565b6001600160a01b03831660009081526004602052604081208054929350909183908110620012c457634e487b7160e01b600052603260045260246000fd5b90600052602060002090600a0201905083816006015414620013295760405162461bcd60e51b815260206004820152601e60248201527f4d61726b657420546f6b656e20496420646f6573206e6f7420666f756e64000060448201526064016200011a565b80546001600160a01b0316156200137c5760405162461bcd60e51b8152602060048201526016602482015275151bdad95b881a5cc8185b1c9958591e481bdddb995960521b60448201526064016200011a565b60018101546004808301546005840154604051627eeac760e11b81526001600160a01b0394851693810184905260248101919091529192909186916000919083169062fdd58e9060440160206040518083038186803b158015620013df57600080fd5b505afa158015620013f4573d6000803e3d6000fd5b505050506040513d601f19601f820116820180604052508101906200141a919062002923565b11620014795760405162461bcd60e51b815260206004820152602760248201527f43757272656e74206f776e657220646f6573206e6f742068617665206d6f726560448201526620746f6b656e7360c81b60648201526084016200011a565b813414620014ca5760405162461bcd60e51b815260206004820152601e60248201527f4e465420746f6b656e207072696365206973206e6f7420636f7272656374000060448201526064016200011a565b83546001600160a01b03191633908117855560098501805460ff191660019081179091556005860154604051637f4c824d60e11b81526001600160a01b0387811660048301526024820194909452604481019190915260648101919091529082169063fe99049a90608401600060405180830381600087803b1580156200155057600080fd5b505af115801562001565573d6000803e3d6000fd5b505050506005840154604080516001600160a01b038616815233602082015280820192909252517fec61728879a33aa50b55e1f4789dcfc1c680f30a24d7b8694a9f874e242a97b49181900360600190a150505050505050565b6001600160a01b0381166000908152600460209081526040808320805482518185028101850190935280835260609492939192909184015b828210156200185c5760008481526020908190206040805161014081018252600a860290920180546001600160a01b0390811684526001820154811694840194909452600281015490931690820152600382018054919291606084019190620016609062002c3b565b80601f01602080910402602001604051908101604052809291908181526020018280546200168e9062002c3b565b8015620016df5780601f10620016b357610100808354040283529160200191620016df565b820191906000526020600020905b815481529060010190602001808311620016c157829003601f168201915b50505050508152602001600482015481526020016005820154815260200160068201548152602001600782018054620017189062002c3b565b80601f0160208091040260200160405190810160405280929190818152602001828054620017469062002c3b565b8015620017975780601f106200176b5761010080835404028352916020019162001797565b820191906000526020600020905b8154815290600101906020018083116200177957829003601f168201915b50505050508152602001600882018054620017b29062002c3b565b80601f0160208091040260200160405190810160405280929190818152602001828054620017e09062002c3b565b8015620018315780601f10620018055761010080835404028352916020019162001831565b820191906000526020600020905b8154815290600101906020018083116200181357829003601f168201915b50505091835250506009919091015460ff1615156020918201529082526001929092019101620015f7565b505050509050919050565b60606000805b600254811015620018e9576000600282815481106200189c57634e487b7160e01b600052603260045260246000fd5b60009182526020808320909101546001600160a01b03168083526004909152604090912054909150620018d0908462002bed565b9250508080620018e09062002c78565b9150506200186d565b5060008167ffffffffffffffff8111156200191457634e487b7160e01b600052604160045260246000fd5b6040519080825280602002602001820160405280156200195157816020015b6200193d620025ba565b815260200190600190039081620019335790505b5090506000805b6002548110156200060f576000600282815481106200198757634e487b7160e01b600052603260045260246000fd5b60009182526020808320909101546001600160a01b031680835260048252604080842080548251818602810186019093528083529295509092909190849084015b8282101562001c2d5760008481526020908190206040805161014081018252600a860290920180546001600160a01b039081168452600182015481169484019490945260028101549093169082015260038201805491929160608401919062001a319062002c3b565b80601f016020809104026020016040519081016040528092919081815260200182805462001a5f9062002c3b565b801562001ab05780601f1062001a845761010080835404028352916020019162001ab0565b820191906000526020600020905b81548152906001019060200180831162001a9257829003601f168201915b5050505050815260200160048201548152602001600582015481526020016006820154815260200160078201805462001ae99062002c3b565b80601f016020809104026020016040519081016040528092919081815260200182805462001b179062002c3b565b801562001b685780601f1062001b3c5761010080835404028352916020019162001b68565b820191906000526020600020905b81548152906001019060200180831162001b4a57829003601f168201915b5050505050815260200160088201805462001b839062002c3b565b80601f016020809104026020016040519081016040528092919081815260200182805462001bb19062002c3b565b801562001c025780601f1062001bd65761010080835404028352916020019162001c02565b820191906000526020600020905b81548152906001019060200180831162001be457829003601f168201915b50505091835250506009919091015460ff1615156020918201529082526001929092019101620019c8565b50505050905060005b815181101562001cbb5781818151811062001c6157634e487b7160e01b600052603260045260246000fd5b602002602001015186868151811062001c8a57634e487b7160e01b600052603260045260246000fd5b6020026020010181905250848062001ca29062002c78565b955050808062001cb29062002c78565b91505062001c36565b505050808062001ccb9062002c78565b91505062001958565b60606000805b60025481101562001d7a5760006002828154811062001d0957634e487b7160e01b600052603260045260246000fd5b60009182526020808320909101546001600160a01b0390811680845260039092526040909220549092501633141562001d64576001600160a01b03811660009081526004602052604090205462001d61908462002bed565b92505b508062001d718162002c78565b91505062001cda565b5060008167ffffffffffffffff81111562001da557634e487b7160e01b600052604160045260246000fd5b60405190808252806020026020018201604052801562001de257816020015b62001dce620025ba565b81526020019060019003908162001dc45790505b5090506000805b6002548110156200060f5760006002828154811062001e1857634e487b7160e01b600052603260045260246000fd5b60009182526020808320909101546001600160a01b0390811680845260039092526040909220549092501633141562002177576001600160a01b038116600090815260046020908152604080832080548251818502810185019093528083529192909190849084015b82821015620020e65760008481526020908190206040805161014081018252600a860290920180546001600160a01b039081168452600182015481169484019490945260028101549093169082015260038201805491929160608401919062001eea9062002c3b565b80601f016020809104026020016040519081016040528092919081815260200182805462001f189062002c3b565b801562001f695780601f1062001f3d5761010080835404028352916020019162001f69565b820191906000526020600020905b81548152906001019060200180831162001f4b57829003601f168201915b5050505050815260200160048201548152602001600582015481526020016006820154815260200160078201805462001fa29062002c3b565b80601f016020809104026020016040519081016040528092919081815260200182805462001fd09062002c3b565b8015620020215780601f1062001ff55761010080835404028352916020019162002021565b820191906000526020600020905b8154815290600101906020018083116200200357829003601f168201915b505050505081526020016008820180546200203c9062002c3b565b80601f01602080910402602001604051908101604052809291908181526020018280546200206a9062002c3b565b8015620020bb5780601f106200208f57610100808354040283529160200191620020bb565b820191906000526020600020905b8154815290600101906020018083116200209d57829003601f168201915b50505091835250506009919091015460ff161515602091820152908252600192909201910162001e81565b50505050905060005b815181101562002174578181815181106200211a57634e487b7160e01b600052603260045260246000fd5b60200260200101518686815181106200214357634e487b7160e01b600052603260045260246000fd5b602002602001018190525084806200215b9062002c78565b95505080806200216b9062002c78565b915050620020ef565b50505b5080620021848162002c78565b91505062001de9565b6000546001600160a01b03163314620021e95760405162461bcd60e51b815260206004820181905260248201527f4f776e61626c653a2063616c6c6572206973206e6f7420746865206f776e657260448201526064016200011a565b6001600160a01b038116620022505760405162461bcd60e51b815260206004820152602660248201527f4f776e61626c653a206e6577206f776e657220697320746865207a65726f206160448201526564647265737360d01b60648201526084016200011a565b6200225b816200225e565b50565b600080546001600160a01b038381166001600160a01b0319831681178455604051919092169283917f8be0079c531659141344cd1fd0a4f28419497f9722a3daafe3b4186f6b6457e09190a35050565b6001600160a01b038116600090815260046020908152604080832080548251818502810185019093528083528493849084015b82821015620025465760008481526020908190206040805161014081018252600a860290920180546001600160a01b03908116845260018201548116948401949094526002810154909316908201526003820180549192916060840191906200234a9062002c3b565b80601f0160208091040260200160405190810160405280929190818152602001828054620023789062002c3b565b8015620023c95780601f106200239d57610100808354040283529160200191620023c9565b820191906000526020600020905b815481529060010190602001808311620023ab57829003601f168201915b50505050508152602001600482015481526020016005820154815260200160068201548152602001600782018054620024029062002c3b565b80601f0160208091040260200160405190810160405280929190818152602001828054620024309062002c3b565b8015620024815780601f10620024555761010080835404028352916020019162002481565b820191906000526020600020905b8154815290600101906020018083116200246357829003601f168201915b505050505081526020016008820180546200249c9062002c3b565b80601f0160208091040260200160405190810160405280929190818152602001828054620024ca9062002c3b565b80156200251b5780601f10620024ef576101008083540402835291602001916200251b565b820191906000526020600020905b815481529060010190602001808311620024fd57829003601f168201915b50505091835250506009919091015460ff1615156020918201529082526001929092019101620022e1565b50505050905060005b8151811015620025ad57848282815181106200257b57634e487b7160e01b600052603260045260246000fd5b602002602001015160c00151141562002598579150620025b49050565b80620025a48162002c78565b9150506200254f565b5060009150505b92915050565b60405180610140016040528060006001600160a01b0316815260200160006001600160a01b0316815260200160006001600160a01b031681526020016060815260200160008152602001600081526020016000815260200160608152602001606081526020016000151581525090565b828054620026389062002c3b565b90600052602060002090601f0160209004810192826200265c5760008555620026a7565b82601f106200267757805160ff1916838001178555620026a7565b82800160010185558215620026a7579182015b82811115620026a75782518255916020019190600101906200268a565b50620026b5929150620026c7565b5090565b6122158062002cd983390190565b5b80821115620026b55760008155600101620026c8565b600082601f830112620026ef578081fd5b813562002706620027008262002bc2565b62002b8e565b8181528460208386010111156200271b578283fd5b816020850160208301379081016020019190915292915050565b60006020828403121562002747578081fd5b8135620027548162002cc2565b9392505050565b6000602082840312156200276d578081fd5b8151620027548162002cc2565b6000806000806080858703121562002790578283fd5b84356200279d8162002cc2565b9350602085013567ffffffffffffffff811115620027b9578384fd5b620027c787828801620026de565b949794965050505060408301359260600135919050565b600060208284031215620027f0578081fd5b8151801515811462002754578182fd5b60006020828403121562002812578081fd5b815167ffffffffffffffff81111562002829578182fd5b8201601f810184136200283a578182fd5b80516200284b620027008262002bc2565b81815285602083850101111562002860578384fd5b6200287382602083016020860162002c08565b95945050505050565b60008060006060848603121562002891578283fd5b833567ffffffffffffffff80821115620028a9578485fd5b620028b787838801620026de565b94506020860135915080821115620028cd578384fd5b620028db87838801620026de565b93506040860135915080821115620028f1578283fd5b506200290086828701620026de565b9150509250925092565b6000602082840312156200291c578081fd5b5035919050565b60006020828403121562002935578081fd5b5051919050565b600080604083850312156200294f578182fd5b823591506020830135620029638162002cc2565b809150509250929050565b600081518084526200298881602086016020860162002c08565b601f01601f19169290920160200192915050565b6001600160a01b0383168152604060208201819052600090620029c2908301846200296e565b949350505050565b60006020808301818452808551808352604092508286019150828160051b870101848801865b8381101562002adf57888303603f19018552815180516001600160a01b03168452610140818901516001600160a01b038116868b015250818801516001600160a01b038116868a015250606080830151828288015262002a53838801826200296e565b92505050608080830151818701525060a080830151818701525060c080830151818701525060e0808301518683038288015262002a9183826200296e565b92505050610100808301518683038288015262002aaf83826200296e565b9250505061012080830151925062002aca8187018415159052565b509588019593505090860190600101620029f0565b509098975050505050505050565b60006020808301818452808551808352604092508286019150828160051b870101848801865b8381101562002adf57888303603f19018552815180516001600160a01b0390811685528882015116888501528681015160808886018190529062002b5a828701826200296e565b9150506060808301519250858203818701525062002b7981836200296e565b96890196945050509086019060010162002b13565b604051601f8201601f1916810167ffffffffffffffff8111828210171562002bba5762002bba62002cac565b604052919050565b600067ffffffffffffffff82111562002bdf5762002bdf62002cac565b50601f01601f191660200190565b6000821982111562002c035762002c0362002c96565b500190565b60005b8381101562002c2557818101518382015260200162002c0b565b8381111562002c35576000848401525b50505050565b600181811c9082168062002c5057607f821691505b6020821081141562002c7257634e487b7160e01b600052602260045260246000fd5b50919050565b600060001982141562002c8f5762002c8f62002c96565b5060010190565b634e487b7160e01b600052601160045260246000fd5b634e487b7160e01b600052604160045260246000fd5b6001600160a01b03811681146200225b57600080fdfe60806040523480156200001157600080fd5b506040516200221538038062002215833981016040819052620000349162000165565b80620000408162000054565b506200004c826200006d565b5050620002b1565b805162000069906002906020840190620000bf565b5050565b600380546001600160a01b038381166001600160a01b0319831681179093556040519116919082907f0d18b5fd22306e373229b9439188228edca81207d1667f604daf6cef8aa3ee6790600090a35050565b828054620000cd906200025e565b90600052602060002090601f016020900481019282620000f157600085556200013c565b82601f106200010c57805160ff19168380011785556200013c565b828001600101855582156200013c579182015b828111156200013c5782518255916020019190600101906200011f565b506200014a9291506200014e565b5090565b5b808211156200014a57600081556001016200014f565b6000806040838503121562000178578182fd5b82516001600160a01b03811681146200018f578283fd5b602084810151919350906001600160401b0380821115620001ae578384fd5b818601915086601f830112620001c2578384fd5b815181811115620001d757620001d76200029b565b604051601f8201601f19908116603f011681019083821181831017156200020257620002026200029b565b8160405282815289868487010111156200021a578687fd5b8693505b828410156200023d57848401860151818501870152928501926200021e565b828411156200024e57868684830101525b8096505050505050509250929050565b600181811c908216806200027357607f821691505b602082108114156200029557634e487b7160e01b600052602260045260246000fd5b50919050565b634e487b7160e01b600052604160045260246000fd5b611f5480620002c16000396000f3fe608060405234801561001057600080fd5b50600436106101155760003560e01c80638a842e5e116100a2578063e985e9c511610071578063e985e9c514610260578063f242432a1461029c578063f2fde38b146102af578063f5298aca146102c2578063fe99049a146102d557600080fd5b80638a842e5e146101f95780638ad913451461021f5780638da5cb5b14610232578063a22cb4651461024d57600080fd5b80634e1273f4116100e95780634e1273f4146101985780636b20c454146101b85780636fcecc4b146101cb578063715018a6146101de578063731133e9146101e657600080fd5b8062fdd58e1461011a57806301ffc9a7146101405780630e89341c146101635780632eb2c2d614610183575b600080fd5b61012d6101283660046117b8565b6102e8565b6040519081526020015b60405180910390f35b61015361014e36600461193d565b61037f565b6040519015158152602001610137565b610176610171366004611975565b6103d1565b6040516101379190611b44565b6101966101913660046115c3565b610465565b005b6101ab6101a6366004611872565b6104fc565b6040516101379190611b03565b6101966101c636600461170d565b61065e565b6101966101d936600461198d565b6106a6565b61019661079a565b6101966101f4366004611813565b6107d0565b610153610207366004611975565b60009081526004602052604090206002015460ff1690565b61017661022d366004611975565b61083b565b6003546040516001600160a01b039091168152602001610137565b61019661025b36600461177e565b61085b565b61015361026e366004611591565b6001600160a01b03918216600090815260016020908152604080832093909416825291909152205460ff1690565b6101966102aa3660046116aa565b610932565b6101966102bd366004611577565b610977565b6101966102d03660046117e1565b610a12565b6101966102e3366004611669565b610a55565b60006001600160a01b0383166103595760405162461bcd60e51b815260206004820152602b60248201527f455243313135353a2062616c616e636520717565727920666f7220746865207a60448201526a65726f206164647265737360a81b60648201526084015b60405180910390fd5b506000908152602081815260408083206001600160a01b03949094168352929052205490565b60006001600160e01b03198216636cdb3d1360e11b14806103b057506001600160e01b031982166303a24d0760e21b145b806103cb57506301ffc9a760e01b6001600160e01b03198316145b92915050565b6060600280546103e090611db7565b80601f016020809104026020016040519081016040528092919081815260200182805461040c90611db7565b80156104595780601f1061042e57610100808354040283529160200191610459565b820191906000526020600020905b81548152906001019060200180831161043c57829003601f168201915b50505050509050919050565b6001600160a01b0385163314806104815750610481853361026e565b6104e85760405162461bcd60e51b815260206004820152603260248201527f455243313135353a207472616e736665722063616c6c6572206973206e6f74206044820152711bdddb995c881b9bdc88185c1c1c9bdd995960721b6064820152608401610350565b6104f58585858585610a71565b5050505050565b606081518351146105615760405162461bcd60e51b815260206004820152602960248201527f455243313135353a206163636f756e747320616e6420696473206c656e677468604482015268040dad2e6dac2e8c6d60bb1b6064820152608401610350565b6000835167ffffffffffffffff81111561058b57634e487b7160e01b600052604160045260246000fd5b6040519080825280602002602001820160405280156105b4578160200160208202803683370190505b50905060005b84518110156106565761061b8582815181106105e657634e487b7160e01b600052603260045260246000fd5b602002602001015185838151811061060e57634e487b7160e01b600052603260045260246000fd5b60200260200101516102e8565b82828151811061063b57634e487b7160e01b600052603260045260246000fd5b602090810291909101015261064f81611e1f565b90506105ba565b509392505050565b6001600160a01b03831633148061067a575061067a833361026e565b6106965760405162461bcd60e51b815260040161035090611be3565b6106a1838383610c29565b505050565b6003546001600160a01b031633146106d05760405162461bcd60e51b815260040161035090611cfe565b60008281526004602052604090206002015460ff16156107325760405162461bcd60e51b815260206004820152601a60248201527f546f6b656e205479706520616c726561647920637265617465640000000000006044820152606401610350565b60408051606081018252838152602080820184815260018385018190526000878152600484529490942083518155905180519394919361077a939285019291909101906113ca565b50604091909101516002909101805460ff19169115159190911790555050565b6003546001600160a01b031633146107c45760405162461bcd60e51b815260040161035090611cfe565b6107ce6000610dc1565b565b60008381526004602052604090206002015460ff166108295760405162461bcd60e51b8152602060048201526015602482015274546f6b656e206973206e6f74206d696e7461626c6560581b6044820152606401610350565b61083584848484610e13565b50505050565b60008181526004602052604090206001018054606091906103e090611db7565b336001600160a01b03831614156108c65760405162461bcd60e51b815260206004820152602960248201527f455243313135353a2073657474696e6720617070726f76616c20737461747573604482015268103337b91039b2b63360b91b6064820152608401610350565b3360008181526001602090815260408083206001600160a01b03871680855290835292819020805460ff191686151590811790915590519081529192917f17307eab39ab6107e8899845ad3d59bd9653f200f220920489ca2b5937696c31910160405180910390a35050565b6001600160a01b03851633148061094e575061094e853361026e565b61096a5760405162461bcd60e51b815260040161035090611be3565b6104f58585858585610f1d565b6003546001600160a01b031633146109a15760405162461bcd60e51b815260040161035090611cfe565b6001600160a01b038116610a065760405162461bcd60e51b815260206004820152602660248201527f4f776e61626c653a206e6577206f776e657220697320746865207a65726f206160448201526564647265737360d01b6064820152608401610350565b610a0f81610dc1565b50565b6001600160a01b038316331480610a2e5750610a2e833361026e565b610a4a5760405162461bcd60e51b815260040161035090611be3565b6106a183838361103a565b6108358484848460405180602001604052806000815250610f1d565b8151835114610a925760405162461bcd60e51b815260040161035090611d33565b6001600160a01b038416610ab85760405162461bcd60e51b815260040161035090611c2c565b3360005b8451811015610bbb576000858281518110610ae757634e487b7160e01b600052603260045260246000fd5b602002602001015190506000858381518110610b1357634e487b7160e01b600052603260045260246000fd5b602090810291909101810151600084815280835260408082206001600160a01b038e168352909352919091205490915081811015610b635760405162461bcd60e51b815260040161035090611cb4565b6000838152602081815260408083206001600160a01b038e8116855292528083208585039055908b16825281208054849290610ba0908490611d9f565b9250508190555050505080610bb490611e1f565b9050610abc565b50846001600160a01b0316866001600160a01b0316826001600160a01b03167f4a39dc06d4c0dbc64b70af90fd698a233a518aa5d07e595d983b8c0526c8f7fb8787604051610c0b929190611b16565b60405180910390a4610c2181878787878761113c565b505050505050565b6001600160a01b038316610c4f5760405162461bcd60e51b815260040161035090611c71565b8051825114610c705760405162461bcd60e51b815260040161035090611d33565b604080516020810190915260009081905233905b8351811015610d62576000848281518110610caf57634e487b7160e01b600052603260045260246000fd5b602002602001015190506000848381518110610cdb57634e487b7160e01b600052603260045260246000fd5b602090810291909101810151600084815280835260408082206001600160a01b038c168352909352919091205490915081811015610d2b5760405162461bcd60e51b815260040161035090611b9f565b6000928352602083815260408085206001600160a01b038b1686529091529092209103905580610d5a81611e1f565b915050610c84565b5060006001600160a01b0316846001600160a01b0316826001600160a01b03167f4a39dc06d4c0dbc64b70af90fd698a233a518aa5d07e595d983b8c0526c8f7fb8686604051610db3929190611b16565b60405180910390a450505050565b600380546001600160a01b038381166001600160a01b0319831681179093556040519116919082907f0d18b5fd22306e373229b9439188228edca81207d1667f604daf6cef8aa3ee6790600090a35050565b6001600160a01b038416610e735760405162461bcd60e51b815260206004820152602160248201527f455243313135353a206d696e7420746f20746865207a65726f206164647265736044820152607360f81b6064820152608401610350565b33610e8d81600087610e84886112a7565b6104f5886112a7565b6000848152602081815260408083206001600160a01b038916845290915281208054859290610ebd908490611d9f565b909155505060408051858152602081018590526001600160a01b0380881692600092918516917fc3d58168c5ae7397731d063d5bbf3d657854427343f4c083240f7aacaa2d0f62910160405180910390a46104f581600087878787611300565b6001600160a01b038416610f435760405162461bcd60e51b815260040161035090611c2c565b33610f53818787610e84886112a7565b6000848152602081815260408083206001600160a01b038a16845290915290205483811015610f945760405162461bcd60e51b815260040161035090611cb4565b6000858152602081815260408083206001600160a01b038b8116855292528083208785039055908816825281208054869290610fd1908490611d9f565b909155505060408051868152602081018690526001600160a01b03808916928a821692918616917fc3d58168c5ae7397731d063d5bbf3d657854427343f4c083240f7aacaa2d0f62910160405180910390a4611031828888888888611300565b50505050505050565b6001600160a01b0383166110605760405162461bcd60e51b815260040161035090611c71565b3361109081856000611071876112a7565b61107a876112a7565b5050604080516020810190915260009052505050565b6000838152602081815260408083206001600160a01b0388168452909152902054828110156110d15760405162461bcd60e51b815260040161035090611b9f565b6000848152602081815260408083206001600160a01b03898116808652918452828520888703905582518981529384018890529092908616917fc3d58168c5ae7397731d063d5bbf3d657854427343f4c083240f7aacaa2d0f62910160405180910390a45050505050565b6001600160a01b0384163b15610c215760405163bc197c8160e01b81526001600160a01b0385169063bc197c81906111809089908990889088908890600401611a60565b602060405180830381600087803b15801561119a57600080fd5b505af19250505080156111ca575060408051601f3d908101601f191682019092526111c791810190611959565b60015b611277576111d6611e66565b806308c379a0141561121057506111eb611e7e565b806111f65750611212565b8060405162461bcd60e51b81526004016103509190611b44565b505b60405162461bcd60e51b815260206004820152603460248201527f455243313135353a207472616e7366657220746f206e6f6e20455243313135356044820152732932b1b2b4bb32b91034b6b83632b6b2b73a32b960611b6064820152608401610350565b6001600160e01b0319811663bc197c8160e01b146110315760405162461bcd60e51b815260040161035090611b57565b604080516001808252818301909252606091600091906020808301908036833701905050905082816000815181106112ef57634e487b7160e01b600052603260045260246000fd5b602090810291909101015292915050565b6001600160a01b0384163b15610c215760405163f23a6e6160e01b81526001600160a01b0385169063f23a6e61906113449089908990889088908890600401611abe565b602060405180830381600087803b15801561135e57600080fd5b505af192505050801561138e575060408051601f3d908101601f1916820190925261138b91810190611959565b60015b61139a576111d6611e66565b6001600160e01b0319811663f23a6e6160e01b146110315760405162461bcd60e51b815260040161035090611b57565b8280546113d690611db7565b90600052602060002090601f0160209004810192826113f8576000855561143e565b82601f1061141157805160ff191683800117855561143e565b8280016001018555821561143e579182015b8281111561143e578251825591602001919060010190611423565b5061144a92915061144e565b5090565b5b8082111561144a576000815560010161144f565b600067ffffffffffffffff83111561147d5761147d611e50565b604051611494601f8501601f191660200182611df2565b8091508381528484840111156114a957600080fd5b83836020830137600060208583010152509392505050565b80356001600160a01b03811681146114d857600080fd5b919050565b600082601f8301126114ed578081fd5b813560206114fa82611d7b565b6040516115078282611df2565b8381528281019150858301600585901b87018401881015611526578586fd5b855b8581101561154457813584529284019290840190600101611528565b5090979650505050505050565b600082601f830112611561578081fd5b61157083833560208501611463565b9392505050565b600060208284031215611588578081fd5b611570826114c1565b600080604083850312156115a3578081fd5b6115ac836114c1565b91506115ba602084016114c1565b90509250929050565b600080600080600060a086880312156115da578081fd5b6115e3866114c1565b94506115f1602087016114c1565b9350604086013567ffffffffffffffff8082111561160d578283fd5b61161989838a016114dd565b9450606088013591508082111561162e578283fd5b61163a89838a016114dd565b9350608088013591508082111561164f578283fd5b5061165c88828901611551565b9150509295509295909350565b6000806000806080858703121561167e578384fd5b611687856114c1565b9350611695602086016114c1565b93969395505050506040820135916060013590565b600080600080600060a086880312156116c1578081fd5b6116ca866114c1565b94506116d8602087016114c1565b93506040860135925060608601359150608086013567ffffffffffffffff811115611701578182fd5b61165c88828901611551565b600080600060608486031215611721578283fd5b61172a846114c1565b9250602084013567ffffffffffffffff80821115611746578384fd5b611752878388016114dd565b93506040860135915080821115611767578283fd5b50611774868287016114dd565b9150509250925092565b60008060408385031215611790578182fd5b611799836114c1565b9150602083013580151581146117ad578182fd5b809150509250929050565b600080604083850312156117ca578182fd5b6117d3836114c1565b946020939093013593505050565b6000806000606084860312156117f5578081fd5b6117fe846114c1565b95602085013595506040909401359392505050565b60008060008060808587031215611828578182fd5b611831856114c1565b93506020850135925060408501359150606085013567ffffffffffffffff81111561185a578182fd5b61186687828801611551565b91505092959194509250565b60008060408385031215611884578182fd5b823567ffffffffffffffff8082111561189b578384fd5b818501915085601f8301126118ae578384fd5b813560206118bb82611d7b565b6040516118c88282611df2565b8381528281019150858301600585901b870184018b10156118e7578889fd5b8896505b84871015611910576118fc816114c1565b8352600196909601959183019183016118eb565b5096505086013592505080821115611926578283fd5b50611933858286016114dd565b9150509250929050565b60006020828403121561194e578081fd5b813561157081611f08565b60006020828403121561196a578081fd5b815161157081611f08565b600060208284031215611986578081fd5b5035919050565b6000806040838503121561199f578182fd5b82359150602083013567ffffffffffffffff8111156119bc578182fd5b8301601f810185136119cc578182fd5b61193385823560208401611463565b6000815180845260208085019450808401835b83811015611a0a578151875295820195908201906001016119ee565b509495945050505050565b60008151808452815b81811015611a3a57602081850181015186830182015201611a1e565b81811115611a4b5782602083870101525b50601f01601f19169290920160200192915050565b6001600160a01b0386811682528516602082015260a060408201819052600090611a8c908301866119db565b8281036060840152611a9e81866119db565b90508281036080840152611ab28185611a15565b98975050505050505050565b6001600160a01b03868116825285166020820152604081018490526060810183905260a060808201819052600090611af890830184611a15565b979650505050505050565b60208152600061157060208301846119db565b604081526000611b2960408301856119db565b8281036020840152611b3b81856119db565b95945050505050565b6020815260006115706020830184611a15565b60208082526028908201527f455243313135353a204552433131353552656365697665722072656a656374656040820152676420746f6b656e7360c01b606082015260800190565b60208082526024908201527f455243313135353a206275726e20616d6f756e7420657863656564732062616c604082015263616e636560e01b606082015260800190565b60208082526029908201527f455243313135353a2063616c6c6572206973206e6f74206f776e6572206e6f7260408201526808185c1c1c9bdd995960ba1b606082015260800190565b60208082526025908201527f455243313135353a207472616e7366657220746f20746865207a65726f206164604082015264647265737360d81b606082015260800190565b60208082526023908201527f455243313135353a206275726e2066726f6d20746865207a65726f206164647260408201526265737360e81b606082015260800190565b6020808252602a908201527f455243313135353a20696e73756666696369656e742062616c616e636520666f60408201526939103a3930b739b332b960b11b606082015260800190565b6020808252818101527f4f776e61626c653a2063616c6c6572206973206e6f7420746865206f776e6572604082015260600190565b60208082526028908201527f455243313135353a2069647320616e6420616d6f756e7473206c656e677468206040820152670dad2e6dac2e8c6d60c31b606082015260800190565b600067ffffffffffffffff821115611d9557611d95611e50565b5060051b60200190565b60008219821115611db257611db2611e3a565b500190565b600181811c90821680611dcb57607f821691505b60208210811415611dec57634e487b7160e01b600052602260045260246000fd5b50919050565b601f8201601f1916810167ffffffffffffffff81118282101715611e1857611e18611e50565b6040525050565b6000600019821415611e3357611e33611e3a565b5060010190565b634e487b7160e01b600052601160045260246000fd5b634e487b7160e01b600052604160045260246000fd5b600060033d1115611e7b57600481823e5160e01c5b90565b600060443d1015611e8c5790565b6040516003193d81016004833e81513d67ffffffffffffffff8160248401118184111715611ebc57505050505090565b8285019150815181811115611ed45750505050505090565b843d8701016020828501011115611eee5750505050505090565b611efd60208286010187611df2565b509095945050505050565b6001600160e01b031981168114610a0f57600080fdfea2646970667358221220f6a2b066bbcc57f5ec338b8ac0132b67f3aed0d425dd0cc00e2a16bb736305f664736f6c63430008040033a264697066735822122078d3251e3669cda2c183c4bf90fbbd646808e9c9f1e6d5ef1d2a225733b4440d64736f6c63430008040033",
  "linkReferences": {},
  "deployedLinkReferences": {}
}