{
  "_format": "hh-sol-artifact-1",
  "contractName": "MusichainNFT",
  "sourceName": "contracts/nft/MusichainNFT.sol",
  "abi": [
    {
      "inputs": [
        {
          "internalType": "address",
          "name": "_deployer",
          "type": "address"
        },
        {
          "internalType": "string",
          "name": "_baseUrl",
          "type": "string"
        }
      ],
      "stateMutability": "nonpayable",
      "type": "constructor"
    },
    {
      "anonymous": false,
      "inputs": [
        {
          "indexed": true,
          "internalType": "address",
          "name": "account",
          "type": "address"
        },
        {
          "indexed": true,
          "internalType": "address",
          "name": "operator",
          "type": "address"
        },
        {
          "indexed": false,
          "internalType": "bool",
          "name": "approved",
          "type": "bool"
        }
      ],
      "name": "ApprovalForAll",
      "type": "event"
    },
    {
      "anonymous": false,
      "inputs": [
        {
          "indexed": true,
          "internalType": "address",
          "name": "previousOwner",
          "type": "address"
        },
        {
          "indexed": true,
          "internalType": "address",
          "name": "newOwner",
          "type": "address"
        }
      ],
      "name": "OwnershipTransfered",
      "type": "event"
    },
    {
      "anonymous": false,
      "inputs": [
        {
          "indexed": true,
          "internalType": "address",
          "name": "operator",
          "type": "address"
        },
        {
          "indexed": true,
          "internalType": "address",
          "name": "from",
          "type": "address"
        },
        {
          "indexed": true,
          "internalType": "address",
          "name": "to",
          "type": "address"
        },
        {
          "indexed": false,
          "internalType": "uint256[]",
          "name": "ids",
          "type": "uint256[]"
        },
        {
          "indexed": false,
          "internalType": "uint256[]",
          "name": "values",
          "type": "uint256[]"
        }
      ],
      "name": "TransferBatch",
      "type": "event"
    },
    {
      "anonymous": false,
      "inputs": [
        {
          "indexed": true,
          "internalType": "address",
          "name": "operator",
          "type": "address"
        },
        {
          "indexed": true,
          "internalType": "address",
          "name": "from",
          "type": "address"
        },
        {
          "indexed": true,
          "internalType": "address",
          "name": "to",
          "type": "address"
        },
        {
          "indexed": false,
          "internalType": "uint256",
          "name": "id",
          "type": "uint256"
        },
        {
          "indexed": false,
          "internalType": "uint256",
          "name": "value",
          "type": "uint256"
        }
      ],
      "name": "TransferSingle",
      "type": "event"
    },
    {
      "anonymous": false,
      "inputs": [
        {
          "indexed": false,
          "internalType": "string",
          "name": "value",
          "type": "string"
        },
        {
          "indexed": true,
          "internalType": "uint256",
          "name": "id",
          "type": "uint256"
        }
      ],
      "name": "URI",
      "type": "event"
    },
    {
      "inputs": [
        {
          "internalType": "uint256",
          "name": "_tokenId",
          "type": "uint256"
        },
        {
          "internalType": "string",
          "name": "_tokenUri",
          "type": "string"
        }
      ],
      "name": "addTokenType",
      "outputs": [],
      "stateMutability": "nonpayable",
      "type": "function"
    },
    {
      "inputs": [
        {
          "internalType": "address",
          "name": "account",
          "type": "address"
        },
        {
          "internalType": "uint256",
          "name": "id",
          "type": "uint256"
        }
      ],
      "name": "balanceOf",
      "outputs": [
        {
          "internalType": "uint256",
          "name": "",
          "type": "uint256"
        }
      ],
      "stateMutability": "view",
      "type": "function"
    },
    {
      "inputs": [
        {
          "internalType": "address[]",
          "name": "accounts",
          "type": "address[]"
        },
        {
          "internalType": "uint256[]",
          "name": "ids",
          "type": "uint256[]"
        }
      ],
      "name": "balanceOfBatch",
      "outputs": [
        {
          "internalType": "uint256[]",
          "name": "",
          "type": "uint256[]"
        }
      ],
      "stateMutability": "view",
      "type": "function"
    },
    {
      "inputs": [
        {
          "internalType": "address",
          "name": "account",
          "type": "address"
        },
        {
          "internalType": "uint256",
          "name": "id",
          "type": "uint256"
        },
        {
          "internalType": "uint256",
          "name": "value",
          "type": "uint256"
        }
      ],
      "name": "burn",
      "outputs": [],
      "stateMutability": "nonpayable",
      "type": "function"
    },
    {
      "inputs": [
        {
          "internalType": "address",
          "name": "account",
          "type": "address"
        },
        {
          "internalType": "uint256[]",
          "name": "ids",
          "type": "uint256[]"
        },
        {
          "internalType": "uint256[]",
          "name": "values",
          "type": "uint256[]"
        }
      ],
      "name": "burnBatch",
      "outputs": [],
      "stateMutability": "nonpayable",
      "type": "function"
    },
    {
      "inputs": [
        {
          "internalType": "uint256",
          "name": "_tokenId",
          "type": "uint256"
        }
      ],
      "name": "getTokenUri",
      "outputs": [
        {
          "internalType": "string",
          "name": "",
          "type": "string"
        }
      ],
      "stateMutability": "view",
      "type": "function"
    },
    {
      "inputs": [
        {
          "internalType": "address",
          "name": "account",
          "type": "address"
        },
        {
          "internalType": "address",
          "name": "operator",
          "type": "address"
        }
      ],
      "name": "isApprovedForAll",
      "outputs": [
        {
          "internalType": "bool",
          "name": "",
          "type": "bool"
        }
      ],
      "stateMutability": "view",
      "type": "function"
    },
    {
      "inputs": [
        {
          "internalType": "uint256",
          "name": "_tokenId",
          "type": "uint256"
        }
      ],
      "name": "isTokenTypeMintable",
      "outputs": [
        {
          "internalType": "bool",
          "name": "",
          "type": "bool"
        }
      ],
      "stateMutability": "view",
      "type": "function"
    },
    {
      "inputs": [
        {
          "internalType": "address",
          "name": "account",
          "type": "address"
        },
        {
          "internalType": "uint256",
          "name": "id",
          "type": "uint256"
        },
        {
          "internalType": "uint256",
          "name": "amount",
          "type": "uint256"
        },
        {
          "internalType": "bytes",
          "name": "data",
          "type": "bytes"
        }
      ],
      "name": "mint",
      "outputs": [],
      "stateMutability": "nonpayable",
      "type": "function"
    },
    {
      "inputs": [],
      "name": "owner",
      "outputs": [
        {
          "internalType": "address",
          "name": "",
          "type": "address"
        }
      ],
      "stateMutability": "view",
      "type": "function"
    },
    {
      "inputs": [],
      "name": "renounceOwnership",
      "outputs": [],
      "stateMutability": "nonpayable",
      "type": "function"
    },
    {
      "inputs": [
        {
          "internalType": "address",
          "name": "from",
          "type": "address"
        },
        {
          "internalType": "address",
          "name": "to",
          "type": "address"
        },
        {
          "internalType": "uint256[]",
          "name": "ids",
          "type": "uint256[]"
        },
        {
          "internalType": "uint256[]",
          "name": "amounts",
          "type": "uint256[]"
        },
        {
          "internalType": "bytes",
          "name": "data",
          "type": "bytes"
        }
      ],
      "name": "safeBatchTransferFrom",
      "outputs": [],
      "stateMutability": "nonpayable",
      "type": "function"
    },
    {
      "inputs": [
        {
          "internalType": "address",
          "name": "from",
          "type": "address"
        },
        {
          "internalType": "address",
          "name": "to",
          "type": "address"
        },
        {
          "internalType": "uint256",
          "name": "id",
          "type": "uint256"
        },
        {
          "internalType": "uint256",
          "name": "amount",
          "type": "uint256"
        },
        {
          "internalType": "bytes",
          "name": "data",
          "type": "bytes"
        }
      ],
      "name": "safeTransferFrom",
      "outputs": [],
      "stateMutability": "nonpayable",
      "type": "function"
    },
    {
      "inputs": [
        {
          "internalType": "address",
          "name": "operator",
          "type": "address"
        },
        {
          "internalType": "bool",
          "name": "approved",
          "type": "bool"
        }
      ],
      "name": "setApprovalForAll",
      "outputs": [],
      "stateMutability": "nonpayable",
      "type": "function"
    },
    {
      "inputs": [
        {
          "internalType": "bytes4",
          "name": "interfaceId",
          "type": "bytes4"
        }
      ],
      "name": "supportsInterface",
      "outputs": [
        {
          "internalType": "bool",
          "name": "",
          "type": "bool"
        }
      ],
      "stateMutability": "view",
      "type": "function"
    },
    {
      "inputs": [
        {
          "internalType": "address",
          "name": "_from",
          "type": "address"
        },
        {
          "internalType": "address",
          "name": "_receiver",
          "type": "address"
        },
        {
          "internalType": "uint256",
          "name": "_tokenId",
          "type": "uint256"
        },
        {
          "internalType": "uint256",
          "name": "_amount",
          "type": "uint256"
        }
      ],
      "name": "transferFrom",
      "outputs": [],
      "stateMutability": "nonpayable",
      "type": "function"
    },
    {
      "inputs": [
        {
          "internalType": "address",
          "name": "newOwner",
          "type": "address"
        }
      ],
      "name": "transferOwnership",
      "outputs": [],
      "stateMutability": "nonpayable",
      "type": "function"
    },
    {
      "inputs": [
        {
          "internalType": "uint256",
          "name": "",
          "type": "uint256"
        }
      ],
      "name": "uri",
      "outputs": [
        {
          "internalType": "string",
          "name": "",
          "type": "string"
        }
      ],
      "stateMutability": "view",
      "type": "function"
    }
  ],
  "bytecode": "0x60806040523480156200001157600080fd5b506040516200221538038062002215833981016040819052620000349162000165565b80620000408162000054565b506200004c826200006d565b5050620002b1565b805162000069906002906020840190620000bf565b5050565b600380546001600160a01b038381166001600160a01b0319831681179093556040519116919082907f0d18b5fd22306e373229b9439188228edca81207d1667f604daf6cef8aa3ee6790600090a35050565b828054620000cd906200025e565b90600052602060002090601f016020900481019282620000f157600085556200013c565b82601f106200010c57805160ff19168380011785556200013c565b828001600101855582156200013c579182015b828111156200013c5782518255916020019190600101906200011f565b506200014a9291506200014e565b5090565b5b808211156200014a57600081556001016200014f565b6000806040838503121562000178578182fd5b82516001600160a01b03811681146200018f578283fd5b602084810151919350906001600160401b0380821115620001ae578384fd5b818601915086601f830112620001c2578384fd5b815181811115620001d757620001d76200029b565b604051601f8201601f19908116603f011681019083821181831017156200020257620002026200029b565b8160405282815289868487010111156200021a578687fd5b8693505b828410156200023d57848401860151818501870152928501926200021e565b828411156200024e57868684830101525b8096505050505050509250929050565b600181811c908216806200027357607f821691505b602082108114156200029557634e487b7160e01b600052602260045260246000fd5b50919050565b634e487b7160e01b600052604160045260246000fd5b611f5480620002c16000396000f3fe608060405234801561001057600080fd5b50600436106101155760003560e01c80638a842e5e116100a2578063e985e9c511610071578063e985e9c514610260578063f242432a1461029c578063f2fde38b146102af578063f5298aca146102c2578063fe99049a146102d557600080fd5b80638a842e5e146101f95780638ad913451461021f5780638da5cb5b14610232578063a22cb4651461024d57600080fd5b80634e1273f4116100e95780634e1273f4146101985780636b20c454146101b85780636fcecc4b146101cb578063715018a6146101de578063731133e9146101e657600080fd5b8062fdd58e1461011a57806301ffc9a7146101405780630e89341c146101635780632eb2c2d614610183575b600080fd5b61012d6101283660046117b8565b6102e8565b6040519081526020015b60405180910390f35b61015361014e36600461193d565b61037f565b6040519015158152602001610137565b610176610171366004611975565b6103d1565b6040516101379190611b44565b6101966101913660046115c3565b610465565b005b6101ab6101a6366004611872565b6104fc565b6040516101379190611b03565b6101966101c636600461170d565b61065e565b6101966101d936600461198d565b6106a6565b61019661079a565b6101966101f4366004611813565b6107d0565b610153610207366004611975565b60009081526004602052604090206002015460ff1690565b61017661022d366004611975565b61083b565b6003546040516001600160a01b039091168152602001610137565b61019661025b36600461177e565b61085b565b61015361026e366004611591565b6001600160a01b03918216600090815260016020908152604080832093909416825291909152205460ff1690565b6101966102aa3660046116aa565b610932565b6101966102bd366004611577565b610977565b6101966102d03660046117e1565b610a12565b6101966102e3366004611669565b610a55565b60006001600160a01b0383166103595760405162461bcd60e51b815260206004820152602b60248201527f455243313135353a2062616c616e636520717565727920666f7220746865207a60448201526a65726f206164647265737360a81b60648201526084015b60405180910390fd5b506000908152602081815260408083206001600160a01b03949094168352929052205490565b60006001600160e01b03198216636cdb3d1360e11b14806103b057506001600160e01b031982166303a24d0760e21b145b806103cb57506301ffc9a760e01b6001600160e01b03198316145b92915050565b6060600280546103e090611db7565b80601f016020809104026020016040519081016040528092919081815260200182805461040c90611db7565b80156104595780601f1061042e57610100808354040283529160200191610459565b820191906000526020600020905b81548152906001019060200180831161043c57829003601f168201915b50505050509050919050565b6001600160a01b0385163314806104815750610481853361026e565b6104e85760405162461bcd60e51b815260206004820152603260248201527f455243313135353a207472616e736665722063616c6c6572206973206e6f74206044820152711bdddb995c881b9bdc88185c1c1c9bdd995960721b6064820152608401610350565b6104f58585858585610a71565b5050505050565b606081518351146105615760405162461bcd60e51b815260206004820152602960248201527f455243313135353a206163636f756e747320616e6420696473206c656e677468604482015268040dad2e6dac2e8c6d60bb1b6064820152608401610350565b6000835167ffffffffffffffff81111561058b57634e487b7160e01b600052604160045260246000fd5b6040519080825280602002602001820160405280156105b4578160200160208202803683370190505b50905060005b84518110156106565761061b8582815181106105e657634e487b7160e01b600052603260045260246000fd5b602002602001015185838151811061060e57634e487b7160e01b600052603260045260246000fd5b60200260200101516102e8565b82828151811061063b57634e487b7160e01b600052603260045260246000fd5b602090810291909101015261064f81611e1f565b90506105ba565b509392505050565b6001600160a01b03831633148061067a575061067a833361026e565b6106965760405162461bcd60e51b815260040161035090611be3565b6106a1838383610c29565b505050565b6003546001600160a01b031633146106d05760405162461bcd60e51b815260040161035090611cfe565b60008281526004602052604090206002015460ff16156107325760405162461bcd60e51b815260206004820152601a60248201527f546f6b656e205479706520616c726561647920637265617465640000000000006044820152606401610350565b60408051606081018252838152602080820184815260018385018190526000878152600484529490942083518155905180519394919361077a939285019291909101906113ca565b50604091909101516002909101805460ff19169115159190911790555050565b6003546001600160a01b031633146107c45760405162461bcd60e51b815260040161035090611cfe565b6107ce6000610dc1565b565b60008381526004602052604090206002015460ff166108295760405162461bcd60e51b8152602060048201526015602482015274546f6b656e206973206e6f74206d696e7461626c6560581b6044820152606401610350565b61083584848484610e13565b50505050565b60008181526004602052604090206001018054606091906103e090611db7565b336001600160a01b03831614156108c65760405162461bcd60e51b815260206004820152602960248201527f455243313135353a2073657474696e6720617070726f76616c20737461747573604482015268103337b91039b2b63360b91b6064820152608401610350565b3360008181526001602090815260408083206001600160a01b03871680855290835292819020805460ff191686151590811790915590519081529192917f17307eab39ab6107e8899845ad3d59bd9653f200f220920489ca2b5937696c31910160405180910390a35050565b6001600160a01b03851633148061094e575061094e853361026e565b61096a5760405162461bcd60e51b815260040161035090611be3565b6104f58585858585610f1d565b6003546001600160a01b031633146109a15760405162461bcd60e51b815260040161035090611cfe565b6001600160a01b038116610a065760405162461bcd60e51b815260206004820152602660248201527f4f776e61626c653a206e6577206f776e657220697320746865207a65726f206160448201526564647265737360d01b6064820152608401610350565b610a0f81610dc1565b50565b6001600160a01b038316331480610a2e5750610a2e833361026e565b610a4a5760405162461bcd60e51b815260040161035090611be3565b6106a183838361103a565b6108358484848460405180602001604052806000815250610f1d565b8151835114610a925760405162461bcd60e51b815260040161035090611d33565b6001600160a01b038416610ab85760405162461bcd60e51b815260040161035090611c2c565b3360005b8451811015610bbb576000858281518110610ae757634e487b7160e01b600052603260045260246000fd5b602002602001015190506000858381518110610b1357634e487b7160e01b600052603260045260246000fd5b602090810291909101810151600084815280835260408082206001600160a01b038e168352909352919091205490915081811015610b635760405162461bcd60e51b815260040161035090611cb4565b6000838152602081815260408083206001600160a01b038e8116855292528083208585039055908b16825281208054849290610ba0908490611d9f565b9250508190555050505080610bb490611e1f565b9050610abc565b50846001600160a01b0316866001600160a01b0316826001600160a01b03167f4a39dc06d4c0dbc64b70af90fd698a233a518aa5d07e595d983b8c0526c8f7fb8787604051610c0b929190611b16565b60405180910390a4610c2181878787878761113c565b505050505050565b6001600160a01b038316610c4f5760405162461bcd60e51b815260040161035090611c71565b8051825114610c705760405162461bcd60e51b815260040161035090611d33565b604080516020810190915260009081905233905b8351811015610d62576000848281518110610caf57634e487b7160e01b600052603260045260246000fd5b602002602001015190506000848381518110610cdb57634e487b7160e01b600052603260045260246000fd5b602090810291909101810151600084815280835260408082206001600160a01b038c168352909352919091205490915081811015610d2b5760405162461bcd60e51b815260040161035090611b9f565b6000928352602083815260408085206001600160a01b038b1686529091529092209103905580610d5a81611e1f565b915050610c84565b5060006001600160a01b0316846001600160a01b0316826001600160a01b03167f4a39dc06d4c0dbc64b70af90fd698a233a518aa5d07e595d983b8c0526c8f7fb8686604051610db3929190611b16565b60405180910390a450505050565b600380546001600160a01b038381166001600160a01b0319831681179093556040519116919082907f0d18b5fd22306e373229b9439188228edca81207d1667f604daf6cef8aa3ee6790600090a35050565b6001600160a01b038416610e735760405162461bcd60e51b815260206004820152602160248201527f455243313135353a206d696e7420746f20746865207a65726f206164647265736044820152607360f81b6064820152608401610350565b33610e8d81600087610e84886112a7565b6104f5886112a7565b6000848152602081815260408083206001600160a01b038916845290915281208054859290610ebd908490611d9f565b909155505060408051858152602081018590526001600160a01b0380881692600092918516917fc3d58168c5ae7397731d063d5bbf3d657854427343f4c083240f7aacaa2d0f62910160405180910390a46104f581600087878787611300565b6001600160a01b038416610f435760405162461bcd60e51b815260040161035090611c2c565b33610f53818787610e84886112a7565b6000848152602081815260408083206001600160a01b038a16845290915290205483811015610f945760405162461bcd60e51b815260040161035090611cb4565b6000858152602081815260408083206001600160a01b038b8116855292528083208785039055908816825281208054869290610fd1908490611d9f565b909155505060408051868152602081018690526001600160a01b03808916928a821692918616917fc3d58168c5ae7397731d063d5bbf3d657854427343f4c083240f7aacaa2d0f62910160405180910390a4611031828888888888611300565b50505050505050565b6001600160a01b0383166110605760405162461bcd60e51b815260040161035090611c71565b3361109081856000611071876112a7565b61107a876112a7565b5050604080516020810190915260009052505050565b6000838152602081815260408083206001600160a01b0388168452909152902054828110156110d15760405162461bcd60e51b815260040161035090611b9f565b6000848152602081815260408083206001600160a01b03898116808652918452828520888703905582518981529384018890529092908616917fc3d58168c5ae7397731d063d5bbf3d657854427343f4c083240f7aacaa2d0f62910160405180910390a45050505050565b6001600160a01b0384163b15610c215760405163bc197c8160e01b81526001600160a01b0385169063bc197c81906111809089908990889088908890600401611a60565b602060405180830381600087803b15801561119a57600080fd5b505af19250505080156111ca575060408051601f3d908101601f191682019092526111c791810190611959565b60015b611277576111d6611e66565b806308c379a0141561121057506111eb611e7e565b806111f65750611212565b8060405162461bcd60e51b81526004016103509190611b44565b505b60405162461bcd60e51b815260206004820152603460248201527f455243313135353a207472616e7366657220746f206e6f6e20455243313135356044820152732932b1b2b4bb32b91034b6b83632b6b2b73a32b960611b6064820152608401610350565b6001600160e01b0319811663bc197c8160e01b146110315760405162461bcd60e51b815260040161035090611b57565b604080516001808252818301909252606091600091906020808301908036833701905050905082816000815181106112ef57634e487b7160e01b600052603260045260246000fd5b602090810291909101015292915050565b6001600160a01b0384163b15610c215760405163f23a6e6160e01b81526001600160a01b0385169063f23a6e61906113449089908990889088908890600401611abe565b602060405180830381600087803b15801561135e57600080fd5b505af192505050801561138e575060408051601f3d908101601f1916820190925261138b91810190611959565b60015b61139a576111d6611e66565b6001600160e01b0319811663f23a6e6160e01b146110315760405162461bcd60e51b815260040161035090611b57565b8280546113d690611db7565b90600052602060002090601f0160209004810192826113f8576000855561143e565b82601f1061141157805160ff191683800117855561143e565b8280016001018555821561143e579182015b8281111561143e578251825591602001919060010190611423565b5061144a92915061144e565b5090565b5b8082111561144a576000815560010161144f565b600067ffffffffffffffff83111561147d5761147d611e50565b604051611494601f8501601f191660200182611df2565b8091508381528484840111156114a957600080fd5b83836020830137600060208583010152509392505050565b80356001600160a01b03811681146114d857600080fd5b919050565b600082601f8301126114ed578081fd5b813560206114fa82611d7b565b6040516115078282611df2565b8381528281019150858301600585901b87018401881015611526578586fd5b855b8581101561154457813584529284019290840190600101611528565b5090979650505050505050565b600082601f830112611561578081fd5b61157083833560208501611463565b9392505050565b600060208284031215611588578081fd5b611570826114c1565b600080604083850312156115a3578081fd5b6115ac836114c1565b91506115ba602084016114c1565b90509250929050565b600080600080600060a086880312156115da578081fd5b6115e3866114c1565b94506115f1602087016114c1565b9350604086013567ffffffffffffffff8082111561160d578283fd5b61161989838a016114dd565b9450606088013591508082111561162e578283fd5b61163a89838a016114dd565b9350608088013591508082111561164f578283fd5b5061165c88828901611551565b9150509295509295909350565b6000806000806080858703121561167e578384fd5b611687856114c1565b9350611695602086016114c1565b93969395505050506040820135916060013590565b600080600080600060a086880312156116c1578081fd5b6116ca866114c1565b94506116d8602087016114c1565b93506040860135925060608601359150608086013567ffffffffffffffff811115611701578182fd5b61165c88828901611551565b600080600060608486031215611721578283fd5b61172a846114c1565b9250602084013567ffffffffffffffff80821115611746578384fd5b611752878388016114dd565b93506040860135915080821115611767578283fd5b50611774868287016114dd565b9150509250925092565b60008060408385031215611790578182fd5b611799836114c1565b9150602083013580151581146117ad578182fd5b809150509250929050565b600080604083850312156117ca578182fd5b6117d3836114c1565b946020939093013593505050565b6000806000606084860312156117f5578081fd5b6117fe846114c1565b95602085013595506040909401359392505050565b60008060008060808587031215611828578182fd5b611831856114c1565b93506020850135925060408501359150606085013567ffffffffffffffff81111561185a578182fd5b61186687828801611551565b91505092959194509250565b60008060408385031215611884578182fd5b823567ffffffffffffffff8082111561189b578384fd5b818501915085601f8301126118ae578384fd5b813560206118bb82611d7b565b6040516118c88282611df2565b8381528281019150858301600585901b870184018b10156118e7578889fd5b8896505b84871015611910576118fc816114c1565b8352600196909601959183019183016118eb565b5096505086013592505080821115611926578283fd5b50611933858286016114dd565b9150509250929050565b60006020828403121561194e578081fd5b813561157081611f08565b60006020828403121561196a578081fd5b815161157081611f08565b600060208284031215611986578081fd5b5035919050565b6000806040838503121561199f578182fd5b82359150602083013567ffffffffffffffff8111156119bc578182fd5b8301601f810185136119cc578182fd5b61193385823560208401611463565b6000815180845260208085019450808401835b83811015611a0a578151875295820195908201906001016119ee565b509495945050505050565b60008151808452815b81811015611a3a57602081850181015186830182015201611a1e565b81811115611a4b5782602083870101525b50601f01601f19169290920160200192915050565b6001600160a01b0386811682528516602082015260a060408201819052600090611a8c908301866119db565b8281036060840152611a9e81866119db565b90508281036080840152611ab28185611a15565b98975050505050505050565b6001600160a01b03868116825285166020820152604081018490526060810183905260a060808201819052600090611af890830184611a15565b979650505050505050565b60208152600061157060208301846119db565b604081526000611b2960408301856119db565b8281036020840152611b3b81856119db565b95945050505050565b6020815260006115706020830184611a15565b60208082526028908201527f455243313135353a204552433131353552656365697665722072656a656374656040820152676420746f6b656e7360c01b606082015260800190565b60208082526024908201527f455243313135353a206275726e20616d6f756e7420657863656564732062616c604082015263616e636560e01b606082015260800190565b60208082526029908201527f455243313135353a2063616c6c6572206973206e6f74206f776e6572206e6f7260408201526808185c1c1c9bdd995960ba1b606082015260800190565b60208082526025908201527f455243313135353a207472616e7366657220746f20746865207a65726f206164604082015264647265737360d81b606082015260800190565b60208082526023908201527f455243313135353a206275726e2066726f6d20746865207a65726f206164647260408201526265737360e81b606082015260800190565b6020808252602a908201527f455243313135353a20696e73756666696369656e742062616c616e636520666f60408201526939103a3930b739b332b960b11b606082015260800190565b6020808252818101527f4f776e61626c653a2063616c6c6572206973206e6f7420746865206f776e6572604082015260600190565b60208082526028908201527f455243313135353a2069647320616e6420616d6f756e7473206c656e677468206040820152670dad2e6dac2e8c6d60c31b606082015260800190565b600067ffffffffffffffff821115611d9557611d95611e50565b5060051b60200190565b60008219821115611db257611db2611e3a565b500190565b600181811c90821680611dcb57607f821691505b60208210811415611dec57634e487b7160e01b600052602260045260246000fd5b50919050565b601f8201601f1916810167ffffffffffffffff81118282101715611e1857611e18611e50565b6040525050565b6000600019821415611e3357611e33611e3a565b5060010190565b634e487b7160e01b600052601160045260246000fd5b634e487b7160e01b600052604160045260246000fd5b600060033d1115611e7b57600481823e5160e01c5b90565b600060443d1015611e8c5790565b6040516003193d81016004833e81513d67ffffffffffffffff8160248401118184111715611ebc57505050505090565b8285019150815181811115611ed45750505050505090565b843d8701016020828501011115611eee5750505050505090565b611efd60208286010187611df2565b509095945050505050565b6001600160e01b031981168114610a0f57600080fdfea2646970667358221220f6a2b066bbcc57f5ec338b8ac0132b67f3aed0d425dd0cc00e2a16bb736305f664736f6c63430008040033",
  "linkReferences": {},
  "deployedLinkReferences": {}
}