{
  "_format": "hh-sol-artifact-1",
  "contractName": "MusichainNFT",
  "sourceName": "contracts/nft/MusichainNFT.sol",
  "abi": [
    {
      "inputs": [
        {
          "internalType": "address",
          "name": "_deployer",
          "type": "address"
        },
        {
          "internalType": "string",
          "name": "_baseUrl",
          "type": "string"
        }
      ],
      "stateMutability": "nonpayable",
      "type": "constructor"
    },
    {
      "anonymous": false,
      "inputs": [
        {
          "indexed": true,
          "internalType": "address",
          "name": "account",
          "type": "address"
        },
        {
          "indexed": true,
          "internalType": "address",
          "name": "operator",
          "type": "address"
        },
        {
          "indexed": false,
          "internalType": "bool",
          "name": "approved",
          "type": "bool"
        }
      ],
      "name": "ApprovalForAll",
      "type": "event"
    },
    {
      "anonymous": false,
      "inputs": [
        {
          "indexed": true,
          "internalType": "address",
          "name": "previousOwner",
          "type": "address"
        },
        {
          "indexed": true,
          "internalType": "address",
          "name": "newOwner",
          "type": "address"
        }
      ],
      "name": "OwnershipTransfered",
      "type": "event"
    },
    {
      "anonymous": false,
      "inputs": [
        {
          "indexed": false,
          "internalType": "uint256",
          "name": "_tokenId",
          "type": "uint256"
        },
        {
          "indexed": false,
          "internalType": "string",
          "name": "_tokenUri",
          "type": "string"
        }
      ],
      "name": "TokenTypeAdded",
      "type": "event"
    },
    {
      "anonymous": false,
      "inputs": [
        {
          "indexed": true,
          "internalType": "address",
          "name": "operator",
          "type": "address"
        },
        {
          "indexed": true,
          "internalType": "address",
          "name": "from",
          "type": "address"
        },
        {
          "indexed": true,
          "internalType": "address",
          "name": "to",
          "type": "address"
        },
        {
          "indexed": false,
          "internalType": "uint256[]",
          "name": "ids",
          "type": "uint256[]"
        },
        {
          "indexed": false,
          "internalType": "uint256[]",
          "name": "values",
          "type": "uint256[]"
        }
      ],
      "name": "TransferBatch",
      "type": "event"
    },
    {
      "anonymous": false,
      "inputs": [
        {
          "indexed": true,
          "internalType": "address",
          "name": "operator",
          "type": "address"
        },
        {
          "indexed": true,
          "internalType": "address",
          "name": "from",
          "type": "address"
        },
        {
          "indexed": true,
          "internalType": "address",
          "name": "to",
          "type": "address"
        },
        {
          "indexed": false,
          "internalType": "uint256",
          "name": "id",
          "type": "uint256"
        },
        {
          "indexed": false,
          "internalType": "uint256",
          "name": "value",
          "type": "uint256"
        }
      ],
      "name": "TransferSingle",
      "type": "event"
    },
    {
      "anonymous": false,
      "inputs": [
        {
          "indexed": false,
          "internalType": "string",
          "name": "value",
          "type": "string"
        },
        {
          "indexed": true,
          "internalType": "uint256",
          "name": "id",
          "type": "uint256"
        }
      ],
      "name": "URI",
      "type": "event"
    },
    {
      "inputs": [
        {
          "internalType": "uint256",
          "name": "_tokenId",
          "type": "uint256"
        },
        {
          "internalType": "string",
          "name": "_tokenUri",
          "type": "string"
        }
      ],
      "name": "addTokenType",
      "outputs": [],
      "stateMutability": "nonpayable",
      "type": "function"
    },
    {
      "inputs": [
        {
          "internalType": "address",
          "name": "account",
          "type": "address"
        },
        {
          "internalType": "uint256",
          "name": "id",
          "type": "uint256"
        }
      ],
      "name": "balanceOf",
      "outputs": [
        {
          "internalType": "uint256",
          "name": "",
          "type": "uint256"
        }
      ],
      "stateMutability": "view",
      "type": "function"
    },
    {
      "inputs": [
        {
          "internalType": "address[]",
          "name": "accounts",
          "type": "address[]"
        },
        {
          "internalType": "uint256[]",
          "name": "ids",
          "type": "uint256[]"
        }
      ],
      "name": "balanceOfBatch",
      "outputs": [
        {
          "internalType": "uint256[]",
          "name": "",
          "type": "uint256[]"
        }
      ],
      "stateMutability": "view",
      "type": "function"
    },
    {
      "inputs": [
        {
          "internalType": "address",
          "name": "account",
          "type": "address"
        },
        {
          "internalType": "uint256",
          "name": "id",
          "type": "uint256"
        },
        {
          "internalType": "uint256",
          "name": "value",
          "type": "uint256"
        }
      ],
      "name": "burn",
      "outputs": [],
      "stateMutability": "nonpayable",
      "type": "function"
    },
    {
      "inputs": [
        {
          "internalType": "address",
          "name": "account",
          "type": "address"
        },
        {
          "internalType": "uint256[]",
          "name": "ids",
          "type": "uint256[]"
        },
        {
          "internalType": "uint256[]",
          "name": "values",
          "type": "uint256[]"
        }
      ],
      "name": "burnBatch",
      "outputs": [],
      "stateMutability": "nonpayable",
      "type": "function"
    },
    {
      "inputs": [
        {
          "internalType": "uint256",
          "name": "_tokenId",
          "type": "uint256"
        }
      ],
      "name": "getTokenUri",
      "outputs": [
        {
          "internalType": "string",
          "name": "",
          "type": "string"
        }
      ],
      "stateMutability": "view",
      "type": "function"
    },
    {
      "inputs": [
        {
          "internalType": "address",
          "name": "account",
          "type": "address"
        },
        {
          "internalType": "address",
          "name": "operator",
          "type": "address"
        }
      ],
      "name": "isApprovedForAll",
      "outputs": [
        {
          "internalType": "bool",
          "name": "",
          "type": "bool"
        }
      ],
      "stateMutability": "view",
      "type": "function"
    },
    {
      "inputs": [
        {
          "internalType": "uint256",
          "name": "_tokenId",
          "type": "uint256"
        }
      ],
      "name": "isTokenTypeMintable",
      "outputs": [
        {
          "internalType": "bool",
          "name": "",
          "type": "bool"
        }
      ],
      "stateMutability": "view",
      "type": "function"
    },
    {
      "inputs": [
        {
          "internalType": "address",
          "name": "account",
          "type": "address"
        },
        {
          "internalType": "uint256",
          "name": "id",
          "type": "uint256"
        },
        {
          "internalType": "uint256",
          "name": "amount",
          "type": "uint256"
        },
        {
          "internalType": "bytes",
          "name": "data",
          "type": "bytes"
        }
      ],
      "name": "mint",
      "outputs": [],
      "stateMutability": "nonpayable",
      "type": "function"
    },
    {
      "inputs": [],
      "name": "owner",
      "outputs": [
        {
          "internalType": "address",
          "name": "",
          "type": "address"
        }
      ],
      "stateMutability": "view",
      "type": "function"
    },
    {
      "inputs": [],
      "name": "renounceOwnership",
      "outputs": [],
      "stateMutability": "nonpayable",
      "type": "function"
    },
    {
      "inputs": [
        {
          "internalType": "address",
          "name": "from",
          "type": "address"
        },
        {
          "internalType": "address",
          "name": "to",
          "type": "address"
        },
        {
          "internalType": "uint256[]",
          "name": "ids",
          "type": "uint256[]"
        },
        {
          "internalType": "uint256[]",
          "name": "amounts",
          "type": "uint256[]"
        },
        {
          "internalType": "bytes",
          "name": "data",
          "type": "bytes"
        }
      ],
      "name": "safeBatchTransferFrom",
      "outputs": [],
      "stateMutability": "nonpayable",
      "type": "function"
    },
    {
      "inputs": [
        {
          "internalType": "address",
          "name": "from",
          "type": "address"
        },
        {
          "internalType": "address",
          "name": "to",
          "type": "address"
        },
        {
          "internalType": "uint256",
          "name": "id",
          "type": "uint256"
        },
        {
          "internalType": "uint256",
          "name": "amount",
          "type": "uint256"
        },
        {
          "internalType": "bytes",
          "name": "data",
          "type": "bytes"
        }
      ],
      "name": "safeTransferFrom",
      "outputs": [],
      "stateMutability": "nonpayable",
      "type": "function"
    },
    {
      "inputs": [
        {
          "internalType": "address",
          "name": "operator",
          "type": "address"
        },
        {
          "internalType": "bool",
          "name": "approved",
          "type": "bool"
        }
      ],
      "name": "setApprovalForAll",
      "outputs": [],
      "stateMutability": "nonpayable",
      "type": "function"
    },
    {
      "inputs": [
        {
          "internalType": "bytes4",
          "name": "interfaceId",
          "type": "bytes4"
        }
      ],
      "name": "supportsInterface",
      "outputs": [
        {
          "internalType": "bool",
          "name": "",
          "type": "bool"
        }
      ],
      "stateMutability": "view",
      "type": "function"
    },
    {
      "inputs": [
        {
          "internalType": "address",
          "name": "_from",
          "type": "address"
        },
        {
          "internalType": "address",
          "name": "_receiver",
          "type": "address"
        },
        {
          "internalType": "uint256",
          "name": "_tokenId",
          "type": "uint256"
        },
        {
          "internalType": "uint256",
          "name": "_amount",
          "type": "uint256"
        }
      ],
      "name": "transferFrom",
      "outputs": [],
      "stateMutability": "nonpayable",
      "type": "function"
    },
    {
      "inputs": [
        {
          "internalType": "address",
          "name": "newOwner",
          "type": "address"
        }
      ],
      "name": "transferOwnership",
      "outputs": [],
      "stateMutability": "nonpayable",
      "type": "function"
    },
    {
      "inputs": [
        {
          "internalType": "uint256",
          "name": "",
          "type": "uint256"
        }
      ],
      "name": "uri",
      "outputs": [
        {
          "internalType": "string",
          "name": "",
          "type": "string"
        }
      ],
      "stateMutability": "view",
      "type": "function"
    }
  ],
  "bytecode": "0x60806040523480156200001157600080fd5b506040516200226e3803806200226e833981016040819052620000349162000165565b80620000408162000054565b506200004c826200006d565b5050620002b1565b805162000069906002906020840190620000bf565b5050565b600380546001600160a01b038381166001600160a01b0319831681179093556040519116919082907f0d18b5fd22306e373229b9439188228edca81207d1667f604daf6cef8aa3ee6790600090a35050565b828054620000cd906200025e565b90600052602060002090601f016020900481019282620000f157600085556200013c565b82601f106200010c57805160ff19168380011785556200013c565b828001600101855582156200013c579182015b828111156200013c5782518255916020019190600101906200011f565b506200014a9291506200014e565b5090565b5b808211156200014a57600081556001016200014f565b6000806040838503121562000178578182fd5b82516001600160a01b03811681146200018f578283fd5b602084810151919350906001600160401b0380821115620001ae578384fd5b818601915086601f830112620001c2578384fd5b815181811115620001d757620001d76200029b565b604051601f8201601f19908116603f011681019083821181831017156200020257620002026200029b565b8160405282815289868487010111156200021a578687fd5b8693505b828410156200023d57848401860151818501870152928501926200021e565b828411156200024e57868684830101525b8096505050505050509250929050565b600181811c908216806200027357607f821691505b602082108114156200029557634e487b7160e01b600052602260045260246000fd5b50919050565b634e487b7160e01b600052604160045260246000fd5b611fad80620002c16000396000f3fe608060405234801561001057600080fd5b50600436106101155760003560e01c80638a842e5e116100a2578063e985e9c511610071578063e985e9c514610260578063f242432a1461029c578063f2fde38b146102af578063f5298aca146102c2578063fe99049a146102d557600080fd5b80638a842e5e146101f95780638ad913451461021f5780638da5cb5b14610232578063a22cb4651461024d57600080fd5b80634e1273f4116100e95780634e1273f4146101985780636b20c454146101b85780636fcecc4b146101cb578063715018a6146101de578063731133e9146101e657600080fd5b8062fdd58e1461011a57806301ffc9a7146101405780630e89341c146101635780632eb2c2d614610183575b600080fd5b61012d6101283660046117f0565b6102e8565b6040519081526020015b60405180910390f35b61015361014e366004611975565b61037f565b6040519015158152602001610137565b6101766101713660046119ad565b6103d1565b6040516101379190611b7c565b6101966101913660046115fb565b610465565b005b6101ab6101a63660046118aa565b6104fc565b6040516101379190611b3b565b6101966101c6366004611745565b61065e565b6101966101d93660046119c5565b6106a6565b6101966107d2565b6101966101f436600461184b565b610808565b6101536102073660046119ad565b60009081526004602052604090206002015460ff1690565b61017661022d3660046119ad565b610873565b6003546040516001600160a01b039091168152602001610137565b61019661025b3660046117b6565b610893565b61015361026e3660046115c9565b6001600160a01b03918216600090815260016020908152604080832093909416825291909152205460ff1690565b6101966102aa3660046116e2565b61096a565b6101966102bd3660046115af565b6109af565b6101966102d0366004611819565b610a4a565b6101966102e33660046116a1565b610a8d565b60006001600160a01b0383166103595760405162461bcd60e51b815260206004820152602b60248201527f455243313135353a2062616c616e636520717565727920666f7220746865207a60448201526a65726f206164647265737360a81b60648201526084015b60405180910390fd5b506000908152602081815260408083206001600160a01b03949094168352929052205490565b60006001600160e01b03198216636cdb3d1360e11b14806103b057506001600160e01b031982166303a24d0760e21b145b806103cb57506301ffc9a760e01b6001600160e01b03198316145b92915050565b6060600280546103e090611e10565b80601f016020809104026020016040519081016040528092919081815260200182805461040c90611e10565b80156104595780601f1061042e57610100808354040283529160200191610459565b820191906000526020600020905b81548152906001019060200180831161043c57829003601f168201915b50505050509050919050565b6001600160a01b0385163314806104815750610481853361026e565b6104e85760405162461bcd60e51b815260206004820152603260248201527f455243313135353a207472616e736665722063616c6c6572206973206e6f74206044820152711bdddb995c881b9bdc88185c1c1c9bdd995960721b6064820152608401610350565b6104f58585858585610aa9565b5050505050565b606081518351146105615760405162461bcd60e51b815260206004820152602960248201527f455243313135353a206163636f756e747320616e6420696473206c656e677468604482015268040dad2e6dac2e8c6d60bb1b6064820152608401610350565b6000835167ffffffffffffffff81111561058b57634e487b7160e01b600052604160045260246000fd5b6040519080825280602002602001820160405280156105b4578160200160208202803683370190505b50905060005b84518110156106565761061b8582815181106105e657634e487b7160e01b600052603260045260246000fd5b602002602001015185838151811061060e57634e487b7160e01b600052603260045260246000fd5b60200260200101516102e8565b82828151811061063b57634e487b7160e01b600052603260045260246000fd5b602090810291909101015261064f81611e78565b90506105ba565b509392505050565b6001600160a01b03831633148061067a575061067a833361026e565b6106965760405162461bcd60e51b815260040161035090611c1b565b6106a1838383610c61565b505050565b6003546001600160a01b031633146106d05760405162461bcd60e51b815260040161035090611d36565b60008281526004602052604090206002015460ff16156107325760405162461bcd60e51b815260206004820152601a60248201527f546f6b656e205479706520616c726561647920637265617465640000000000006044820152606401610350565b60408051606081018252838152602080820184815260018385018190526000878152600484529490942083518155905180519394919361077a93928501929190910190611402565b50604091820151600291909101805460ff1916911515919091179055517fb30844b47136a66c1307afd352145423a1c237692b6ba474578f06f4614b35a0906107c69084908490611db3565b60405180910390a15050565b6003546001600160a01b031633146107fc5760405162461bcd60e51b815260040161035090611d36565b6108066000610df9565b565b60008381526004602052604090206002015460ff166108615760405162461bcd60e51b8152602060048201526015602482015274546f6b656e206973206e6f74206d696e7461626c6560581b6044820152606401610350565b61086d84848484610e4b565b50505050565b60008181526004602052604090206001018054606091906103e090611e10565b336001600160a01b03831614156108fe5760405162461bcd60e51b815260206004820152602960248201527f455243313135353a2073657474696e6720617070726f76616c20737461747573604482015268103337b91039b2b63360b91b6064820152608401610350565b3360008181526001602090815260408083206001600160a01b03871680855290835292819020805460ff191686151590811790915590519081529192917f17307eab39ab6107e8899845ad3d59bd9653f200f220920489ca2b5937696c31910160405180910390a35050565b6001600160a01b0385163314806109865750610986853361026e565b6109a25760405162461bcd60e51b815260040161035090611c1b565b6104f58585858585610f55565b6003546001600160a01b031633146109d95760405162461bcd60e51b815260040161035090611d36565b6001600160a01b038116610a3e5760405162461bcd60e51b815260206004820152602660248201527f4f776e61626c653a206e6577206f776e657220697320746865207a65726f206160448201526564647265737360d01b6064820152608401610350565b610a4781610df9565b50565b6001600160a01b038316331480610a665750610a66833361026e565b610a825760405162461bcd60e51b815260040161035090611c1b565b6106a1838383611072565b61086d8484848460405180602001604052806000815250610f55565b8151835114610aca5760405162461bcd60e51b815260040161035090611d6b565b6001600160a01b038416610af05760405162461bcd60e51b815260040161035090611c64565b3360005b8451811015610bf3576000858281518110610b1f57634e487b7160e01b600052603260045260246000fd5b602002602001015190506000858381518110610b4b57634e487b7160e01b600052603260045260246000fd5b602090810291909101810151600084815280835260408082206001600160a01b038e168352909352919091205490915081811015610b9b5760405162461bcd60e51b815260040161035090611cec565b6000838152602081815260408083206001600160a01b038e8116855292528083208585039055908b16825281208054849290610bd8908490611df8565b9250508190555050505080610bec90611e78565b9050610af4565b50846001600160a01b0316866001600160a01b0316826001600160a01b03167f4a39dc06d4c0dbc64b70af90fd698a233a518aa5d07e595d983b8c0526c8f7fb8787604051610c43929190611b4e565b60405180910390a4610c59818787878787611174565b505050505050565b6001600160a01b038316610c875760405162461bcd60e51b815260040161035090611ca9565b8051825114610ca85760405162461bcd60e51b815260040161035090611d6b565b604080516020810190915260009081905233905b8351811015610d9a576000848281518110610ce757634e487b7160e01b600052603260045260246000fd5b602002602001015190506000848381518110610d1357634e487b7160e01b600052603260045260246000fd5b602090810291909101810151600084815280835260408082206001600160a01b038c168352909352919091205490915081811015610d635760405162461bcd60e51b815260040161035090611bd7565b6000928352602083815260408085206001600160a01b038b1686529091529092209103905580610d9281611e78565b915050610cbc565b5060006001600160a01b0316846001600160a01b0316826001600160a01b03167f4a39dc06d4c0dbc64b70af90fd698a233a518aa5d07e595d983b8c0526c8f7fb8686604051610deb929190611b4e565b60405180910390a450505050565b600380546001600160a01b038381166001600160a01b0319831681179093556040519116919082907f0d18b5fd22306e373229b9439188228edca81207d1667f604daf6cef8aa3ee6790600090a35050565b6001600160a01b038416610eab5760405162461bcd60e51b815260206004820152602160248201527f455243313135353a206d696e7420746f20746865207a65726f206164647265736044820152607360f81b6064820152608401610350565b33610ec581600087610ebc886112df565b6104f5886112df565b6000848152602081815260408083206001600160a01b038916845290915281208054859290610ef5908490611df8565b909155505060408051858152602081018590526001600160a01b0380881692600092918516917fc3d58168c5ae7397731d063d5bbf3d657854427343f4c083240f7aacaa2d0f62910160405180910390a46104f581600087878787611338565b6001600160a01b038416610f7b5760405162461bcd60e51b815260040161035090611c64565b33610f8b818787610ebc886112df565b6000848152602081815260408083206001600160a01b038a16845290915290205483811015610fcc5760405162461bcd60e51b815260040161035090611cec565b6000858152602081815260408083206001600160a01b038b8116855292528083208785039055908816825281208054869290611009908490611df8565b909155505060408051868152602081018690526001600160a01b03808916928a821692918616917fc3d58168c5ae7397731d063d5bbf3d657854427343f4c083240f7aacaa2d0f62910160405180910390a4611069828888888888611338565b50505050505050565b6001600160a01b0383166110985760405162461bcd60e51b815260040161035090611ca9565b336110c8818560006110a9876112df565b6110b2876112df565b5050604080516020810190915260009052505050565b6000838152602081815260408083206001600160a01b0388168452909152902054828110156111095760405162461bcd60e51b815260040161035090611bd7565b6000848152602081815260408083206001600160a01b03898116808652918452828520888703905582518981529384018890529092908616917fc3d58168c5ae7397731d063d5bbf3d657854427343f4c083240f7aacaa2d0f62910160405180910390a45050505050565b6001600160a01b0384163b15610c595760405163bc197c8160e01b81526001600160a01b0385169063bc197c81906111b89089908990889088908890600401611a98565b602060405180830381600087803b1580156111d257600080fd5b505af1925050508015611202575060408051601f3d908101601f191682019092526111ff91810190611991565b60015b6112af5761120e611ebf565b806308c379a014156112485750611223611ed7565b8061122e575061124a565b8060405162461bcd60e51b81526004016103509190611b7c565b505b60405162461bcd60e51b815260206004820152603460248201527f455243313135353a207472616e7366657220746f206e6f6e20455243313135356044820152732932b1b2b4bb32b91034b6b83632b6b2b73a32b960611b6064820152608401610350565b6001600160e01b0319811663bc197c8160e01b146110695760405162461bcd60e51b815260040161035090611b8f565b6040805160018082528183019092526060916000919060208083019080368337019050509050828160008151811061132757634e487b7160e01b600052603260045260246000fd5b602090810291909101015292915050565b6001600160a01b0384163b15610c595760405163f23a6e6160e01b81526001600160a01b0385169063f23a6e619061137c9089908990889088908890600401611af6565b602060405180830381600087803b15801561139657600080fd5b505af19250505080156113c6575060408051601f3d908101601f191682019092526113c391810190611991565b60015b6113d25761120e611ebf565b6001600160e01b0319811663f23a6e6160e01b146110695760405162461bcd60e51b815260040161035090611b8f565b82805461140e90611e10565b90600052602060002090601f0160209004810192826114305760008555611476565b82601f1061144957805160ff1916838001178555611476565b82800160010185558215611476579182015b8281111561147657825182559160200191906001019061145b565b50611482929150611486565b5090565b5b808211156114825760008155600101611487565b600067ffffffffffffffff8311156114b5576114b5611ea9565b6040516114cc601f8501601f191660200182611e4b565b8091508381528484840111156114e157600080fd5b83836020830137600060208583010152509392505050565b80356001600160a01b038116811461151057600080fd5b919050565b600082601f830112611525578081fd5b8135602061153282611dd4565b60405161153f8282611e4b565b8381528281019150858301600585901b8701840188101561155e578586fd5b855b8581101561157c57813584529284019290840190600101611560565b5090979650505050505050565b600082601f830112611599578081fd5b6115a88383356020850161149b565b9392505050565b6000602082840312156115c0578081fd5b6115a8826114f9565b600080604083850312156115db578081fd5b6115e4836114f9565b91506115f2602084016114f9565b90509250929050565b600080600080600060a08688031215611612578081fd5b61161b866114f9565b9450611629602087016114f9565b9350604086013567ffffffffffffffff80821115611645578283fd5b61165189838a01611515565b94506060880135915080821115611666578283fd5b61167289838a01611515565b93506080880135915080821115611687578283fd5b5061169488828901611589565b9150509295509295909350565b600080600080608085870312156116b6578384fd5b6116bf856114f9565b93506116cd602086016114f9565b93969395505050506040820135916060013590565b600080600080600060a086880312156116f9578081fd5b611702866114f9565b9450611710602087016114f9565b93506040860135925060608601359150608086013567ffffffffffffffff811115611739578182fd5b61169488828901611589565b600080600060608486031215611759578283fd5b611762846114f9565b9250602084013567ffffffffffffffff8082111561177e578384fd5b61178a87838801611515565b9350604086013591508082111561179f578283fd5b506117ac86828701611515565b9150509250925092565b600080604083850312156117c8578182fd5b6117d1836114f9565b9150602083013580151581146117e5578182fd5b809150509250929050565b60008060408385031215611802578182fd5b61180b836114f9565b946020939093013593505050565b60008060006060848603121561182d578081fd5b611836846114f9565b95602085013595506040909401359392505050565b60008060008060808587031215611860578182fd5b611869856114f9565b93506020850135925060408501359150606085013567ffffffffffffffff811115611892578182fd5b61189e87828801611589565b91505092959194509250565b600080604083850312156118bc578182fd5b823567ffffffffffffffff808211156118d3578384fd5b818501915085601f8301126118e6578384fd5b813560206118f382611dd4565b6040516119008282611e4b565b8381528281019150858301600585901b870184018b101561191f578889fd5b8896505b8487101561194857611934816114f9565b835260019690960195918301918301611923565b509650508601359250508082111561195e578283fd5b5061196b85828601611515565b9150509250929050565b600060208284031215611986578081fd5b81356115a881611f61565b6000602082840312156119a2578081fd5b81516115a881611f61565b6000602082840312156119be578081fd5b5035919050565b600080604083850312156119d7578182fd5b82359150602083013567ffffffffffffffff8111156119f4578182fd5b8301601f81018513611a04578182fd5b61196b8582356020840161149b565b6000815180845260208085019450808401835b83811015611a4257815187529582019590820190600101611a26565b509495945050505050565b60008151808452815b81811015611a7257602081850181015186830182015201611a56565b81811115611a835782602083870101525b50601f01601f19169290920160200192915050565b6001600160a01b0386811682528516602082015260a060408201819052600090611ac490830186611a13565b8281036060840152611ad68186611a13565b90508281036080840152611aea8185611a4d565b98975050505050505050565b6001600160a01b03868116825285166020820152604081018490526060810183905260a060808201819052600090611b3090830184611a4d565b979650505050505050565b6020815260006115a86020830184611a13565b604081526000611b616040830185611a13565b8281036020840152611b738185611a13565b95945050505050565b6020815260006115a86020830184611a4d565b60208082526028908201527f455243313135353a204552433131353552656365697665722072656a656374656040820152676420746f6b656e7360c01b606082015260800190565b60208082526024908201527f455243313135353a206275726e20616d6f756e7420657863656564732062616c604082015263616e636560e01b606082015260800190565b60208082526029908201527f455243313135353a2063616c6c6572206973206e6f74206f776e6572206e6f7260408201526808185c1c1c9bdd995960ba1b606082015260800190565b60208082526025908201527f455243313135353a207472616e7366657220746f20746865207a65726f206164604082015264647265737360d81b606082015260800190565b60208082526023908201527f455243313135353a206275726e2066726f6d20746865207a65726f206164647260408201526265737360e81b606082015260800190565b6020808252602a908201527f455243313135353a20696e73756666696369656e742062616c616e636520666f60408201526939103a3930b739b332b960b11b606082015260800190565b6020808252818101527f4f776e61626c653a2063616c6c6572206973206e6f7420746865206f776e6572604082015260600190565b60208082526028908201527f455243313135353a2069647320616e6420616d6f756e7473206c656e677468206040820152670dad2e6dac2e8c6d60c31b606082015260800190565b828152604060208201526000611dcc6040830184611a4d565b949350505050565b600067ffffffffffffffff821115611dee57611dee611ea9565b5060051b60200190565b60008219821115611e0b57611e0b611e93565b500190565b600181811c90821680611e2457607f821691505b60208210811415611e4557634e487b7160e01b600052602260045260246000fd5b50919050565b601f8201601f1916810167ffffffffffffffff81118282101715611e7157611e71611ea9565b6040525050565b6000600019821415611e8c57611e8c611e93565b5060010190565b634e487b7160e01b600052601160045260246000fd5b634e487b7160e01b600052604160045260246000fd5b600060033d1115611ed457600481823e5160e01c5b90565b600060443d1015611ee55790565b6040516003193d81016004833e81513d67ffffffffffffffff8160248401118184111715611f1557505050505090565b8285019150815181811115611f2d5750505050505090565b843d8701016020828501011115611f475750505050505090565b611f5660208286010187611e4b565b509095945050505050565b6001600160e01b031981168114610a4757600080fdfea264697066735822122085e1699dd6566cd9e974c760d50997d1ced2a5e9049a8076fcece887f0f0542564736f6c63430008040033",
  "linkReferences": {},
  "deployedLinkReferences": {}
}