{
  "contractName": "AlbumManager",
  "abi": [
    {
      "anonymous": false,
      "inputs": [
        {
          "indexed": true,
          "internalType": "address",
          "name": "previousOwner",
          "type": "address"
        },
        {
          "indexed": true,
          "internalType": "address",
          "name": "newOwner",
          "type": "address"
        }
      ],
      "name": "OwnershipTransferred",
      "type": "event"
    },
    {
      "inputs": [],
      "name": "owner",
      "outputs": [
        {
          "internalType": "address",
          "name": "",
          "type": "address"
        }
      ],
      "stateMutability": "view",
      "type": "function"
    },
    {
      "inputs": [],
      "name": "renounceOwnership",
      "outputs": [],
      "stateMutability": "nonpayable",
      "type": "function"
    },
    {
      "inputs": [
        {
          "internalType": "address",
          "name": "newOwner",
          "type": "address"
        }
      ],
      "name": "transferOwnership",
      "outputs": [],
      "stateMutability": "nonpayable",
      "type": "function"
    },
    {
      "inputs": [],
      "name": "mintAlbum",
      "outputs": [],
      "stateMutability": "nonpayable",
      "type": "function"
    },
    {
      "inputs": [
        {
          "internalType": "address",
          "name": "_album",
          "type": "address"
        },
        {
          "internalType": "uint256",
          "name": "_id",
          "type": "uint256"
        },
        {
          "internalType": "uint256",
          "name": "_amount",
          "type": "uint256"
        }
      ],
      "name": "mintMedia",
      "outputs": [],
      "stateMutability": "nonpayable",
      "type": "function"
    },
    {
      "inputs": [
        {
          "internalType": "address",
          "name": "_album",
          "type": "address"
        },
        {
          "internalType": "uint256",
          "name": "_id",
          "type": "uint256"
        }
      ],
      "name": "mintMedia",
      "outputs": [],
      "stateMutability": "nonpayable",
      "type": "function"
    }
  ],
  "bytecode": "0x608060405234801561001057600080fd5b5061002d61002261003260201b60201c565b61003a60201b60201c565b6100fe565b600033905090565b60008060009054906101000a900473ffffffffffffffffffffffffffffffffffffffff169050816000806101000a81548173ffffffffffffffffffffffffffffffffffffffff021916908373ffffffffffffffffffffffffffffffffffffffff1602179055508173ffffffffffffffffffffffffffffffffffffffff168173ffffffffffffffffffffffffffffffffffffffff167f8be0079c531659141344cd1fd0a4f28419497f9722a3daafe3b4186f6b6457e060405160405180910390a35050565b6106358061010d6000396000f3fe608060405234801561001057600080fd5b50600436106100625760003560e01c8063715018a6146100675780638da5cb5b14610071578063a5c525a41461008f578063d08ddfcd14610099578063f0d5ad51146100b5578063f2fde38b146100d1575b600080fd5b61006f6100ed565b005b610079610175565b60405161008691906103ae565b60405180910390f35b61009761019e565b005b6100b360048036038101906100ae9190610430565b6101a0565b005b6100cf60048036038101906100ca9190610483565b6101a5565b005b6100eb60048036038101906100e691906104c3565b6101a9565b005b6100f56102a1565b73ffffffffffffffffffffffffffffffffffffffff16610113610175565b73ffffffffffffffffffffffffffffffffffffffff1614610169576040517f08c379a00000000000000000000000000000000000000000000000000000000081526004016101609061054d565b60405180910390fd5b61017360006102a9565b565b60008060009054906101000a900473ffffffffffffffffffffffffffffffffffffffff16905090565b565b505050565b5050565b6101b16102a1565b73ffffffffffffffffffffffffffffffffffffffff166101cf610175565b73ffffffffffffffffffffffffffffffffffffffff1614610225576040517f08c379a000000000000000000000000000000000000000000000000000000000815260040161021c9061054d565b60405180910390fd5b600073ffffffffffffffffffffffffffffffffffffffff168173ffffffffffffffffffffffffffffffffffffffff161415610295576040517f08c379a000000000000000000000000000000000000000000000000000000000815260040161028c906105df565b60405180910390fd5b61029e816102a9565b50565b600033905090565b60008060009054906101000a900473ffffffffffffffffffffffffffffffffffffffff169050816000806101000a81548173ffffffffffffffffffffffffffffffffffffffff021916908373ffffffffffffffffffffffffffffffffffffffff1602179055508173ffffffffffffffffffffffffffffffffffffffff168173ffffffffffffffffffffffffffffffffffffffff167f8be0079c531659141344cd1fd0a4f28419497f9722a3daafe3b4186f6b6457e060405160405180910390a35050565b600073ffffffffffffffffffffffffffffffffffffffff82169050919050565b60006103988261036d565b9050919050565b6103a88161038d565b82525050565b60006020820190506103c3600083018461039f565b92915050565b600080fd5b6103d78161038d565b81146103e257600080fd5b50565b6000813590506103f4816103ce565b92915050565b6000819050919050565b61040d816103fa565b811461041857600080fd5b50565b60008135905061042a81610404565b92915050565b600080600060608486031215610449576104486103c9565b5b6000610457868287016103e5565b93505060206104688682870161041b565b92505060406104798682870161041b565b9150509250925092565b6000806040838503121561049a576104996103c9565b5b60006104a8858286016103e5565b92505060206104b98582860161041b565b9150509250929050565b6000602082840312156104d9576104d86103c9565b5b60006104e7848285016103e5565b91505092915050565b600082825260208201905092915050565b7f4f776e61626c653a2063616c6c6572206973206e6f7420746865206f776e6572600082015250565b60006105376020836104f0565b915061054282610501565b602082019050919050565b600060208201905081810360008301526105668161052a565b9050919050565b7f4f776e61626c653a206e6577206f776e657220697320746865207a65726f206160008201527f6464726573730000000000000000000000000000000000000000000000000000602082015250565b60006105c96026836104f0565b91506105d48261056d565b604082019050919050565b600060208201905081810360008301526105f8816105bc565b905091905056fea26469706673582212205d199487f0cc28888a8c2fd8a29abb2b5d94f2d415eea5e6f26c16365c3639e464736f6c63430008090033",
  "immutableReferences": {},
  "source": "// SPDX-License-Identifier: MIT\npragma solidity ^0.8.0;\n\nimport \"@openzeppelin/contracts/access/Ownable.sol\";\n\n//// @title Media Album\n//// @notice Create and manage albums as NFT, so users can take musics together in separeted NFT contracts.\n//// @dev Could have many related NFTs as necessary, once music tracks are part of a common album.\n//// Example:\n//// Album:  Frank SiNFTra        (NFT Contract)\n//// Track1: Fly me to the NFT    (NFT), Id (0)\n//// Track2: New NFT, New NFT     (NFT), Id (1)\n//// Track3: Strangers In The NFT (NFT), Id (3)\ncontract AlbumManager is Ownable {\n\n    //// @notice Prevent not media owner creation \n    modifier onlyMediaOwner() {\n        // TODO put here a require to skip not media owner\n        _;\n    }\n\n    //// @notice Creates a new album as NFT contract.\n    function mintAlbum() public {\n        // TODO deploy a new MusichainNFTTemplate to represent the album\n    }\n\n    //// @notice Add media to existence album once at a time.\n    //// @param _album The album address\n    //// @param _id NFT id\n    function mintMedia(address _album, uint256 _id) public onlyMediaOwner {\n        // TODO mint a NFT to existence album\n    }\n\n    //// @notice Add media to existence album, many as needed.\n    //// @param _album The album address\n    //// @param _id NFT id\n    //// @param _amount How many NFTs will be minted\n    function mintMedia(address _album, uint256 _id, uint256 _amount) public onlyMediaOwner {\n        // TODO mint some NFT to existence album\n    }\n}\n",
  "sourcePath": "/home/erion/dev/consensys/blockchain-developer-bootcamp-final-project/contracts/nft/AlbumManager.sol",
  "compiler": {
    "name": "solc",
    "version": "0.8.9+commit.e5eed63a.Emscripten.clang"
  },
  "schemaVersion": "3.4.3",
  "updatedAt": "2021-10-19T13:09:51.902Z",
  "devdoc": {
    "kind": "dev",
    "methods": {
      "owner()": {
        "details": "Returns the address of the current owner."
      },
      "renounceOwnership()": {
        "details": "Leaves the contract without owner. It will not be possible to call `onlyOwner` functions anymore. Can only be called by the current owner. NOTE: Renouncing ownership will leave the contract without an owner, thereby removing any functionality that is only available to the owner."
      },
      "transferOwnership(address)": {
        "details": "Transfers ownership of the contract to a new account (`newOwner`). Can only be called by the current owner."
      }
    },
    "version": 1
  },
  "userdoc": {
    "kind": "user",
    "methods": {},
    "version": 1
  }
}