{
  "contractName": "Marketplace",
  "abi": [
    {
      "anonymous": false,
      "inputs": [
        {
          "indexed": true,
          "internalType": "address",
          "name": "previousOwner",
          "type": "address"
        },
        {
          "indexed": true,
          "internalType": "address",
          "name": "newOwner",
          "type": "address"
        }
      ],
      "name": "OwnershipTransferred",
      "type": "event"
    },
    {
      "inputs": [],
      "name": "owner",
      "outputs": [
        {
          "internalType": "address",
          "name": "",
          "type": "address"
        }
      ],
      "stateMutability": "view",
      "type": "function"
    },
    {
      "inputs": [],
      "name": "renounceOwnership",
      "outputs": [],
      "stateMutability": "nonpayable",
      "type": "function"
    },
    {
      "inputs": [
        {
          "internalType": "address",
          "name": "newOwner",
          "type": "address"
        }
      ],
      "name": "transferOwnership",
      "outputs": [],
      "stateMutability": "nonpayable",
      "type": "function"
    },
    {
      "stateMutability": "payable",
      "type": "receive"
    },
    {
      "inputs": [
        {
          "internalType": "uint256",
          "name": "_id",
          "type": "uint256"
        },
        {
          "internalType": "uint256",
          "name": "_amount",
          "type": "uint256"
        },
        {
          "internalType": "uint256",
          "name": "_unitPrice",
          "type": "uint256"
        }
      ],
      "name": "createMedia",
      "outputs": [],
      "stateMutability": "nonpayable",
      "type": "function"
    },
    {
      "inputs": [
        {
          "internalType": "uint256",
          "name": "_id",
          "type": "uint256"
        },
        {
          "internalType": "uint256",
          "name": "_amount",
          "type": "uint256"
        }
      ],
      "name": "buyMedia",
      "outputs": [],
      "stateMutability": "payable",
      "type": "function"
    }
  ],
  "bytecode": "0x608060405234801561001057600080fd5b5061002d61002261003260201b60201c565b61003a60201b60201c565b6100fe565b600033905090565b60008060009054906101000a900473ffffffffffffffffffffffffffffffffffffffff169050816000806101000a81548173ffffffffffffffffffffffffffffffffffffffff021916908373ffffffffffffffffffffffffffffffffffffffff1602179055508173ffffffffffffffffffffffffffffffffffffffff168173ffffffffffffffffffffffffffffffffffffffff167f8be0079c531659141344cd1fd0a4f28419497f9722a3daafe3b4186f6b6457e060405160405180910390a35050565b6107978061010d6000396000f3fe60806040526004361061004e5760003560e01c8063715018a6146100935780638da5cb5b146100aa578063acbf6a40146100d5578063f09384d9146100f1578063f2fde38b1461011a5761008e565b3661008e576040517f08c379a0000000000000000000000000000000000000000000000000000000008152600401610085906104c0565b60405180910390fd5b600080fd5b34801561009f57600080fd5b506100a8610143565b005b3480156100b657600080fd5b506100bf6101cb565b6040516100cc9190610521565b60405180910390f35b6100ef60048036038101906100ea9190610577565b6101f4565b005b3480156100fd57600080fd5b50610118600480360381019061011391906105b7565b6101f8565b005b34801561012657600080fd5b50610141600480360381019061013c9190610636565b610279565b005b61014b610371565b73ffffffffffffffffffffffffffffffffffffffff166101696101cb565b73ffffffffffffffffffffffffffffffffffffffff16146101bf576040517f08c379a00000000000000000000000000000000000000000000000000000000081526004016101b6906106af565b60405180910390fd5b6101c96000610379565b565b60008060009054906101000a900473ffffffffffffffffffffffffffffffffffffffff16905090565b5050565b610200610371565b73ffffffffffffffffffffffffffffffffffffffff1661021e6101cb565b73ffffffffffffffffffffffffffffffffffffffff1614610274576040517f08c379a000000000000000000000000000000000000000000000000000000000815260040161026b906106af565b60405180910390fd5b505050565b610281610371565b73ffffffffffffffffffffffffffffffffffffffff1661029f6101cb565b73ffffffffffffffffffffffffffffffffffffffff16146102f5576040517f08c379a00000000000000000000000000000000000000000000000000000000081526004016102ec906106af565b60405180910390fd5b600073ffffffffffffffffffffffffffffffffffffffff168173ffffffffffffffffffffffffffffffffffffffff161415610365576040517f08c379a000000000000000000000000000000000000000000000000000000000815260040161035c90610741565b60405180910390fd5b61036e81610379565b50565b600033905090565b60008060009054906101000a900473ffffffffffffffffffffffffffffffffffffffff169050816000806101000a81548173ffffffffffffffffffffffffffffffffffffffff021916908373ffffffffffffffffffffffffffffffffffffffff1602179055508173ffffffffffffffffffffffffffffffffffffffff168173ffffffffffffffffffffffffffffffffffffffff167f8be0079c531659141344cd1fd0a4f28419497f9722a3daafe3b4186f6b6457e060405160405180910390a35050565b600082825260208201905092915050565b7f4e6f2065746865722063616e2073656e742064697265636c747920746f20746860008201527f697320636f6e7472616374000000000000000000000000000000000000000000602082015250565b60006104aa602b8361043d565b91506104b58261044e565b604082019050919050565b600060208201905081810360008301526104d98161049d565b9050919050565b600073ffffffffffffffffffffffffffffffffffffffff82169050919050565b600061050b826104e0565b9050919050565b61051b81610500565b82525050565b60006020820190506105366000830184610512565b92915050565b600080fd5b6000819050919050565b61055481610541565b811461055f57600080fd5b50565b6000813590506105718161054b565b92915050565b6000806040838503121561058e5761058d61053c565b5b600061059c85828601610562565b92505060206105ad85828601610562565b9150509250929050565b6000806000606084860312156105d0576105cf61053c565b5b60006105de86828701610562565b93505060206105ef86828701610562565b925050604061060086828701610562565b9150509250925092565b61061381610500565b811461061e57600080fd5b50565b6000813590506106308161060a565b92915050565b60006020828403121561064c5761064b61053c565b5b600061065a84828501610621565b91505092915050565b7f4f776e61626c653a2063616c6c6572206973206e6f7420746865206f776e6572600082015250565b600061069960208361043d565b91506106a482610663565b602082019050919050565b600060208201905081810360008301526106c88161068c565b9050919050565b7f4f776e61626c653a206e6577206f776e657220697320746865207a65726f206160008201527f6464726573730000000000000000000000000000000000000000000000000000602082015250565b600061072b60268361043d565b9150610736826106cf565b604082019050919050565b6000602082019050818103600083015261075a8161071e565b905091905056fea26469706673582212208cbb708af7ce074a7494681f4d58ec589eb6f515b36bda5b0635ba2efeb0424564736f6c63430008090033",
  "immutableReferences": {},
  "source": "// SPDX-License-Identifier: MIT\npragma solidity ^0.8.0;\n\nimport \"@openzeppelin/contracts/access/Ownable.sol\";\n\n//// @title The Musichain NFT marketplace\n//// @notice Manage the marketplace for NFTs in the Musichain plataform\ncontract Marketplace is Ownable {\n\n    /**\n     * State variables\n     */\n    //// TODO keep track of the marketplace NFTs here\n\n    /**\n     * Modifiers\n     */\n    //// TODO Some modifiers will be needed, place them here\n\n    /**\n     * Functions\n     */\n    //// @notice Creates a new NFT as media to marketplace.\n    //// @param _id NFT id\n    //// @param _amount How many NFTs will be minted\n    //// @param _unitPrice How much is the NFT media\n    function createMedia(\n        uint256 _id,\n        uint256 _amount,\n        uint256 _unitPrice\n    ) public onlyOwner {\n        // TODO create a NFT as media here\n    }\n\n    //// @notice Sell a NFT media to the buyer.\n    //// @param _id NFT id\n    //// @param _amount How many NFTs will be minted\n    function buyMedia(uint256 _id, uint256 _amount) public payable {\n        // TODO create a NFT media seller here\n    }\n\n    receive() external payable {\n        // TODO evaluate with solidity patterns if this funcion make sense\n        revert(\"No ether can sent direclty to this contract\");\n    }\n}\n",
  "sourcePath": "/home/erion/dev/consensys/blockchain-developer-bootcamp-final-project/contracts/marketplace/Marketplace.sol",
  "compiler": {
    "name": "solc",
    "version": "0.8.9+commit.e5eed63a.Emscripten.clang"
  },
  "schemaVersion": "3.4.3",
  "updatedAt": "2021-10-19T13:09:51.900Z",
  "devdoc": {
    "kind": "dev",
    "methods": {
      "owner()": {
        "details": "Returns the address of the current owner."
      },
      "renounceOwnership()": {
        "details": "Leaves the contract without owner. It will not be possible to call `onlyOwner` functions anymore. Can only be called by the current owner. NOTE: Renouncing ownership will leave the contract without an owner, thereby removing any functionality that is only available to the owner."
      },
      "transferOwnership(address)": {
        "details": "Transfers ownership of the contract to a new account (`newOwner`). Can only be called by the current owner."
      }
    },
    "version": 1
  },
  "userdoc": {
    "kind": "user",
    "methods": {
      "createMedia(uint256,uint256,uint256)": {
        "notice": "Functions"
      }
    },
    "version": 1
  }
}