{
  "contractName": "MusichainNFT",
  "abi": [
    {
      "inputs": [
        {
          "internalType": "string",
          "name": "_baseUrl",
          "type": "string"
        }
      ],
      "stateMutability": "nonpayable",
      "type": "constructor"
    },
    {
      "anonymous": false,
      "inputs": [
        {
          "indexed": true,
          "internalType": "address",
          "name": "account",
          "type": "address"
        },
        {
          "indexed": true,
          "internalType": "address",
          "name": "operator",
          "type": "address"
        },
        {
          "indexed": false,
          "internalType": "bool",
          "name": "approved",
          "type": "bool"
        }
      ],
      "name": "ApprovalForAll",
      "type": "event"
    },
    {
      "anonymous": false,
      "inputs": [
        {
          "indexed": true,
          "internalType": "address",
          "name": "previousOwner",
          "type": "address"
        },
        {
          "indexed": true,
          "internalType": "address",
          "name": "newOwner",
          "type": "address"
        }
      ],
      "name": "OwnershipTransferred",
      "type": "event"
    },
    {
      "anonymous": false,
      "inputs": [
        {
          "indexed": true,
          "internalType": "address",
          "name": "operator",
          "type": "address"
        },
        {
          "indexed": true,
          "internalType": "address",
          "name": "from",
          "type": "address"
        },
        {
          "indexed": true,
          "internalType": "address",
          "name": "to",
          "type": "address"
        },
        {
          "indexed": false,
          "internalType": "uint256[]",
          "name": "ids",
          "type": "uint256[]"
        },
        {
          "indexed": false,
          "internalType": "uint256[]",
          "name": "values",
          "type": "uint256[]"
        }
      ],
      "name": "TransferBatch",
      "type": "event"
    },
    {
      "anonymous": false,
      "inputs": [
        {
          "indexed": true,
          "internalType": "address",
          "name": "operator",
          "type": "address"
        },
        {
          "indexed": true,
          "internalType": "address",
          "name": "from",
          "type": "address"
        },
        {
          "indexed": true,
          "internalType": "address",
          "name": "to",
          "type": "address"
        },
        {
          "indexed": false,
          "internalType": "uint256",
          "name": "id",
          "type": "uint256"
        },
        {
          "indexed": false,
          "internalType": "uint256",
          "name": "value",
          "type": "uint256"
        }
      ],
      "name": "TransferSingle",
      "type": "event"
    },
    {
      "anonymous": false,
      "inputs": [
        {
          "indexed": false,
          "internalType": "string",
          "name": "value",
          "type": "string"
        },
        {
          "indexed": true,
          "internalType": "uint256",
          "name": "id",
          "type": "uint256"
        }
      ],
      "name": "URI",
      "type": "event"
    },
    {
      "inputs": [
        {
          "internalType": "address",
          "name": "account",
          "type": "address"
        },
        {
          "internalType": "uint256",
          "name": "id",
          "type": "uint256"
        }
      ],
      "name": "balanceOf",
      "outputs": [
        {
          "internalType": "uint256",
          "name": "",
          "type": "uint256"
        }
      ],
      "stateMutability": "view",
      "type": "function"
    },
    {
      "inputs": [
        {
          "internalType": "address[]",
          "name": "accounts",
          "type": "address[]"
        },
        {
          "internalType": "uint256[]",
          "name": "ids",
          "type": "uint256[]"
        }
      ],
      "name": "balanceOfBatch",
      "outputs": [
        {
          "internalType": "uint256[]",
          "name": "",
          "type": "uint256[]"
        }
      ],
      "stateMutability": "view",
      "type": "function"
    },
    {
      "inputs": [
        {
          "internalType": "address",
          "name": "account",
          "type": "address"
        },
        {
          "internalType": "uint256",
          "name": "id",
          "type": "uint256"
        },
        {
          "internalType": "uint256",
          "name": "value",
          "type": "uint256"
        }
      ],
      "name": "burn",
      "outputs": [],
      "stateMutability": "nonpayable",
      "type": "function"
    },
    {
      "inputs": [
        {
          "internalType": "address",
          "name": "account",
          "type": "address"
        },
        {
          "internalType": "uint256[]",
          "name": "ids",
          "type": "uint256[]"
        },
        {
          "internalType": "uint256[]",
          "name": "values",
          "type": "uint256[]"
        }
      ],
      "name": "burnBatch",
      "outputs": [],
      "stateMutability": "nonpayable",
      "type": "function"
    },
    {
      "inputs": [
        {
          "internalType": "address",
          "name": "account",
          "type": "address"
        },
        {
          "internalType": "address",
          "name": "operator",
          "type": "address"
        }
      ],
      "name": "isApprovedForAll",
      "outputs": [
        {
          "internalType": "bool",
          "name": "",
          "type": "bool"
        }
      ],
      "stateMutability": "view",
      "type": "function"
    },
    {
      "inputs": [],
      "name": "owner",
      "outputs": [
        {
          "internalType": "address",
          "name": "",
          "type": "address"
        }
      ],
      "stateMutability": "view",
      "type": "function"
    },
    {
      "inputs": [],
      "name": "renounceOwnership",
      "outputs": [],
      "stateMutability": "nonpayable",
      "type": "function"
    },
    {
      "inputs": [
        {
          "internalType": "address",
          "name": "from",
          "type": "address"
        },
        {
          "internalType": "address",
          "name": "to",
          "type": "address"
        },
        {
          "internalType": "uint256[]",
          "name": "ids",
          "type": "uint256[]"
        },
        {
          "internalType": "uint256[]",
          "name": "amounts",
          "type": "uint256[]"
        },
        {
          "internalType": "bytes",
          "name": "data",
          "type": "bytes"
        }
      ],
      "name": "safeBatchTransferFrom",
      "outputs": [],
      "stateMutability": "nonpayable",
      "type": "function"
    },
    {
      "inputs": [
        {
          "internalType": "address",
          "name": "from",
          "type": "address"
        },
        {
          "internalType": "address",
          "name": "to",
          "type": "address"
        },
        {
          "internalType": "uint256",
          "name": "id",
          "type": "uint256"
        },
        {
          "internalType": "uint256",
          "name": "amount",
          "type": "uint256"
        },
        {
          "internalType": "bytes",
          "name": "data",
          "type": "bytes"
        }
      ],
      "name": "safeTransferFrom",
      "outputs": [],
      "stateMutability": "nonpayable",
      "type": "function"
    },
    {
      "inputs": [
        {
          "internalType": "address",
          "name": "operator",
          "type": "address"
        },
        {
          "internalType": "bool",
          "name": "approved",
          "type": "bool"
        }
      ],
      "name": "setApprovalForAll",
      "outputs": [],
      "stateMutability": "nonpayable",
      "type": "function"
    },
    {
      "inputs": [
        {
          "internalType": "bytes4",
          "name": "interfaceId",
          "type": "bytes4"
        }
      ],
      "name": "supportsInterface",
      "outputs": [
        {
          "internalType": "bool",
          "name": "",
          "type": "bool"
        }
      ],
      "stateMutability": "view",
      "type": "function"
    },
    {
      "inputs": [
        {
          "internalType": "address",
          "name": "newOwner",
          "type": "address"
        }
      ],
      "name": "transferOwnership",
      "outputs": [],
      "stateMutability": "nonpayable",
      "type": "function"
    },
    {
      "inputs": [
        {
          "internalType": "uint256",
          "name": "",
          "type": "uint256"
        }
      ],
      "name": "uri",
      "outputs": [
        {
          "internalType": "string",
          "name": "",
          "type": "string"
        }
      ],
      "stateMutability": "view",
      "type": "function"
    },
    {
      "inputs": [
        {
          "internalType": "string",
          "name": "newuri",
          "type": "string"
        }
      ],
      "name": "setURI",
      "outputs": [],
      "stateMutability": "nonpayable",
      "type": "function"
    },
    {
      "inputs": [
        {
          "internalType": "address",
          "name": "account",
          "type": "address"
        },
        {
          "internalType": "uint256",
          "name": "id",
          "type": "uint256"
        },
        {
          "internalType": "uint256",
          "name": "amount",
          "type": "uint256"
        },
        {
          "internalType": "bytes",
          "name": "data",
          "type": "bytes"
        }
      ],
      "name": "mint",
      "outputs": [],
      "stateMutability": "nonpayable",
      "type": "function"
    },
    {
      "inputs": [
        {
          "internalType": "address",
          "name": "to",
          "type": "address"
        },
        {
          "internalType": "uint256[]",
          "name": "ids",
          "type": "uint256[]"
        },
        {
          "internalType": "uint256[]",
          "name": "amounts",
          "type": "uint256[]"
        },
        {
          "internalType": "bytes",
          "name": "data",
          "type": "bytes"
        }
      ],
      "name": "mintBatch",
      "outputs": [],
      "stateMutability": "nonpayable",
      "type": "function"
    }
  ],
  "bytecode": "0x60806040523480156200001157600080fd5b5060405162003fe338038062003fe38339818101604052810190620000379190620003a8565b8062000049816200007160201b60201c565b506200006a6200005e6200008d60201b60201c565b6200009560201b60201c565b506200045e565b8060029080519060200190620000899291906200015b565b5050565b600033905090565b6000600360009054906101000a900473ffffffffffffffffffffffffffffffffffffffff16905081600360006101000a81548173ffffffffffffffffffffffffffffffffffffffff021916908373ffffffffffffffffffffffffffffffffffffffff1602179055508173ffffffffffffffffffffffffffffffffffffffff168173ffffffffffffffffffffffffffffffffffffffff167f8be0079c531659141344cd1fd0a4f28419497f9722a3daafe3b4186f6b6457e060405160405180910390a35050565b828054620001699062000428565b90600052602060002090601f0160209004810192826200018d5760008555620001d9565b82601f10620001a857805160ff1916838001178555620001d9565b82800160010185558215620001d9579182015b82811115620001d8578251825591602001919060010190620001bb565b5b509050620001e89190620001ec565b5090565b5b8082111562000207576000816000905550600101620001ed565b5090565b6000604051905090565b600080fd5b600080fd5b600080fd5b600080fd5b6000601f19601f8301169050919050565b7f4e487b7100000000000000000000000000000000000000000000000000000000600052604160045260246000fd5b620002748262000229565b810181811067ffffffffffffffff821117156200029657620002956200023a565b5b80604052505050565b6000620002ab6200020b565b9050620002b9828262000269565b919050565b600067ffffffffffffffff821115620002dc57620002db6200023a565b5b620002e78262000229565b9050602081019050919050565b60005b8381101562000314578082015181840152602081019050620002f7565b8381111562000324576000848401525b50505050565b6000620003416200033b84620002be565b6200029f565b90508281526020810184848401111562000360576200035f62000224565b5b6200036d848285620002f4565b509392505050565b600082601f8301126200038d576200038c6200021f565b5b81516200039f8482602086016200032a565b91505092915050565b600060208284031215620003c157620003c062000215565b5b600082015167ffffffffffffffff811115620003e257620003e16200021a565b5b620003f08482850162000375565b91505092915050565b7f4e487b7100000000000000000000000000000000000000000000000000000000600052602260045260246000fd5b600060028204905060018216806200044157607f821691505b60208210811415620004585762000457620003f9565b5b50919050565b613b75806200046e6000396000f3fe608060405234801561001057600080fd5b50600436106100ff5760003560e01c8063715018a611610097578063e985e9c511610066578063e985e9c514610294578063f242432a146102c4578063f2fde38b146102e0578063f5298aca146102fc576100ff565b8063715018a614610234578063731133e91461023e5780638da5cb5b1461025a578063a22cb46514610278576100ff565b80631f7fdffa116100d35780631f7fdffa146101b05780632eb2c2d6146101cc5780634e1273f4146101e85780636b20c45414610218576100ff565b8062fdd58e1461010457806301ffc9a71461013457806302fe5305146101645780630e89341c14610180575b600080fd5b61011e60048036038101906101199190612367565b610318565b60405161012b91906123b6565b60405180910390f35b61014e60048036038101906101499190612429565b6103e1565b60405161015b9190612471565b60405180910390f35b61017e600480360381019061017991906125d2565b6104c3565b005b61019a6004803603810190610195919061261b565b61054b565b6040516101a791906126d0565b60405180910390f35b6101ca60048036038101906101c5919061285b565b6105df565b005b6101e660048036038101906101e19190612916565b61066d565b005b61020260048036038101906101fd9190612aa8565b61070e565b60405161020f9190612bde565b60405180910390f35b610232600480360381019061022d9190612c00565b610827565b005b61023c6108c4565b005b61025860048036038101906102539190612c8b565b61094c565b005b6102626109da565b60405161026f9190612d1d565b60405180910390f35b610292600480360381019061028d9190612d64565b610a04565b005b6102ae60048036038101906102a99190612da4565b610b85565b6040516102bb9190612471565b60405180910390f35b6102de60048036038101906102d99190612de4565b610c19565b005b6102fa60048036038101906102f59190612e7b565b610cba565b005b61031660048036038101906103119190612ea8565b610db2565b005b60008073ffffffffffffffffffffffffffffffffffffffff168373ffffffffffffffffffffffffffffffffffffffff161415610389576040517f08c379a000000000000000000000000000000000000000000000000000000000815260040161038090612f6d565b60405180910390fd5b60008083815260200190815260200160002060008473ffffffffffffffffffffffffffffffffffffffff1673ffffffffffffffffffffffffffffffffffffffff16815260200190815260200160002054905092915050565b60007fd9b67a26000000000000000000000000000000000000000000000000000000007bffffffffffffffffffffffffffffffffffffffffffffffffffffffff1916827bffffffffffffffffffffffffffffffffffffffffffffffffffffffff191614806104ac57507f0e89341c000000000000000000000000000000000000000000000000000000007bffffffffffffffffffffffffffffffffffffffffffffffffffffffff1916827bffffffffffffffffffffffffffffffffffffffffffffffffffffffff1916145b806104bc57506104bb82610e4f565b5b9050919050565b6104cb610eb9565b73ffffffffffffffffffffffffffffffffffffffff166104e96109da565b73ffffffffffffffffffffffffffffffffffffffff161461053f576040517f08c379a000000000000000000000000000000000000000000000000000000000815260040161053690612fd9565b60405180910390fd5b61054881610ec1565b50565b60606002805461055a90613028565b80601f016020809104026020016040519081016040528092919081815260200182805461058690613028565b80156105d35780601f106105a8576101008083540402835291602001916105d3565b820191906000526020600020905b8154815290600101906020018083116105b657829003601f168201915b50505050509050919050565b6105e7610eb9565b73ffffffffffffffffffffffffffffffffffffffff166106056109da565b73ffffffffffffffffffffffffffffffffffffffff161461065b576040517f08c379a000000000000000000000000000000000000000000000000000000000815260040161065290612fd9565b60405180910390fd5b61066784848484610edb565b50505050565b610675610eb9565b73ffffffffffffffffffffffffffffffffffffffff168573ffffffffffffffffffffffffffffffffffffffff1614806106bb57506106ba856106b5610eb9565b610b85565b5b6106fa576040517f08c379a00000000000000000000000000000000000000000000000000000000081526004016106f1906130cc565b60405180910390fd5b61070785858585856110f9565b5050505050565b60608151835114610754576040517f08c379a000000000000000000000000000000000000000000000000000000000815260040161074b9061315e565b60405180910390fd5b6000835167ffffffffffffffff811115610771576107706124a7565b5b60405190808252806020026020018201604052801561079f5781602001602082028036833780820191505090505b50905060005b845181101561081c576107ec8582815181106107c4576107c361317e565b5b60200260200101518583815181106107df576107de61317e565b5b6020026020010151610318565b8282815181106107ff576107fe61317e565b5b60200260200101818152505080610815906131dc565b90506107a5565b508091505092915050565b61082f610eb9565b73ffffffffffffffffffffffffffffffffffffffff168373ffffffffffffffffffffffffffffffffffffffff16148061087557506108748361086f610eb9565b610b85565b5b6108b4576040517f08c379a00000000000000000000000000000000000000000000000000000000081526004016108ab90613297565b60405180910390fd5b6108bf83838361140d565b505050565b6108cc610eb9565b73ffffffffffffffffffffffffffffffffffffffff166108ea6109da565b73ffffffffffffffffffffffffffffffffffffffff1614610940576040517f08c379a000000000000000000000000000000000000000000000000000000000815260040161093790612fd9565b60405180910390fd5b61094a60006116be565b565b610954610eb9565b73ffffffffffffffffffffffffffffffffffffffff166109726109da565b73ffffffffffffffffffffffffffffffffffffffff16146109c8576040517f08c379a00000000000000000000000000000000000000000000000000000000081526004016109bf90612fd9565b60405180910390fd5b6109d484848484611784565b50505050565b6000600360009054906101000a900473ffffffffffffffffffffffffffffffffffffffff16905090565b8173ffffffffffffffffffffffffffffffffffffffff16610a23610eb9565b73ffffffffffffffffffffffffffffffffffffffff161415610a7a576040517f08c379a0000000000000000000000000000000000000000000000000000000008152600401610a7190613329565b60405180910390fd5b8060016000610a87610eb9565b73ffffffffffffffffffffffffffffffffffffffff1673ffffffffffffffffffffffffffffffffffffffff16815260200190815260200160002060008473ffffffffffffffffffffffffffffffffffffffff1673ffffffffffffffffffffffffffffffffffffffff16815260200190815260200160002060006101000a81548160ff0219169083151502179055508173ffffffffffffffffffffffffffffffffffffffff16610b34610eb9565b73ffffffffffffffffffffffffffffffffffffffff167f17307eab39ab6107e8899845ad3d59bd9653f200f220920489ca2b5937696c3183604051610b799190612471565b60405180910390a35050565b6000600160008473ffffffffffffffffffffffffffffffffffffffff1673ffffffffffffffffffffffffffffffffffffffff16815260200190815260200160002060008373ffffffffffffffffffffffffffffffffffffffff1673ffffffffffffffffffffffffffffffffffffffff16815260200190815260200160002060009054906101000a900460ff16905092915050565b610c21610eb9565b73ffffffffffffffffffffffffffffffffffffffff168573ffffffffffffffffffffffffffffffffffffffff161480610c675750610c6685610c61610eb9565b610b85565b5b610ca6576040517f08c379a0000000000000000000000000000000000000000000000000000000008152600401610c9d90613297565b60405180910390fd5b610cb3858585858561191a565b5050505050565b610cc2610eb9565b73ffffffffffffffffffffffffffffffffffffffff16610ce06109da565b73ffffffffffffffffffffffffffffffffffffffff1614610d36576040517f08c379a0000000000000000000000000000000000000000000000000000000008152600401610d2d90612fd9565b60405180910390fd5b600073ffffffffffffffffffffffffffffffffffffffff168173ffffffffffffffffffffffffffffffffffffffff161415610da6576040517f08c379a0000000000000000000000000000000000000000000000000000000008152600401610d9d906133bb565b60405180910390fd5b610daf816116be565b50565b610dba610eb9565b73ffffffffffffffffffffffffffffffffffffffff168373ffffffffffffffffffffffffffffffffffffffff161480610e005750610dff83610dfa610eb9565b610b85565b5b610e3f576040517f08c379a0000000000000000000000000000000000000000000000000000000008152600401610e3690613297565b60405180910390fd5b610e4a838383611b9c565b505050565b60007f01ffc9a7000000000000000000000000000000000000000000000000000000007bffffffffffffffffffffffffffffffffffffffffffffffffffffffff1916827bffffffffffffffffffffffffffffffffffffffffffffffffffffffff1916149050919050565b600033905090565b8060029080519060200190610ed792919061221c565b5050565b600073ffffffffffffffffffffffffffffffffffffffff168473ffffffffffffffffffffffffffffffffffffffff161415610f4b576040517f08c379a0000000000000000000000000000000000000000000000000000000008152600401610f429061344d565b60405180910390fd5b8151835114610f8f576040517f08c379a0000000000000000000000000000000000000000000000000000000008152600401610f86906134df565b60405180910390fd5b6000610f99610eb9565b9050610faa81600087878787611db9565b60005b845181101561106357838181518110610fc957610fc861317e565b5b6020026020010151600080878481518110610fe757610fe661317e565b5b6020026020010151815260200190815260200160002060008873ffffffffffffffffffffffffffffffffffffffff1673ffffffffffffffffffffffffffffffffffffffff168152602001908152602001600020600082825461104991906134ff565b92505081905550808061105b906131dc565b915050610fad565b508473ffffffffffffffffffffffffffffffffffffffff16600073ffffffffffffffffffffffffffffffffffffffff168273ffffffffffffffffffffffffffffffffffffffff167f4a39dc06d4c0dbc64b70af90fd698a233a518aa5d07e595d983b8c0526c8f7fb87876040516110db929190613555565b60405180910390a46110f281600087878787611dc1565b5050505050565b815183511461113d576040517f08c379a0000000000000000000000000000000000000000000000000000000008152600401611134906134df565b60405180910390fd5b600073ffffffffffffffffffffffffffffffffffffffff168473ffffffffffffffffffffffffffffffffffffffff1614156111ad576040517f08c379a00000000000000000000000000000000000000000000000000000000081526004016111a4906135fe565b60405180910390fd5b60006111b7610eb9565b90506111c7818787878787611db9565b60005b84518110156113785760008582815181106111e8576111e761317e565b5b6020026020010151905060008583815181106112075761120661317e565b5b60200260200101519050600080600084815260200190815260200160002060008b73ffffffffffffffffffffffffffffffffffffffff1673ffffffffffffffffffffffffffffffffffffffff168152602001908152602001600020549050818110156112a8576040517f08c379a000000000000000000000000000000000000000000000000000000000815260040161129f90613690565b60405180910390fd5b81810360008085815260200190815260200160002060008c73ffffffffffffffffffffffffffffffffffffffff1673ffffffffffffffffffffffffffffffffffffffff168152602001908152602001600020819055508160008085815260200190815260200160002060008b73ffffffffffffffffffffffffffffffffffffffff1673ffffffffffffffffffffffffffffffffffffffff168152602001908152602001600020600082825461135d91906134ff565b9250508190555050505080611371906131dc565b90506111ca565b508473ffffffffffffffffffffffffffffffffffffffff168673ffffffffffffffffffffffffffffffffffffffff168273ffffffffffffffffffffffffffffffffffffffff167f4a39dc06d4c0dbc64b70af90fd698a233a518aa5d07e595d983b8c0526c8f7fb87876040516113ef929190613555565b60405180910390a4611405818787878787611dc1565b505050505050565b600073ffffffffffffffffffffffffffffffffffffffff168373ffffffffffffffffffffffffffffffffffffffff16141561147d576040517f08c379a000000000000000000000000000000000000000000000000000000000815260040161147490613722565b60405180910390fd5b80518251146114c1576040517f08c379a00000000000000000000000000000000000000000000000000000000081526004016114b8906134df565b60405180910390fd5b60006114cb610eb9565b90506114eb81856000868660405180602001604052806000815250611db9565b60005b835181101561163857600084828151811061150c5761150b61317e565b5b60200260200101519050600084838151811061152b5761152a61317e565b5b60200260200101519050600080600084815260200190815260200160002060008973ffffffffffffffffffffffffffffffffffffffff1673ffffffffffffffffffffffffffffffffffffffff168152602001908152602001600020549050818110156115cc576040517f08c379a00000000000000000000000000000000000000000000000000000000081526004016115c3906137b4565b60405180910390fd5b81810360008085815260200190815260200160002060008a73ffffffffffffffffffffffffffffffffffffffff1673ffffffffffffffffffffffffffffffffffffffff168152602001908152602001600020819055505050508080611630906131dc565b9150506114ee565b50600073ffffffffffffffffffffffffffffffffffffffff168473ffffffffffffffffffffffffffffffffffffffff168273ffffffffffffffffffffffffffffffffffffffff167f4a39dc06d4c0dbc64b70af90fd698a233a518aa5d07e595d983b8c0526c8f7fb86866040516116b0929190613555565b60405180910390a450505050565b6000600360009054906101000a900473ffffffffffffffffffffffffffffffffffffffff16905081600360006101000a81548173ffffffffffffffffffffffffffffffffffffffff021916908373ffffffffffffffffffffffffffffffffffffffff1602179055508173ffffffffffffffffffffffffffffffffffffffff168173ffffffffffffffffffffffffffffffffffffffff167f8be0079c531659141344cd1fd0a4f28419497f9722a3daafe3b4186f6b6457e060405160405180910390a35050565b600073ffffffffffffffffffffffffffffffffffffffff168473ffffffffffffffffffffffffffffffffffffffff1614156117f4576040517f08c379a00000000000000000000000000000000000000000000000000000000081526004016117eb9061344d565b60405180910390fd5b60006117fe610eb9565b905061181f8160008761181088611fa8565b61181988611fa8565b87611db9565b8260008086815260200190815260200160002060008773ffffffffffffffffffffffffffffffffffffffff1673ffffffffffffffffffffffffffffffffffffffff168152602001908152602001600020600082825461187e91906134ff565b925050819055508473ffffffffffffffffffffffffffffffffffffffff16600073ffffffffffffffffffffffffffffffffffffffff168273ffffffffffffffffffffffffffffffffffffffff167fc3d58168c5ae7397731d063d5bbf3d657854427343f4c083240f7aacaa2d0f6287876040516118fc9291906137d4565b60405180910390a461191381600087878787612022565b5050505050565b600073ffffffffffffffffffffffffffffffffffffffff168473ffffffffffffffffffffffffffffffffffffffff16141561198a576040517f08c379a0000000000000000000000000000000000000000000000000000000008152600401611981906135fe565b60405180910390fd5b6000611994610eb9565b90506119b48187876119a588611fa8565b6119ae88611fa8565b87611db9565b600080600086815260200190815260200160002060008873ffffffffffffffffffffffffffffffffffffffff1673ffffffffffffffffffffffffffffffffffffffff16815260200190815260200160002054905083811015611a4b576040517f08c379a0000000000000000000000000000000000000000000000000000000008152600401611a4290613690565b60405180910390fd5b83810360008087815260200190815260200160002060008973ffffffffffffffffffffffffffffffffffffffff1673ffffffffffffffffffffffffffffffffffffffff168152602001908152602001600020819055508360008087815260200190815260200160002060008873ffffffffffffffffffffffffffffffffffffffff1673ffffffffffffffffffffffffffffffffffffffff1681526020019081526020016000206000828254611b0091906134ff565b925050819055508573ffffffffffffffffffffffffffffffffffffffff168773ffffffffffffffffffffffffffffffffffffffff168373ffffffffffffffffffffffffffffffffffffffff167fc3d58168c5ae7397731d063d5bbf3d657854427343f4c083240f7aacaa2d0f628888604051611b7d9291906137d4565b60405180910390a4611b93828888888888612022565b50505050505050565b600073ffffffffffffffffffffffffffffffffffffffff168373ffffffffffffffffffffffffffffffffffffffff161415611c0c576040517f08c379a0000000000000000000000000000000000000000000000000000000008152600401611c0390613722565b60405180910390fd5b6000611c16610eb9565b9050611c4681856000611c2887611fa8565b611c3187611fa8565b60405180602001604052806000815250611db9565b600080600085815260200190815260200160002060008673ffffffffffffffffffffffffffffffffffffffff1673ffffffffffffffffffffffffffffffffffffffff16815260200190815260200160002054905082811015611cdd576040517f08c379a0000000000000000000000000000000000000000000000000000000008152600401611cd4906137b4565b60405180910390fd5b82810360008086815260200190815260200160002060008773ffffffffffffffffffffffffffffffffffffffff1673ffffffffffffffffffffffffffffffffffffffff16815260200190815260200160002081905550600073ffffffffffffffffffffffffffffffffffffffff168573ffffffffffffffffffffffffffffffffffffffff168373ffffffffffffffffffffffffffffffffffffffff167fc3d58168c5ae7397731d063d5bbf3d657854427343f4c083240f7aacaa2d0f628787604051611daa9291906137d4565b60405180910390a45050505050565b505050505050565b611de08473ffffffffffffffffffffffffffffffffffffffff16612209565b15611fa0578373ffffffffffffffffffffffffffffffffffffffff1663bc197c8187878686866040518663ffffffff1660e01b8152600401611e26959493929190613852565b602060405180830381600087803b158015611e4057600080fd5b505af1925050508015611e7157506040513d601f19601f82011682018060405250810190611e6e91906138cf565b60015b611f1757611e7d613909565b806308c379a01415611eda5750611e9261392b565b80611e9d5750611edc565b806040517f08c379a0000000000000000000000000000000000000000000000000000000008152600401611ed191906126d0565b60405180910390fd5b505b6040517f08c379a0000000000000000000000000000000000000000000000000000000008152600401611f0e90613a33565b60405180910390fd5b63bc197c8160e01b7bffffffffffffffffffffffffffffffffffffffffffffffffffffffff1916817bffffffffffffffffffffffffffffffffffffffffffffffffffffffff191614611f9e576040517f08c379a0000000000000000000000000000000000000000000000000000000008152600401611f9590613ac5565b60405180910390fd5b505b505050505050565b60606000600167ffffffffffffffff811115611fc757611fc66124a7565b5b604051908082528060200260200182016040528015611ff55781602001602082028036833780820191505090505b509050828160008151811061200d5761200c61317e565b5b60200260200101818152505080915050919050565b6120418473ffffffffffffffffffffffffffffffffffffffff16612209565b15612201578373ffffffffffffffffffffffffffffffffffffffff1663f23a6e6187878686866040518663ffffffff1660e01b8152600401612087959493929190613ae5565b602060405180830381600087803b1580156120a157600080fd5b505af19250505080156120d257506040513d601f19601f820116820180604052508101906120cf91906138cf565b60015b612178576120de613909565b806308c379a0141561213b57506120f361392b565b806120fe575061213d565b806040517f08c379a000000000000000000000000000000000000000000000000000000000815260040161213291906126d0565b60405180910390fd5b505b6040517f08c379a000000000000000000000000000000000000000000000000000000000815260040161216f90613a33565b60405180910390fd5b63f23a6e6160e01b7bffffffffffffffffffffffffffffffffffffffffffffffffffffffff1916817bffffffffffffffffffffffffffffffffffffffffffffffffffffffff1916146121ff576040517f08c379a00000000000000000000000000000000000000000000000000000000081526004016121f690613ac5565b60405180910390fd5b505b505050505050565b600080823b905060008111915050919050565b82805461222890613028565b90600052602060002090601f01602090048101928261224a5760008555612291565b82601f1061226357805160ff1916838001178555612291565b82800160010185558215612291579182015b82811115612290578251825591602001919060010190612275565b5b50905061229e91906122a2565b5090565b5b808211156122bb5760008160009055506001016122a3565b5090565b6000604051905090565b600080fd5b600080fd5b600073ffffffffffffffffffffffffffffffffffffffff82169050919050565b60006122fe826122d3565b9050919050565b61230e816122f3565b811461231957600080fd5b50565b60008135905061232b81612305565b92915050565b6000819050919050565b61234481612331565b811461234f57600080fd5b50565b6000813590506123618161233b565b92915050565b6000806040838503121561237e5761237d6122c9565b5b600061238c8582860161231c565b925050602061239d85828601612352565b9150509250929050565b6123b081612331565b82525050565b60006020820190506123cb60008301846123a7565b92915050565b60007fffffffff0000000000000000000000000000000000000000000000000000000082169050919050565b612406816123d1565b811461241157600080fd5b50565b600081359050612423816123fd565b92915050565b60006020828403121561243f5761243e6122c9565b5b600061244d84828501612414565b91505092915050565b60008115159050919050565b61246b81612456565b82525050565b60006020820190506124866000830184612462565b92915050565b600080fd5b600080fd5b6000601f19601f8301169050919050565b7f4e487b7100000000000000000000000000000000000000000000000000000000600052604160045260246000fd5b6124df82612496565b810181811067ffffffffffffffff821117156124fe576124fd6124a7565b5b80604052505050565b60006125116122bf565b905061251d82826124d6565b919050565b600067ffffffffffffffff82111561253d5761253c6124a7565b5b61254682612496565b9050602081019050919050565b82818337600083830152505050565b600061257561257084612522565b612507565b90508281526020810184848401111561259157612590612491565b5b61259c848285612553565b509392505050565b600082601f8301126125b9576125b861248c565b5b81356125c9848260208601612562565b91505092915050565b6000602082840312156125e8576125e76122c9565b5b600082013567ffffffffffffffff811115612606576126056122ce565b5b612612848285016125a4565b91505092915050565b600060208284031215612631576126306122c9565b5b600061263f84828501612352565b91505092915050565b600081519050919050565b600082825260208201905092915050565b60005b83811015612682578082015181840152602081019050612667565b83811115612691576000848401525b50505050565b60006126a282612648565b6126ac8185612653565b93506126bc818560208601612664565b6126c581612496565b840191505092915050565b600060208201905081810360008301526126ea8184612697565b905092915050565b600067ffffffffffffffff82111561270d5761270c6124a7565b5b602082029050602081019050919050565b600080fd5b6000612736612731846126f2565b612507565b905080838252602082019050602084028301858111156127595761275861271e565b5b835b81811015612782578061276e8882612352565b84526020840193505060208101905061275b565b5050509392505050565b600082601f8301126127a1576127a061248c565b5b81356127b1848260208601612723565b91505092915050565b600067ffffffffffffffff8211156127d5576127d46124a7565b5b6127de82612496565b9050602081019050919050565b60006127fe6127f9846127ba565b612507565b90508281526020810184848401111561281a57612819612491565b5b612825848285612553565b509392505050565b600082601f8301126128425761284161248c565b5b81356128528482602086016127eb565b91505092915050565b60008060008060808587031215612875576128746122c9565b5b60006128838782880161231c565b945050602085013567ffffffffffffffff8111156128a4576128a36122ce565b5b6128b08782880161278c565b935050604085013567ffffffffffffffff8111156128d1576128d06122ce565b5b6128dd8782880161278c565b925050606085013567ffffffffffffffff8111156128fe576128fd6122ce565b5b61290a8782880161282d565b91505092959194509250565b600080600080600060a08688031215612932576129316122c9565b5b60006129408882890161231c565b95505060206129518882890161231c565b945050604086013567ffffffffffffffff811115612972576129716122ce565b5b61297e8882890161278c565b935050606086013567ffffffffffffffff81111561299f5761299e6122ce565b5b6129ab8882890161278c565b925050608086013567ffffffffffffffff8111156129cc576129cb6122ce565b5b6129d88882890161282d565b9150509295509295909350565b600067ffffffffffffffff821115612a00576129ff6124a7565b5b602082029050602081019050919050565b6000612a24612a1f846129e5565b612507565b90508083825260208201905060208402830185811115612a4757612a4661271e565b5b835b81811015612a705780612a5c888261231c565b845260208401935050602081019050612a49565b5050509392505050565b600082601f830112612a8f57612a8e61248c565b5b8135612a9f848260208601612a11565b91505092915050565b60008060408385031215612abf57612abe6122c9565b5b600083013567ffffffffffffffff811115612add57612adc6122ce565b5b612ae985828601612a7a565b925050602083013567ffffffffffffffff811115612b0a57612b096122ce565b5b612b168582860161278c565b9150509250929050565b600081519050919050565b600082825260208201905092915050565b6000819050602082019050919050565b612b5581612331565b82525050565b6000612b678383612b4c565b60208301905092915050565b6000602082019050919050565b6000612b8b82612b20565b612b958185612b2b565b9350612ba083612b3c565b8060005b83811015612bd1578151612bb88882612b5b565b9750612bc383612b73565b925050600181019050612ba4565b5085935050505092915050565b60006020820190508181036000830152612bf88184612b80565b905092915050565b600080600060608486031215612c1957612c186122c9565b5b6000612c278682870161231c565b935050602084013567ffffffffffffffff811115612c4857612c476122ce565b5b612c548682870161278c565b925050604084013567ffffffffffffffff811115612c7557612c746122ce565b5b612c818682870161278c565b9150509250925092565b60008060008060808587031215612ca557612ca46122c9565b5b6000612cb38782880161231c565b9450506020612cc487828801612352565b9350506040612cd587828801612352565b925050606085013567ffffffffffffffff811115612cf657612cf56122ce565b5b612d028782880161282d565b91505092959194509250565b612d17816122f3565b82525050565b6000602082019050612d326000830184612d0e565b92915050565b612d4181612456565b8114612d4c57600080fd5b50565b600081359050612d5e81612d38565b92915050565b60008060408385031215612d7b57612d7a6122c9565b5b6000612d898582860161231c565b9250506020612d9a85828601612d4f565b9150509250929050565b60008060408385031215612dbb57612dba6122c9565b5b6000612dc98582860161231c565b9250506020612dda8582860161231c565b9150509250929050565b600080600080600060a08688031215612e0057612dff6122c9565b5b6000612e0e8882890161231c565b9550506020612e1f8882890161231c565b9450506040612e3088828901612352565b9350506060612e4188828901612352565b925050608086013567ffffffffffffffff811115612e6257612e616122ce565b5b612e6e8882890161282d565b9150509295509295909350565b600060208284031215612e9157612e906122c9565b5b6000612e9f8482850161231c565b91505092915050565b600080600060608486031215612ec157612ec06122c9565b5b6000612ecf8682870161231c565b9350506020612ee086828701612352565b9250506040612ef186828701612352565b9150509250925092565b7f455243313135353a2062616c616e636520717565727920666f7220746865207a60008201527f65726f2061646472657373000000000000000000000000000000000000000000602082015250565b6000612f57602b83612653565b9150612f6282612efb565b604082019050919050565b60006020820190508181036000830152612f8681612f4a565b9050919050565b7f4f776e61626c653a2063616c6c6572206973206e6f7420746865206f776e6572600082015250565b6000612fc3602083612653565b9150612fce82612f8d565b602082019050919050565b60006020820190508181036000830152612ff281612fb6565b9050919050565b7f4e487b7100000000000000000000000000000000000000000000000000000000600052602260045260246000fd5b6000600282049050600182168061304057607f821691505b6020821081141561305457613053612ff9565b5b50919050565b7f455243313135353a207472616e736665722063616c6c6572206973206e6f742060008201527f6f776e6572206e6f7220617070726f7665640000000000000000000000000000602082015250565b60006130b6603283612653565b91506130c18261305a565b604082019050919050565b600060208201905081810360008301526130e5816130a9565b9050919050565b7f455243313135353a206163636f756e747320616e6420696473206c656e67746860008201527f206d69736d617463680000000000000000000000000000000000000000000000602082015250565b6000613148602983612653565b9150613153826130ec565b604082019050919050565b600060208201905081810360008301526131778161313b565b9050919050565b7f4e487b7100000000000000000000000000000000000000000000000000000000600052603260045260246000fd5b7f4e487b7100000000000000000000000000000000000000000000000000000000600052601160045260246000fd5b60006131e782612331565b91507fffffffffffffffffffffffffffffffffffffffffffffffffffffffffffffffff82141561321a576132196131ad565b5b600182019050919050565b7f455243313135353a2063616c6c6572206973206e6f74206f776e6572206e6f7260008201527f20617070726f7665640000000000000000000000000000000000000000000000602082015250565b6000613281602983612653565b915061328c82613225565b604082019050919050565b600060208201905081810360008301526132b081613274565b9050919050565b7f455243313135353a2073657474696e6720617070726f76616c2073746174757360008201527f20666f722073656c660000000000000000000000000000000000000000000000602082015250565b6000613313602983612653565b915061331e826132b7565b604082019050919050565b6000602082019050818103600083015261334281613306565b9050919050565b7f4f776e61626c653a206e6577206f776e657220697320746865207a65726f206160008201527f6464726573730000000000000000000000000000000000000000000000000000602082015250565b60006133a5602683612653565b91506133b082613349565b604082019050919050565b600060208201905081810360008301526133d481613398565b9050919050565b7f455243313135353a206d696e7420746f20746865207a65726f2061646472657360008201527f7300000000000000000000000000000000000000000000000000000000000000602082015250565b6000613437602183612653565b9150613442826133db565b604082019050919050565b600060208201905081810360008301526134668161342a565b9050919050565b7f455243313135353a2069647320616e6420616d6f756e7473206c656e6774682060008201527f6d69736d61746368000000000000000000000000000000000000000000000000602082015250565b60006134c9602883612653565b91506134d48261346d565b604082019050919050565b600060208201905081810360008301526134f8816134bc565b9050919050565b600061350a82612331565b915061351583612331565b9250827fffffffffffffffffffffffffffffffffffffffffffffffffffffffffffffffff0382111561354a576135496131ad565b5b828201905092915050565b6000604082019050818103600083015261356f8185612b80565b905081810360208301526135838184612b80565b90509392505050565b7f455243313135353a207472616e7366657220746f20746865207a65726f20616460008201527f6472657373000000000000000000000000000000000000000000000000000000602082015250565b60006135e8602583612653565b91506135f38261358c565b604082019050919050565b60006020820190508181036000830152613617816135db565b9050919050565b7f455243313135353a20696e73756666696369656e742062616c616e636520666f60008201527f72207472616e7366657200000000000000000000000000000000000000000000602082015250565b600061367a602a83612653565b91506136858261361e565b604082019050919050565b600060208201905081810360008301526136a98161366d565b9050919050565b7f455243313135353a206275726e2066726f6d20746865207a65726f206164647260008201527f6573730000000000000000000000000000000000000000000000000000000000602082015250565b600061370c602383612653565b9150613717826136b0565b604082019050919050565b6000602082019050818103600083015261373b816136ff565b9050919050565b7f455243313135353a206275726e20616d6f756e7420657863656564732062616c60008201527f616e636500000000000000000000000000000000000000000000000000000000602082015250565b600061379e602483612653565b91506137a982613742565b604082019050919050565b600060208201905081810360008301526137cd81613791565b9050919050565b60006040820190506137e960008301856123a7565b6137f660208301846123a7565b9392505050565b600081519050919050565b600082825260208201905092915050565b6000613824826137fd565b61382e8185613808565b935061383e818560208601612664565b61384781612496565b840191505092915050565b600060a0820190506138676000830188612d0e565b6138746020830187612d0e565b81810360408301526138868186612b80565b9050818103606083015261389a8185612b80565b905081810360808301526138ae8184613819565b90509695505050505050565b6000815190506138c9816123fd565b92915050565b6000602082840312156138e5576138e46122c9565b5b60006138f3848285016138ba565b91505092915050565b60008160e01c9050919050565b600060033d11156139285760046000803e6139256000516138fc565b90505b90565b600060443d101561393b576139be565b6139436122bf565b60043d036004823e80513d602482011167ffffffffffffffff8211171561396b5750506139be565b808201805167ffffffffffffffff81111561398957505050506139be565b80602083010160043d0385018111156139a65750505050506139be565b6139b5826020018501866124d6565b82955050505050505b90565b7f455243313135353a207472616e7366657220746f206e6f6e204552433131353560008201527f526563656976657220696d706c656d656e746572000000000000000000000000602082015250565b6000613a1d603483612653565b9150613a28826139c1565b604082019050919050565b60006020820190508181036000830152613a4c81613a10565b9050919050565b7f455243313135353a204552433131353552656365697665722072656a6563746560008201527f6420746f6b656e73000000000000000000000000000000000000000000000000602082015250565b6000613aaf602883612653565b9150613aba82613a53565b604082019050919050565b60006020820190508181036000830152613ade81613aa2565b9050919050565b600060a082019050613afa6000830188612d0e565b613b076020830187612d0e565b613b1460408301866123a7565b613b2160608301856123a7565b8181036080830152613b338184613819565b9050969550505050505056fea2646970667358221220c4e24408dcdbaab838430df68aa85de3f74f48e00502f43208f4b5b0553490a564736f6c63430008090033",
  "immutableReferences": {},
  "source": "// SPDX-License-Identifier: MIT\npragma solidity ^0.8.0;\n\nimport \"@openzeppelin/contracts/token/ERC1155/ERC1155.sol\";\nimport \"@openzeppelin/contracts/access/Ownable.sol\";\nimport \"@openzeppelin/contracts/token/ERC1155/extensions/ERC1155Burnable.sol\";\n\n//// @title Musichain NFT Contract\n//// @notice The base contract to create NFTs in Musichain plataform\ncontract MusichainNFT is ERC1155, Ownable, ERC1155Burnable {\n    constructor(string memory _baseUrl) ERC1155(_baseUrl) {}\n\n    function setURI(string memory newuri) public onlyOwner {\n        _setURI(newuri);\n    }\n\n    function mint(\n        address account,\n        uint256 id,\n        uint256 amount,\n        bytes memory data\n    ) public onlyOwner {\n        _mint(account, id, amount, data);\n    }\n\n    function mintBatch(\n        address to,\n        uint256[] memory ids,\n        uint256[] memory amounts,\n        bytes memory data\n    ) public onlyOwner {\n        _mintBatch(to, ids, amounts, data);\n    }\n}\n",
  "sourcePath": "/home/erion/dev/consensys/blockchain-developer-bootcamp-final-project/contracts/nft/MusichainNFT.sol",
  "compiler": {
    "name": "solc",
    "version": "0.8.9+commit.e5eed63a.Emscripten.clang"
  },
  "schemaVersion": "3.4.3",
  "updatedAt": "2021-10-19T13:09:51.904Z",
  "devdoc": {
    "kind": "dev",
    "methods": {
      "balanceOf(address,uint256)": {
        "details": "See {IERC1155-balanceOf}. Requirements: - `account` cannot be the zero address."
      },
      "balanceOfBatch(address[],uint256[])": {
        "details": "See {IERC1155-balanceOfBatch}. Requirements: - `accounts` and `ids` must have the same length."
      },
      "isApprovedForAll(address,address)": {
        "details": "See {IERC1155-isApprovedForAll}."
      },
      "owner()": {
        "details": "Returns the address of the current owner."
      },
      "renounceOwnership()": {
        "details": "Leaves the contract without owner. It will not be possible to call `onlyOwner` functions anymore. Can only be called by the current owner. NOTE: Renouncing ownership will leave the contract without an owner, thereby removing any functionality that is only available to the owner."
      },
      "safeBatchTransferFrom(address,address,uint256[],uint256[],bytes)": {
        "details": "See {IERC1155-safeBatchTransferFrom}."
      },
      "safeTransferFrom(address,address,uint256,uint256,bytes)": {
        "details": "See {IERC1155-safeTransferFrom}."
      },
      "setApprovalForAll(address,bool)": {
        "details": "See {IERC1155-setApprovalForAll}."
      },
      "supportsInterface(bytes4)": {
        "details": "See {IERC165-supportsInterface}."
      },
      "transferOwnership(address)": {
        "details": "Transfers ownership of the contract to a new account (`newOwner`). Can only be called by the current owner."
      },
      "uri(uint256)": {
        "details": "See {IERC1155MetadataURI-uri}. This implementation returns the same URI for *all* token types. It relies on the token type ID substitution mechanism https://eips.ethereum.org/EIPS/eip-1155#metadata[defined in the EIP]. Clients calling this function must replace the `\\{id\\}` substring with the actual token type ID."
      }
    },
    "version": 1
  },
  "userdoc": {
    "kind": "user",
    "methods": {},
    "version": 1
  }
}